{
  "_format": "hh-sol-artifact-1",
  "contractName": "ContractAdmin",
  "sourceName": "contracts/ContractAdmin.sol",
  "abi": [
    {
      "inputs": [
        {
          "internalType": "address",
          "name": "addressContractMint",
          "type": "address"
        }
      ],
      "stateMutability": "nonpayable",
      "type": "constructor"
    },
    {
      "inputs": [
        {
          "internalType": "uint256",
          "name": "tokenId",
          "type": "uint256"
        },
        {
          "internalType": "uint256",
          "name": "amount",
          "type": "uint256"
        }
      ],
      "name": "mint",
      "outputs": [],
      "stateMutability": "nonpayable",
      "type": "function"
    },
    {
      "inputs": [],
      "name": "nftContract",
      "outputs": [
        {
          "internalType": "contract ContractERC1155",
          "name": "",
          "type": "address"
        }
      ],
      "stateMutability": "view",
      "type": "function"
    }
  ],
  "bytecode": "0x608060405234801561001057600080fd5b50604051610445380380610445833981810160405281019061003291906100db565b806000806101000a81548173ffffffffffffffffffffffffffffffffffffffff021916908373ffffffffffffffffffffffffffffffffffffffff16021790555050610108565b600080fd5b600073ffffffffffffffffffffffffffffffffffffffff82169050919050565b60006100a88261007d565b9050919050565b6100b88161009d565b81146100c357600080fd5b50565b6000815190506100d5816100af565b92915050565b6000602082840312156100f1576100f0610078565b5b60006100ff848285016100c6565b91505092915050565b61032e806101176000396000f3fe608060405234801561001057600080fd5b50600436106100365760003560e01c80631b2ef1ca1461003b578063d56d229d14610057575b600080fd5b6100556004803603810190610050919061016d565b610075565b005b61005f61010e565b60405161006c919061022c565b60405180910390f35b600033905060008054906101000a900473ffffffffffffffffffffffffffffffffffffffff1673ffffffffffffffffffffffffffffffffffffffff1663731133e98285856040518463ffffffff1660e01b81526004016100d7939291906102ae565b600060405180830381600087803b1580156100f157600080fd5b505af1158015610105573d6000803e3d6000fd5b50505050505050565b60008054906101000a900473ffffffffffffffffffffffffffffffffffffffff1681565b600080fd5b6000819050919050565b61014a81610137565b811461015557600080fd5b50565b60008135905061016781610141565b92915050565b6000806040838503121561018457610183610132565b5b600061019285828601610158565b92505060206101a385828601610158565b9150509250929050565b600073ffffffffffffffffffffffffffffffffffffffff82169050919050565b6000819050919050565b60006101f26101ed6101e8846101ad565b6101cd565b6101ad565b9050919050565b6000610204826101d7565b9050919050565b6000610216826101f9565b9050919050565b6102268161020b565b82525050565b6000602082019050610241600083018461021d565b92915050565b6000610252826101ad565b9050919050565b61026281610247565b82525050565b61027181610137565b82525050565b600082825260208201905092915050565b50565b6000610298600083610277565b91506102a382610288565b600082019050919050565b60006080820190506102c36000830186610259565b6102d06020830185610268565b6102dd6040830184610268565b81810360608301526102ee8161028b565b905094935050505056fea2646970667358221220833d6e9e6995934344a5ec740c8a6f6d81adc9e43898321d826dd020af736c2064736f6c63430008130033",
  "linkReferences": {},
  "deployedLinkReferences": {}
}