{"contracts/Sword.sol":{"SwordNFTs":{"abi":[{"inputs":[],"stateMutability":"nonpayable","type":"constructor"},{"anonymous":false,"inputs":[{"indexed":true,"internalType":"address","name":"account","type":"address"},{"indexed":true,"internalType":"address","name":"operator","type":"address"},{"indexed":false,"internalType":"bool","name":"approved","type":"bool"}],"name":"ApprovalForAll","type":"event"},{"anonymous":false,"inputs":[{"indexed":true,"internalType":"address","name":"previousOwner","type":"address"},{"indexed":true,"internalType":"address","name":"newOwner","type":"address"}],"name":"OwnershipTransferred","type":"event"},{"anonymous":false,"inputs":[{"indexed":true,"internalType":"address","name":"operator","type":"address"},{"indexed":true,"internalType":"address","name":"from","type":"address"},{"indexed":true,"internalType":"address","name":"to","type":"address"},{"indexed":false,"internalType":"uint256[]","name":"ids","type":"uint256[]"},{"indexed":false,"internalType":"uint256[]","name":"values","type":"uint256[]"}],"name":"TransferBatch","type":"event"},{"anonymous":false,"inputs":[{"indexed":true,"internalType":"address","name":"operator","type":"address"},{"indexed":true,"internalType":"address","name":"from","type":"address"},{"indexed":true,"internalType":"address","name":"to","type":"address"},{"indexed":false,"internalType":"uint256","name":"id","type":"uint256"},{"indexed":false,"internalType":"uint256","name":"value","type":"uint256"}],"name":"TransferSingle","type":"event"},{"anonymous":false,"inputs":[{"indexed":false,"internalType":"string","name":"value","type":"string"},{"indexed":true,"internalType":"uint256","name":"id","type":"uint256"}],"name":"URI","type":"event"},{"inputs":[{"internalType":"uint256","name":"_startTime","type":"uint256"},{"internalType":"uint256","name":"_endTime","type":"uint256"},{"internalType":"uint256","name":"_maxNFTsPerUser","type":"uint256"},{"internalType":"uint256","name":"_totalNFTsInRound","type":"uint256"},{"internalType":"uint256[]","name":"_prices","type":"uint256[]"},{"internalType":"address","name":"_tokenAddress","type":"address"}],"name":"addRound","outputs":[],"stateMutability":"nonpayable","type":"function"},{"inputs":[{"internalType":"address","name":"account","type":"address"},{"internalType":"uint256","name":"id","type":"uint256"}],"name":"balanceOf","outputs":[{"internalType":"uint256","name":"","type":"uint256"}],"stateMutability":"view","type":"function"},{"inputs":[{"internalType":"address[]","name":"accounts","type":"address[]"},{"internalType":"uint256[]","name":"ids","type":"uint256[]"}],"name":"balanceOfBatch","outputs":[{"internalType":"uint256[]","name":"","type":"uint256[]"}],"stateMutability":"view","type":"function"},{"inputs":[{"internalType":"uint256","name":"amount","type":"uint256"},{"internalType":"uint256","name":"tokenId","type":"uint256"}],"name":"buyNFT","outputs":[],"stateMutability":"payable","type":"function"},{"inputs":[],"name":"currentRound","outputs":[{"internalType":"uint256","name":"","type":"uint256"}],"stateMutability":"view","type":"function"},{"inputs":[{"internalType":"uint256","name":"roundIndex","type":"uint256"}],"name":"getRound","outputs":[{"internalType":"uint256","name":"startTime","type":"uint256"},{"internalType":"uint256","name":"endTime","type":"uint256"},{"internalType":"uint256","name":"maxNFTsPerUser","type":"uint256"},{"internalType":"uint256","name":"totalNFTsInRound","type":"uint256"},{"internalType":"uint256[]","name":"prices","type":"uint256[]"},{"internalType":"address","name":"tokenAddress","type":"address"}],"stateMutability":"view","type":"function"},{"inputs":[{"internalType":"address","name":"account","type":"address"},{"internalType":"address","name":"operator","type":"address"}],"name":"isApprovedForAll","outputs":[{"internalType":"bool","name":"","type":"bool"}],"stateMutability":"view","type":"function"},{"inputs":[],"name":"owner","outputs":[{"internalType":"address","name":"","type":"address"}],"stateMutability":"view","type":"function"},{"inputs":[],"name":"renounceOwnership","outputs":[],"stateMutability":"nonpayable","type":"function"},{"inputs":[{"internalType":"uint256","name":"","type":"uint256"}],"name":"rounds","outputs":[{"internalType":"uint256","name":"startTime","type":"uint256"},{"internalType":"uint256","name":"endTime","type":"uint256"},{"internalType":"uint256","name":"maxNFTsPerUser","type":"uint256"},{"internalType":"uint256","name":"totalNFTsInRound","type":"uint256"},{"internalType":"address","name":"tokenAddress","type":"address"}],"stateMutability":"view","type":"function"},{"inputs":[{"internalType":"address","name":"from","type":"address"},{"internalType":"address","name":"to","type":"address"},{"internalType":"uint256[]","name":"ids","type":"uint256[]"},{"internalType":"uint256[]","name":"amounts","type":"uint256[]"},{"internalType":"bytes","name":"data","type":"bytes"}],"name":"safeBatchTransferFrom","outputs":[],"stateMutability":"nonpayable","type":"function"},{"inputs":[{"internalType":"address","name":"from","type":"address"},{"internalType":"address","name":"to","type":"address"},{"internalType":"uint256","name":"id","type":"uint256"},{"internalType":"uint256","name":"amount","type":"uint256"},{"internalType":"bytes","name":"data","type":"bytes"}],"name":"safeTransferFrom","outputs":[],"stateMutability":"nonpayable","type":"function"},{"inputs":[{"internalType":"address","name":"operator","type":"address"},{"internalType":"bool","name":"approved","type":"bool"}],"name":"setApprovalForAll","outputs":[],"stateMutability":"nonpayable","type":"function"},{"inputs":[{"internalType":"uint256","name":"_time","type":"uint256"}],"name":"setTimeOnSaleNextRound","outputs":[],"stateMutability":"nonpayable","type":"function"},{"inputs":[{"internalType":"bytes4","name":"interfaceId","type":"bytes4"}],"name":"supportsInterface","outputs":[{"internalType":"bool","name":"","type":"bool"}],"stateMutability":"view","type":"function"},{"inputs":[],"name":"timeNextRound","outputs":[{"internalType":"uint256","name":"","type":"uint256"}],"stateMutability":"view","type":"function"},{"inputs":[{"internalType":"address","name":"newOwner","type":"address"}],"name":"transferOwnership","outputs":[],"stateMutability":"nonpayable","type":"function"},{"inputs":[{"internalType":"uint256","name":"roundIndex","type":"uint256"},{"internalType":"uint256","name":"newStartTime","type":"uint256"},{"internalType":"uint256","name":"newEndTime","type":"uint256"},{"internalType":"uint256","name":"newMaxNFTsPerUser","type":"uint256"},{"internalType":"uint256","name":"newTotalNFTsInRound","type":"uint256"},{"internalType":"uint256[]","name":"newPrice","type":"uint256[]"},{"internalType":"address","name":"newTokenAddress","type":"address"}],"name":"updateRound","outputs":[],"stateMutability":"nonpayable","type":"function"},{"inputs":[{"internalType":"uint256","name":"","type":"uint256"}],"name":"uri","outputs":[{"internalType":"string","name":"","type":"string"}],"stateMutability":"view","type":"function"}],"evm":{"bytecode":{"linkReferences":{},"object":"608060405262093a806006553480156200001857600080fd5b50604051806020016040528060008152506200003a816200006160201b60201c565b506200005b6200004f6200007660201b60201c565b6200007e60201b60201c565b620004a5565b8060029081620000729190620003be565b5050565b600033905090565b6000600360009054906101000a900473ffffffffffffffffffffffffffffffffffffffff16905081600360006101000a81548173ffffffffffffffffffffffffffffffffffffffff021916908373ffffffffffffffffffffffffffffffffffffffff1602179055508173ffffffffffffffffffffffffffffffffffffffff168173ffffffffffffffffffffffffffffffffffffffff167f8be0079c531659141344cd1fd0a4f28419497f9722a3daafe3b4186f6b6457e060405160405180910390a35050565b600081519050919050565b7f4e487b7100000000000000000000000000000000000000000000000000000000600052604160045260246000fd5b7f4e487b7100000000000000000000000000000000000000000000000000000000600052602260045260246000fd5b60006002820490506001821680620001c657607f821691505b602082108103620001dc57620001db6200017e565b5b50919050565b60008190508160005260206000209050919050565b60006020601f8301049050919050565b600082821b905092915050565b600060088302620002467fffffffffffffffffffffffffffffffffffffffffffffffffffffffffffffffff8262000207565b62000252868362000207565b95508019841693508086168417925050509392505050565b6000819050919050565b6000819050919050565b60006200029f6200029962000293846200026a565b62000274565b6200026a565b9050919050565b6000819050919050565b620002bb836200027e565b620002d3620002ca82620002a6565b84845462000214565b825550505050565b600090565b620002ea620002db565b620002f7818484620002b0565b505050565b5b818110156200031f5762000313600082620002e0565b600181019050620002fd565b5050565b601f8211156200036e576200033881620001e2565b6200034384620001f7565b8101602085101562000353578190505b6200036b6200036285620001f7565b830182620002fc565b50505b505050565b600082821c905092915050565b6000620003936000198460080262000373565b1980831691505092915050565b6000620003ae838362000380565b9150826002028217905092915050565b620003c98262000144565b67ffffffffffffffff811115620003e557620003e46200014f565b5b620003f18254620001ad565b620003fe82828562000323565b600060209050601f83116001811462000436576000841562000421578287015190505b6200042d8582620003a0565b8655506200049d565b601f1984166200044686620001e2565b60005b82811015620004705784890151825560018201915060208501945060208101905062000449565b868310156200049057848901516200048c601f89168262000380565b8355505b6001600288020188555050505b505050505050565b613b0c80620004b56000396000f3fe6080604052600436106101135760003560e01c80638c65c81f116100a0578063adb9d3e911610064578063adb9d3e9146103bc578063dc177163146103e5578063e985e9c514610410578063f242432a1461044d578063f2fde38b1461047657610113565b80638c65c81f146102bc5780638da5cb5b146102fd5780638f1327c01461032857806396223a881461036a578063a22cb4651461039357610113565b80632eb2c2d6116100e75780632eb2c2d6146101eb5780634e1273f4146102145780636a0c71e914610251578063715018a61461027a5780638a19c8bc1461029157610113565b8062fdd58e1461011857806301ffc9a7146101555780630e89341c146101925780631d85bf03146101cf575b600080fd5b34801561012457600080fd5b5061013f600480360381019061013a9190612190565b61049f565b60405161014c91906121df565b60405180910390f35b34801561016157600080fd5b5061017c60048036038101906101779190612252565b610567565b604051610189919061229a565b60405180910390f35b34801561019e57600080fd5b506101b960048036038101906101b491906122b5565b610649565b6040516101c69190612372565b60405180910390f35b6101e960048036038101906101e49190612394565b6106dd565b005b3480156101f757600080fd5b50610212600480360381019061020d91906125d1565b610a6a565b005b34801561022057600080fd5b5061023b60048036038101906102369190612763565b610b0b565b6040516102489190612899565b60405180910390f35b34801561025d57600080fd5b50610278600480360381019061027391906122b5565b610c24565b005b34801561028657600080fd5b5061028f610c36565b005b34801561029d57600080fd5b506102a6610c4a565b6040516102b391906121df565b60405180910390f35b3480156102c857600080fd5b506102e360048036038101906102de91906122b5565b610c50565b6040516102f49594939291906128ca565b60405180910390f35b34801561030957600080fd5b50610312610ca6565b60405161031f919061291d565b60405180910390f35b34801561033457600080fd5b5061034f600480360381019061034a91906122b5565b610cd0565b60405161036196959493929190612938565b60405180910390f35b34801561037657600080fd5b50610391600480360381019061038c91906129a0565b610e56565b005b34801561039f57600080fd5b506103ba60048036038101906103b59190612a8a565b610eff565b005b3480156103c857600080fd5b506103e360048036038101906103de9190612aca565b610f15565b005b3480156103f157600080fd5b506103fa610fd7565b60405161040791906121df565b60405180910390f35b34801561041c57600080fd5b5061043760048036038101906104329190612b73565b610fdd565b604051610444919061229a565b60405180910390f35b34801561045957600080fd5b50610474600480360381019061046f9190612bb3565b611071565b005b34801561048257600080fd5b5061049d60048036038101906104989190612c4a565b611112565b005b60008073ffffffffffffffffffffffffffffffffffffffff168373ffffffffffffffffffffffffffffffffffffffff160361050f576040517f08c379a000000000000000000000000000000000000000000000000000000000815260040161050690612ce9565b60405180910390fd5b60008083815260200190815260200160002060008473ffffffffffffffffffffffffffffffffffffffff1673ffffffffffffffffffffffffffffffffffffffff16815260200190815260200160002054905092915050565b60007fd9b67a26000000000000000000000000000000000000000000000000000000007bffffffffffffffffffffffffffffffffffffffffffffffffffffffff1916827bffffffffffffffffffffffffffffffffffffffffffffffffffffffff1916148061063257507f0e89341c000000000000000000000000000000000000000000000000000000007bffffffffffffffffffffffffffffffffffffffffffffffffffffffff1916827bffffffffffffffffffffffffffffffffffffffffffffffffffffffff1916145b80610642575061064182611195565b5b9050919050565b60606002805461065890612d38565b80601f016020809104026020016040519081016040528092919081815260200182805461068490612d38565b80156106d15780601f106106a6576101008083540402835291602001916106d1565b820191906000526020600020905b8154815290600101906020018083116106b457829003601f168201915b50505050509050919050565b60006004600060055481526020019081526020016000209050806000015442101561073d576040517f08c379a000000000000000000000000000000000000000000000000000000000815260040161073490612db5565b60405180910390fd5b8060010154421115610784576040517f08c379a000000000000000000000000000000000000000000000000000000000815260040161077b90612e21565b60405180910390fd5b806004018054905082106107cd576040517f08c379a00000000000000000000000000000000000000000000000000000000081526004016107c490612e8d565b60405180910390fd5b600160055411156108535760006004600060016005546107ed9190612edc565b81526020019081526020016000209050600654816001015461080f9190612f10565b421015610851576040517f08c379a000000000000000000000000000000000000000000000000000000000815260040161084890612fb6565b60405180910390fd5b505b600073ffffffffffffffffffffffffffffffffffffffff168160050160009054906101000a900473ffffffffffffffffffffffffffffffffffffffff1673ffffffffffffffffffffffffffffffffffffffff160361093857828160040183815481106108c2576108c1612fd6565b5b90600052602060002001546108d79190613005565b3414610918576040517f08c379a000000000000000000000000000000000000000000000000000000000815260040161090f90613093565b60405180910390fd5b610933338385604051806020016040528060008152506111ff565b610a65565b6000341461097b576040517f08c379a0000000000000000000000000000000000000000000000000000000008152600401610972906130ff565b60405180910390fd5b8060050160009054906101000a900473ffffffffffffffffffffffffffffffffffffffff1673ffffffffffffffffffffffffffffffffffffffff1663a9059cbb338360040185815481106109d2576109d1612fd6565b5b9060005260206000200154866109e89190613005565b6040518363ffffffff1660e01b8152600401610a0592919061311f565b6020604051808303816000875af1158015610a24573d6000803e3d6000fd5b505050506040513d601f19601f82011682018060405250810190610a48919061315d565b50610a64338385604051806020016040528060008152506111ff565b5b505050565b610a726113af565b73ffffffffffffffffffffffffffffffffffffffff168573ffffffffffffffffffffffffffffffffffffffff161480610ab85750610ab785610ab26113af565b610fdd565b5b610af7576040517f08c379a0000000000000000000000000000000000000000000000000000000008152600401610aee906131fc565b60405180910390fd5b610b0485858585856113b7565b5050505050565b60608151835114610b51576040517f08c379a0000000000000000000000000000000000000000000000000000000008152600401610b489061328e565b60405180910390fd5b6000835167ffffffffffffffff811115610b6e57610b6d6123d9565b5b604051908082528060200260200182016040528015610b9c5781602001602082028036833780820191505090505b50905060005b8451811015610c1957610be9858281518110610bc157610bc0612fd6565b5b6020026020010151858381518110610bdc57610bdb612fd6565b5b602002602001015161049f565b828281518110610bfc57610bfb612fd6565b5b60200260200101818152505080610c12906132ae565b9050610ba2565b508091505092915050565b610c2c6116d8565b8060068190555050565b610c3e6116d8565b610c486000611756565b565b60055481565b60046020528060005260406000206000915090508060000154908060010154908060020154908060030154908060050160009054906101000a900473ffffffffffffffffffffffffffffffffffffffff16905085565b6000600360009054906101000a900473ffffffffffffffffffffffffffffffffffffffff16905090565b600080600080606060008087118015610ceb57506005548711155b610d2a576040517f08c379a0000000000000000000000000000000000000000000000000000000008152600401610d2190613342565b60405180910390fd5b6000600460008981526020019081526020016000206040518060c00160405290816000820154815260200160018201548152602001600282015481526020016003820154815260200160048201805480602002602001604051908101604052809291908181526020018280548015610dc157602002820191906000526020600020905b815481526020019060010190808311610dad575b505050505081526020016005820160009054906101000a900473ffffffffffffffffffffffffffffffffffffffff1673ffffffffffffffffffffffffffffffffffffffff1673ffffffffffffffffffffffffffffffffffffffff16815250509050806000015181602001518260400151836060015184608001518560a001519650965096509650965096505091939550919395565b610e5e6116d8565b600060046000898152602001908152602001600020905086816000018190555085816001018190555084816002018190555083816003018190555082816004019080519060200190610eb192919061207e565b50818160050160006101000a81548173ffffffffffffffffffffffffffffffffffffffff021916908373ffffffffffffffffffffffffffffffffffffffff1602179055505050505050505050565b610f11610f0a6113af565b838361181c565b5050565b610f1d6116d8565b60056000815480929190610f30906132ae565b91905055506000600460006005548152602001908152602001600020905086816000018190555085816001018190555084816002018190555083816003018190555082816004019080519060200190610f8a92919061207e565b50818160050160006101000a81548173ffffffffffffffffffffffffffffffffffffffff021916908373ffffffffffffffffffffffffffffffffffffffff16021790555050505050505050565b60065481565b6000600160008473ffffffffffffffffffffffffffffffffffffffff1673ffffffffffffffffffffffffffffffffffffffff16815260200190815260200160002060008373ffffffffffffffffffffffffffffffffffffffff1673ffffffffffffffffffffffffffffffffffffffff16815260200190815260200160002060009054906101000a900460ff16905092915050565b6110796113af565b73ffffffffffffffffffffffffffffffffffffffff168573ffffffffffffffffffffffffffffffffffffffff1614806110bf57506110be856110b96113af565b610fdd565b5b6110fe576040517f08c379a00000000000000000000000000000000000000000000000000000000081526004016110f5906131fc565b60405180910390fd5b61110b8585858585611988565b5050505050565b61111a6116d8565b600073ffffffffffffffffffffffffffffffffffffffff168173ffffffffffffffffffffffffffffffffffffffff1603611189576040517f08c379a0000000000000000000000000000000000000000000000000000000008152600401611180906133d4565b60405180910390fd5b61119281611756565b50565b60007f01ffc9a7000000000000000000000000000000000000000000000000000000007bffffffffffffffffffffffffffffffffffffffffffffffffffffffff1916827bffffffffffffffffffffffffffffffffffffffffffffffffffffffff1916149050919050565b600073ffffffffffffffffffffffffffffffffffffffff168473ffffffffffffffffffffffffffffffffffffffff160361126e576040517f08c379a000000000000000000000000000000000000000000000000000000000815260040161126590613466565b60405180910390fd5b60006112786113af565b9050600061128585611c23565b9050600061129285611c23565b90506112a383600089858589611c9d565b8460008088815260200190815260200160002060008973ffffffffffffffffffffffffffffffffffffffff1673ffffffffffffffffffffffffffffffffffffffff16815260200190815260200160002060008282546113029190612f10565b925050819055508673ffffffffffffffffffffffffffffffffffffffff16600073ffffffffffffffffffffffffffffffffffffffff168473ffffffffffffffffffffffffffffffffffffffff167fc3d58168c5ae7397731d063d5bbf3d657854427343f4c083240f7aacaa2d0f628989604051611380929190613486565b60405180910390a461139783600089858589611ca5565b6113a683600089898989611cad565b50505050505050565b600033905090565b81518351146113fb576040517f08c379a00000000000000000000000000000000000000000000000000000000081526004016113f290613521565b60405180910390fd5b600073ffffffffffffffffffffffffffffffffffffffff168473ffffffffffffffffffffffffffffffffffffffff160361146a576040517f08c379a0000000000000000000000000000000000000000000000000000000008152600401611461906135b3565b60405180910390fd5b60006114746113af565b9050611484818787878787611c9d565b60005b84518110156116355760008582815181106114a5576114a4612fd6565b5b6020026020010151905060008583815181106114c4576114c3612fd6565b5b60200260200101519050600080600084815260200190815260200160002060008b73ffffffffffffffffffffffffffffffffffffffff1673ffffffffffffffffffffffffffffffffffffffff16815260200190815260200160002054905081811015611565576040517f08c379a000000000000000000000000000000000000000000000000000000000815260040161155c90613645565b60405180910390fd5b81810360008085815260200190815260200160002060008c73ffffffffffffffffffffffffffffffffffffffff1673ffffffffffffffffffffffffffffffffffffffff168152602001908152602001600020819055508160008085815260200190815260200160002060008b73ffffffffffffffffffffffffffffffffffffffff1673ffffffffffffffffffffffffffffffffffffffff168152602001908152602001600020600082825461161a9190612f10565b925050819055505050508061162e906132ae565b9050611487565b508473ffffffffffffffffffffffffffffffffffffffff168673ffffffffffffffffffffffffffffffffffffffff168273ffffffffffffffffffffffffffffffffffffffff167f4a39dc06d4c0dbc64b70af90fd698a233a518aa5d07e595d983b8c0526c8f7fb87876040516116ac929190613665565b60405180910390a46116c2818787878787611ca5565b6116d0818787878787611e84565b505050505050565b6116e06113af565b73ffffffffffffffffffffffffffffffffffffffff166116fe610ca6565b73ffffffffffffffffffffffffffffffffffffffff1614611754576040517f08c379a000000000000000000000000000000000000000000000000000000000815260040161174b906136e8565b60405180910390fd5b565b6000600360009054906101000a900473ffffffffffffffffffffffffffffffffffffffff16905081600360006101000a81548173ffffffffffffffffffffffffffffffffffffffff021916908373ffffffffffffffffffffffffffffffffffffffff1602179055508173ffffffffffffffffffffffffffffffffffffffff168173ffffffffffffffffffffffffffffffffffffffff167f8be0079c531659141344cd1fd0a4f28419497f9722a3daafe3b4186f6b6457e060405160405180910390a35050565b8173ffffffffffffffffffffffffffffffffffffffff168373ffffffffffffffffffffffffffffffffffffffff160361188a576040517f08c379a00000000000000000000000000000000000000000000000000000000081526004016118819061377a565b60405180910390fd5b80600160008573ffffffffffffffffffffffffffffffffffffffff1673ffffffffffffffffffffffffffffffffffffffff16815260200190815260200160002060008473ffffffffffffffffffffffffffffffffffffffff1673ffffffffffffffffffffffffffffffffffffffff16815260200190815260200160002060006101000a81548160ff0219169083151502179055508173ffffffffffffffffffffffffffffffffffffffff168373ffffffffffffffffffffffffffffffffffffffff167f17307eab39ab6107e8899845ad3d59bd9653f200f220920489ca2b5937696c318360405161197b919061229a565b60405180910390a3505050565b600073ffffffffffffffffffffffffffffffffffffffff168473ffffffffffffffffffffffffffffffffffffffff16036119f7576040517f08c379a00000000000000000000000000000000000000000000000000000000081526004016119ee906135b3565b60405180910390fd5b6000611a016113af565b90506000611a0e85611c23565b90506000611a1b85611c23565b9050611a2b838989858589611c9d565b600080600088815260200190815260200160002060008a73ffffffffffffffffffffffffffffffffffffffff1673ffffffffffffffffffffffffffffffffffffffff16815260200190815260200160002054905085811015611ac2576040517f08c379a0000000000000000000000000000000000000000000000000000000008152600401611ab990613645565b60405180910390fd5b85810360008089815260200190815260200160002060008b73ffffffffffffffffffffffffffffffffffffffff1673ffffffffffffffffffffffffffffffffffffffff168152602001908152602001600020819055508560008089815260200190815260200160002060008a73ffffffffffffffffffffffffffffffffffffffff1673ffffffffffffffffffffffffffffffffffffffff1681526020019081526020016000206000828254611b779190612f10565b925050819055508773ffffffffffffffffffffffffffffffffffffffff168973ffffffffffffffffffffffffffffffffffffffff168573ffffffffffffffffffffffffffffffffffffffff167fc3d58168c5ae7397731d063d5bbf3d657854427343f4c083240f7aacaa2d0f628a8a604051611bf4929190613486565b60405180910390a4611c0a848a8a86868a611ca5565b611c18848a8a8a8a8a611cad565b505050505050505050565b60606000600167ffffffffffffffff811115611c4257611c416123d9565b5b604051908082528060200260200182016040528015611c705781602001602082028036833780820191505090505b5090508281600081518110611c8857611c87612fd6565b5b60200260200101818152505080915050919050565b505050505050565b505050505050565b611ccc8473ffffffffffffffffffffffffffffffffffffffff1661205b565b15611e7c578373ffffffffffffffffffffffffffffffffffffffff1663f23a6e6187878686866040518663ffffffff1660e01b8152600401611d129594939291906137ef565b6020604051808303816000875af1925050508015611d4e57506040513d601f19601f82011682018060405250810190611d4b919061385e565b60015b611df357611d5a613898565b806308c379a003611db65750611d6e6138ba565b80611d795750611db8565b806040517f08c379a0000000000000000000000000000000000000000000000000000000008152600401611dad9190612372565b60405180910390fd5b505b6040517f08c379a0000000000000000000000000000000000000000000000000000000008152600401611dea906139bc565b60405180910390fd5b63f23a6e6160e01b7bffffffffffffffffffffffffffffffffffffffffffffffffffffffff1916817bffffffffffffffffffffffffffffffffffffffffffffffffffffffff191614611e7a576040517f08c379a0000000000000000000000000000000000000000000000000000000008152600401611e7190613a4e565b60405180910390fd5b505b505050505050565b611ea38473ffffffffffffffffffffffffffffffffffffffff1661205b565b15612053578373ffffffffffffffffffffffffffffffffffffffff1663bc197c8187878686866040518663ffffffff1660e01b8152600401611ee9959493929190613a6e565b6020604051808303816000875af1925050508015611f2557506040513d601f19601f82011682018060405250810190611f22919061385e565b60015b611fca57611f31613898565b806308c379a003611f8d5750611f456138ba565b80611f505750611f8f565b806040517f08c379a0000000000000000000000000000000000000000000000000000000008152600401611f849190612372565b60405180910390fd5b505b6040517f08c379a0000000000000000000000000000000000000000000000000000000008152600401611fc1906139bc565b60405180910390fd5b63bc197c8160e01b7bffffffffffffffffffffffffffffffffffffffffffffffffffffffff1916817bffffffffffffffffffffffffffffffffffffffffffffffffffffffff191614612051576040517f08c379a000000000000000000000000000000000000000000000000000000000815260040161204890613a4e565b60405180910390fd5b505b505050505050565b6000808273ffffffffffffffffffffffffffffffffffffffff163b119050919050565b8280548282559060005260206000209081019282156120ba579160200282015b828111156120b957825182559160200191906001019061209e565b5b5090506120c791906120cb565b5090565b5b808211156120e45760008160009055506001016120cc565b5090565b6000604051905090565b600080fd5b600080fd5b600073ffffffffffffffffffffffffffffffffffffffff82169050919050565b6000612127826120fc565b9050919050565b6121378161211c565b811461214257600080fd5b50565b6000813590506121548161212e565b92915050565b6000819050919050565b61216d8161215a565b811461217857600080fd5b50565b60008135905061218a81612164565b92915050565b600080604083850312156121a7576121a66120f2565b5b60006121b585828601612145565b92505060206121c68582860161217b565b9150509250929050565b6121d98161215a565b82525050565b60006020820190506121f460008301846121d0565b92915050565b60007fffffffff0000000000000000000000000000000000000000000000000000000082169050919050565b61222f816121fa565b811461223a57600080fd5b50565b60008135905061224c81612226565b92915050565b600060208284031215612268576122676120f2565b5b60006122768482850161223d565b91505092915050565b60008115159050919050565b6122948161227f565b82525050565b60006020820190506122af600083018461228b565b92915050565b6000602082840312156122cb576122ca6120f2565b5b60006122d98482850161217b565b91505092915050565b600081519050919050565b600082825260208201905092915050565b60005b8381101561231c578082015181840152602081019050612301565b60008484015250505050565b6000601f19601f8301169050919050565b6000612344826122e2565b61234e81856122ed565b935061235e8185602086016122fe565b61236781612328565b840191505092915050565b6000602082019050818103600083015261238c8184612339565b905092915050565b600080604083850312156123ab576123aa6120f2565b5b60006123b98582860161217b565b92505060206123ca8582860161217b565b9150509250929050565b600080fd5b7f4e487b7100000000000000000000000000000000000000000000000000000000600052604160045260246000fd5b61241182612328565b810181811067ffffffffffffffff821117156124305761242f6123d9565b5b80604052505050565b60006124436120e8565b905061244f8282612408565b919050565b600067ffffffffffffffff82111561246f5761246e6123d9565b5b602082029050602081019050919050565b600080fd5b600061249861249384612454565b612439565b905080838252602082019050602084028301858111156124bb576124ba612480565b5b835b818110156124e457806124d0888261217b565b8452602084019350506020810190506124bd565b5050509392505050565b600082601f830112612503576125026123d4565b5b8135612513848260208601612485565b91505092915050565b600080fd5b600067ffffffffffffffff82111561253c5761253b6123d9565b5b61254582612328565b9050602081019050919050565b82818337600083830152505050565b600061257461256f84612521565b612439565b9050828152602081018484840111156125905761258f61251c565b5b61259b848285612552565b509392505050565b600082601f8301126125b8576125b76123d4565b5b81356125c8848260208601612561565b91505092915050565b600080600080600060a086880312156125ed576125ec6120f2565b5b60006125fb88828901612145565b955050602061260c88828901612145565b945050604086013567ffffffffffffffff81111561262d5761262c6120f7565b5b612639888289016124ee565b935050606086013567ffffffffffffffff81111561265a576126596120f7565b5b612666888289016124ee565b925050608086013567ffffffffffffffff811115612687576126866120f7565b5b612693888289016125a3565b9150509295509295909350565b600067ffffffffffffffff8211156126bb576126ba6123d9565b5b602082029050602081019050919050565b60006126df6126da846126a0565b612439565b9050808382526020820190506020840283018581111561270257612701612480565b5b835b8181101561272b57806127178882612145565b845260208401935050602081019050612704565b5050509392505050565b600082601f83011261274a576127496123d4565b5b813561275a8482602086016126cc565b91505092915050565b6000806040838503121561277a576127796120f2565b5b600083013567ffffffffffffffff811115612798576127976120f7565b5b6127a485828601612735565b925050602083013567ffffffffffffffff8111156127c5576127c46120f7565b5b6127d1858286016124ee565b9150509250929050565b600081519050919050565b600082825260208201905092915050565b6000819050602082019050919050565b6128108161215a565b82525050565b60006128228383612807565b60208301905092915050565b6000602082019050919050565b6000612846826127db565b61285081856127e6565b935061285b836127f7565b8060005b8381101561288c5781516128738882612816565b975061287e8361282e565b92505060018101905061285f565b5085935050505092915050565b600060208201905081810360008301526128b3818461283b565b905092915050565b6128c48161211c565b82525050565b600060a0820190506128df60008301886121d0565b6128ec60208301876121d0565b6128f960408301866121d0565b61290660608301856121d0565b61291360808301846128bb565b9695505050505050565b600060208201905061293260008301846128bb565b92915050565b600060c08201905061294d60008301896121d0565b61295a60208301886121d0565b61296760408301876121d0565b61297460608301866121d0565b8181036080830152612986818561283b565b905061299560a08301846128bb565b979650505050505050565b600080600080600080600060e0888a0312156129bf576129be6120f2565b5b60006129cd8a828b0161217b565b97505060206129de8a828b0161217b565b96505060406129ef8a828b0161217b565b9550506060612a008a828b0161217b565b9450506080612a118a828b0161217b565b93505060a088013567ffffffffffffffff811115612a3257612a316120f7565b5b612a3e8a828b016124ee565b92505060c0612a4f8a828b01612145565b91505092959891949750929550565b612a678161227f565b8114612a7257600080fd5b50565b600081359050612a8481612a5e565b92915050565b60008060408385031215612aa157612aa06120f2565b5b6000612aaf85828601612145565b9250506020612ac085828601612a75565b9150509250929050565b60008060008060008060c08789031215612ae757612ae66120f2565b5b6000612af589828a0161217b565b9650506020612b0689828a0161217b565b9550506040612b1789828a0161217b565b9450506060612b2889828a0161217b565b935050608087013567ffffffffffffffff811115612b4957612b486120f7565b5b612b5589828a016124ee565b92505060a0612b6689828a01612145565b9150509295509295509295565b60008060408385031215612b8a57612b896120f2565b5b6000612b9885828601612145565b9250506020612ba985828601612145565b9150509250929050565b600080600080600060a08688031215612bcf57612bce6120f2565b5b6000612bdd88828901612145565b9550506020612bee88828901612145565b9450506040612bff8882890161217b565b9350506060612c108882890161217b565b925050608086013567ffffffffffffffff811115612c3157612c306120f7565b5b612c3d888289016125a3565b9150509295509295909350565b600060208284031215612c6057612c5f6120f2565b5b6000612c6e84828501612145565b91505092915050565b7f455243313135353a2061646472657373207a65726f206973206e6f742061207660008201527f616c6964206f776e657200000000000000000000000000000000000000000000602082015250565b6000612cd3602a836122ed565b9150612cde82612c77565b604082019050919050565b60006020820190508181036000830152612d0281612cc6565b9050919050565b7f4e487b7100000000000000000000000000000000000000000000000000000000600052602260045260246000fd5b60006002820490506001821680612d5057607f821691505b602082108103612d6357612d62612d09565b5b50919050565b7f4e6f742074696d65206f70656e2073616c650000000000000000000000000000600082015250565b6000612d9f6012836122ed565b9150612daa82612d69565b602082019050919050565b60006020820190508181036000830152612dce81612d92565b9050919050565b7f506173732074696d65206f6e2073616c65000000000000000000000000000000600082015250565b6000612e0b6011836122ed565b9150612e1682612dd5565b602082019050919050565b60006020820190508181036000830152612e3a81612dfe565b9050919050565b7f496e76616c696420746f6b656e49640000000000000000000000000000000000600082015250565b6000612e77600f836122ed565b9150612e8282612e41565b602082019050919050565b60006020820190508181036000830152612ea681612e6a565b9050919050565b7f4e487b7100000000000000000000000000000000000000000000000000000000600052601160045260246000fd5b6000612ee78261215a565b9150612ef28361215a565b9250828203905081811115612f0a57612f09612ead565b5b92915050565b6000612f1b8261215a565b9150612f268361215a565b9250828201905080821115612f3e57612f3d612ead565b5b92915050565b7f49742773206e6f742074696d6520746f2073746172742073656c6c696e67207460008201527f6865206e657720726f756e642079657400000000000000000000000000000000602082015250565b6000612fa06030836122ed565b9150612fab82612f44565b604082019050919050565b60006020820190508181036000830152612fcf81612f93565b9050919050565b7f4e487b7100000000000000000000000000000000000000000000000000000000600052603260045260246000fd5b60006130108261215a565b915061301b8361215a565b92508282026130298161215a565b915082820484148315176130405761303f612ead565b5b5092915050565b7f4e6f7420656e6f756768206e617469766520636f696e00000000000000000000600082015250565b600061307d6016836122ed565b915061308882613047565b602082019050919050565b600060208201905081810360008301526130ac81613070565b9050919050565b7f446f6e74206e65656420746f6b656e2049440000000000000000000000000000600082015250565b60006130e96012836122ed565b91506130f4826130b3565b602082019050919050565b60006020820190508181036000830152613118816130dc565b9050919050565b600060408201905061313460008301856128bb565b61314160208301846121d0565b9392505050565b60008151905061315781612a5e565b92915050565b600060208284031215613173576131726120f2565b5b600061318184828501613148565b91505092915050565b7f455243313135353a2063616c6c6572206973206e6f7420746f6b656e206f776e60008201527f6572206f7220617070726f766564000000000000000000000000000000000000602082015250565b60006131e6602e836122ed565b91506131f18261318a565b604082019050919050565b60006020820190508181036000830152613215816131d9565b9050919050565b7f455243313135353a206163636f756e747320616e6420696473206c656e67746860008201527f206d69736d617463680000000000000000000000000000000000000000000000602082015250565b60006132786029836122ed565b91506132838261321c565b604082019050919050565b600060208201905081810360008301526132a78161326b565b9050919050565b60006132b98261215a565b91507fffffffffffffffffffffffffffffffffffffffffffffffffffffffffffffffff82036132eb576132ea612ead565b5b600182019050919050565b7f526f756e6420646f6573206e6f74206578697374000000000000000000000000600082015250565b600061332c6014836122ed565b9150613337826132f6565b602082019050919050565b6000602082019050818103600083015261335b8161331f565b9050919050565b7f4f776e61626c653a206e6577206f776e657220697320746865207a65726f206160008201527f6464726573730000000000000000000000000000000000000000000000000000602082015250565b60006133be6026836122ed565b91506133c982613362565b604082019050919050565b600060208201905081810360008301526133ed816133b1565b9050919050565b7f455243313135353a206d696e7420746f20746865207a65726f2061646472657360008201527f7300000000000000000000000000000000000000000000000000000000000000602082015250565b60006134506021836122ed565b915061345b826133f4565b604082019050919050565b6000602082019050818103600083015261347f81613443565b9050919050565b600060408201905061349b60008301856121d0565b6134a860208301846121d0565b9392505050565b7f455243313135353a2069647320616e6420616d6f756e7473206c656e6774682060008201527f6d69736d61746368000000000000000000000000000000000000000000000000602082015250565b600061350b6028836122ed565b9150613516826134af565b604082019050919050565b6000602082019050818103600083015261353a816134fe565b9050919050565b7f455243313135353a207472616e7366657220746f20746865207a65726f20616460008201527f6472657373000000000000000000000000000000000000000000000000000000602082015250565b600061359d6025836122ed565b91506135a882613541565b604082019050919050565b600060208201905081810360008301526135cc81613590565b9050919050565b7f455243313135353a20696e73756666696369656e742062616c616e636520666f60008201527f72207472616e7366657200000000000000000000000000000000000000000000602082015250565b600061362f602a836122ed565b915061363a826135d3565b604082019050919050565b6000602082019050818103600083015261365e81613622565b9050919050565b6000604082019050818103600083015261367f818561283b565b90508181036020830152613693818461283b565b90509392505050565b7f4f776e61626c653a2063616c6c6572206973206e6f7420746865206f776e6572600082015250565b60006136d26020836122ed565b91506136dd8261369c565b602082019050919050565b60006020820190508181036000830152613701816136c5565b9050919050565b7f455243313135353a2073657474696e6720617070726f76616c2073746174757360008201527f20666f722073656c660000000000000000000000000000000000000000000000602082015250565b60006137646029836122ed565b915061376f82613708565b604082019050919050565b6000602082019050818103600083015261379381613757565b9050919050565b600081519050919050565b600082825260208201905092915050565b60006137c18261379a565b6137cb81856137a5565b93506137db8185602086016122fe565b6137e481612328565b840191505092915050565b600060a08201905061380460008301886128bb565b61381160208301876128bb565b61381e60408301866121d0565b61382b60608301856121d0565b818103608083015261383d81846137b6565b90509695505050505050565b60008151905061385881612226565b92915050565b600060208284031215613874576138736120f2565b5b600061388284828501613849565b91505092915050565b60008160e01c9050919050565b600060033d11156138b75760046000803e6138b460005161388b565b90505b90565b600060443d10613947576138cc6120e8565b60043d036004823e80513d602482011167ffffffffffffffff821117156138f4575050613947565b808201805167ffffffffffffffff8111156139125750505050613947565b80602083010160043d03850181111561392f575050505050613947565b61393e82602001850186612408565b82955050505050505b90565b7f455243313135353a207472616e7366657220746f206e6f6e2d4552433131353560008201527f526563656976657220696d706c656d656e746572000000000000000000000000602082015250565b60006139a66034836122ed565b91506139b18261394a565b604082019050919050565b600060208201905081810360008301526139d581613999565b9050919050565b7f455243313135353a204552433131353552656365697665722072656a6563746560008201527f6420746f6b656e73000000000000000000000000000000000000000000000000602082015250565b6000613a386028836122ed565b9150613a43826139dc565b604082019050919050565b60006020820190508181036000830152613a6781613a2b565b9050919050565b600060a082019050613a8360008301886128bb565b613a9060208301876128bb565b8181036040830152613aa2818661283b565b90508181036060830152613ab6818561283b565b90508181036080830152613aca81846137b6565b9050969550505050505056fea26469706673582212209481d6f6c1e7a86f93d16db9c964adef9359901b00af5e1c269953c5502662ff64736f6c63430008130033","opcodes":"PUSH1 0x80 PUSH1 0x40 MSTORE PUSH3 0x93A80 PUSH1 0x6 SSTORE CALLVALUE DUP1 ISZERO PUSH3 0x18 JUMPI PUSH1 0x0 DUP1 REVERT JUMPDEST POP PUSH1 0x40 MLOAD DUP1 PUSH1 0x20 ADD PUSH1 0x40 MSTORE DUP1 PUSH1 0x0 DUP2 MSTORE POP PUSH3 0x3A DUP2 PUSH3 0x61 PUSH1 0x20 SHL PUSH1 0x20 SHR JUMP JUMPDEST POP PUSH3 0x5B PUSH3 0x4F PUSH3 0x76 PUSH1 0x20 SHL PUSH1 0x20 SHR JUMP JUMPDEST PUSH3 0x7E PUSH1 0x20 SHL PUSH1 0x20 SHR JUMP JUMPDEST PUSH3 0x4A5 JUMP JUMPDEST DUP1 PUSH1 0x2 SWAP1 DUP2 PUSH3 0x72 SWAP2 SWAP1 PUSH3 0x3BE JUMP JUMPDEST POP POP JUMP JUMPDEST PUSH1 0x0 CALLER SWAP1 POP SWAP1 JUMP JUMPDEST PUSH1 0x0 PUSH1 0x3 PUSH1 0x0 SWAP1 SLOAD SWAP1 PUSH2 0x100 EXP SWAP1 DIV PUSH20 0xFFFFFFFFFFFFFFFFFFFFFFFFFFFFFFFFFFFFFFFF AND SWAP1 POP DUP2 PUSH1 0x3 PUSH1 0x0 PUSH2 0x100 EXP DUP2 SLOAD DUP2 PUSH20 0xFFFFFFFFFFFFFFFFFFFFFFFFFFFFFFFFFFFFFFFF MUL NOT AND SWAP1 DUP4 PUSH20 0xFFFFFFFFFFFFFFFFFFFFFFFFFFFFFFFFFFFFFFFF AND MUL OR SWAP1 SSTORE POP DUP2 PUSH20 0xFFFFFFFFFFFFFFFFFFFFFFFFFFFFFFFFFFFFFFFF AND DUP2 PUSH20 0xFFFFFFFFFFFFFFFFFFFFFFFFFFFFFFFFFFFFFFFF AND PUSH32 0x8BE0079C531659141344CD1FD0A4F28419497F9722A3DAAFE3B4186F6B6457E0 PUSH1 0x40 MLOAD PUSH1 0x40 MLOAD DUP1 SWAP2 SUB SWAP1 LOG3 POP POP JUMP JUMPDEST PUSH1 0x0 DUP2 MLOAD SWAP1 POP SWAP2 SWAP1 POP JUMP JUMPDEST PUSH32 0x4E487B7100000000000000000000000000000000000000000000000000000000 PUSH1 0x0 MSTORE PUSH1 0x41 PUSH1 0x4 MSTORE PUSH1 0x24 PUSH1 0x0 REVERT JUMPDEST PUSH32 0x4E487B7100000000000000000000000000000000000000000000000000000000 PUSH1 0x0 MSTORE PUSH1 0x22 PUSH1 0x4 MSTORE PUSH1 0x24 PUSH1 0x0 REVERT JUMPDEST PUSH1 0x0 PUSH1 0x2 DUP3 DIV SWAP1 POP PUSH1 0x1 DUP3 AND DUP1 PUSH3 0x1C6 JUMPI PUSH1 0x7F DUP3 AND SWAP2 POP JUMPDEST PUSH1 0x20 DUP3 LT DUP2 SUB PUSH3 0x1DC JUMPI PUSH3 0x1DB PUSH3 0x17E JUMP JUMPDEST JUMPDEST POP SWAP2 SWAP1 POP JUMP JUMPDEST PUSH1 0x0 DUP2 SWAP1 POP DUP2 PUSH1 0x0 MSTORE PUSH1 0x20 PUSH1 0x0 KECCAK256 SWAP1 POP SWAP2 SWAP1 POP JUMP JUMPDEST PUSH1 0x0 PUSH1 0x20 PUSH1 0x1F DUP4 ADD DIV SWAP1 POP SWAP2 SWAP1 POP JUMP JUMPDEST PUSH1 0x0 DUP3 DUP3 SHL SWAP1 POP SWAP3 SWAP2 POP POP JUMP JUMPDEST PUSH1 0x0 PUSH1 0x8 DUP4 MUL PUSH3 0x246 PUSH32 0xFFFFFFFFFFFFFFFFFFFFFFFFFFFFFFFFFFFFFFFFFFFFFFFFFFFFFFFFFFFFFFFF DUP3 PUSH3 0x207 JUMP JUMPDEST PUSH3 0x252 DUP7 DUP4 PUSH3 0x207 JUMP JUMPDEST SWAP6 POP DUP1 NOT DUP5 AND SWAP4 POP DUP1 DUP7 AND DUP5 OR SWAP3 POP POP POP SWAP4 SWAP3 POP POP POP JUMP JUMPDEST PUSH1 0x0 DUP2 SWAP1 POP SWAP2 SWAP1 POP JUMP JUMPDEST PUSH1 0x0 DUP2 SWAP1 POP SWAP2 SWAP1 POP JUMP JUMPDEST PUSH1 0x0 PUSH3 0x29F PUSH3 0x299 PUSH3 0x293 DUP5 PUSH3 0x26A JUMP JUMPDEST PUSH3 0x274 JUMP JUMPDEST PUSH3 0x26A JUMP JUMPDEST SWAP1 POP SWAP2 SWAP1 POP JUMP JUMPDEST PUSH1 0x0 DUP2 SWAP1 POP SWAP2 SWAP1 POP JUMP JUMPDEST PUSH3 0x2BB DUP4 PUSH3 0x27E JUMP JUMPDEST PUSH3 0x2D3 PUSH3 0x2CA DUP3 PUSH3 0x2A6 JUMP JUMPDEST DUP5 DUP5 SLOAD PUSH3 0x214 JUMP JUMPDEST DUP3 SSTORE POP POP POP POP JUMP JUMPDEST PUSH1 0x0 SWAP1 JUMP JUMPDEST PUSH3 0x2EA PUSH3 0x2DB JUMP JUMPDEST PUSH3 0x2F7 DUP2 DUP5 DUP5 PUSH3 0x2B0 JUMP JUMPDEST POP POP POP JUMP JUMPDEST JUMPDEST DUP2 DUP2 LT ISZERO PUSH3 0x31F JUMPI PUSH3 0x313 PUSH1 0x0 DUP3 PUSH3 0x2E0 JUMP JUMPDEST PUSH1 0x1 DUP2 ADD SWAP1 POP PUSH3 0x2FD JUMP JUMPDEST POP POP JUMP JUMPDEST PUSH1 0x1F DUP3 GT ISZERO PUSH3 0x36E JUMPI PUSH3 0x338 DUP2 PUSH3 0x1E2 JUMP JUMPDEST PUSH3 0x343 DUP5 PUSH3 0x1F7 JUMP JUMPDEST DUP2 ADD PUSH1 0x20 DUP6 LT ISZERO PUSH3 0x353 JUMPI DUP2 SWAP1 POP JUMPDEST PUSH3 0x36B PUSH3 0x362 DUP6 PUSH3 0x1F7 JUMP JUMPDEST DUP4 ADD DUP3 PUSH3 0x2FC JUMP JUMPDEST POP POP JUMPDEST POP POP POP JUMP JUMPDEST PUSH1 0x0 DUP3 DUP3 SHR SWAP1 POP SWAP3 SWAP2 POP POP JUMP JUMPDEST PUSH1 0x0 PUSH3 0x393 PUSH1 0x0 NOT DUP5 PUSH1 0x8 MUL PUSH3 0x373 JUMP JUMPDEST NOT DUP1 DUP4 AND SWAP2 POP POP SWAP3 SWAP2 POP POP JUMP JUMPDEST PUSH1 0x0 PUSH3 0x3AE DUP4 DUP4 PUSH3 0x380 JUMP JUMPDEST SWAP2 POP DUP3 PUSH1 0x2 MUL DUP3 OR SWAP1 POP SWAP3 SWAP2 POP POP JUMP JUMPDEST PUSH3 0x3C9 DUP3 PUSH3 0x144 JUMP JUMPDEST PUSH8 0xFFFFFFFFFFFFFFFF DUP2 GT ISZERO PUSH3 0x3E5 JUMPI PUSH3 0x3E4 PUSH3 0x14F JUMP JUMPDEST JUMPDEST PUSH3 0x3F1 DUP3 SLOAD PUSH3 0x1AD JUMP JUMPDEST PUSH3 0x3FE DUP3 DUP3 DUP6 PUSH3 0x323 JUMP JUMPDEST PUSH1 0x0 PUSH1 0x20 SWAP1 POP PUSH1 0x1F DUP4 GT PUSH1 0x1 DUP2 EQ PUSH3 0x436 JUMPI PUSH1 0x0 DUP5 ISZERO PUSH3 0x421 JUMPI DUP3 DUP8 ADD MLOAD SWAP1 POP JUMPDEST PUSH3 0x42D DUP6 DUP3 PUSH3 0x3A0 JUMP JUMPDEST DUP7 SSTORE POP PUSH3 0x49D JUMP JUMPDEST PUSH1 0x1F NOT DUP5 AND PUSH3 0x446 DUP7 PUSH3 0x1E2 JUMP JUMPDEST PUSH1 0x0 JUMPDEST DUP3 DUP2 LT ISZERO PUSH3 0x470 JUMPI DUP5 DUP10 ADD MLOAD DUP3 SSTORE PUSH1 0x1 DUP3 ADD SWAP2 POP PUSH1 0x20 DUP6 ADD SWAP5 POP PUSH1 0x20 DUP2 ADD SWAP1 POP PUSH3 0x449 JUMP JUMPDEST DUP7 DUP4 LT ISZERO PUSH3 0x490 JUMPI DUP5 DUP10 ADD MLOAD PUSH3 0x48C PUSH1 0x1F DUP10 AND DUP3 PUSH3 0x380 JUMP JUMPDEST DUP4 SSTORE POP JUMPDEST PUSH1 0x1 PUSH1 0x2 DUP9 MUL ADD DUP9 SSTORE POP POP POP JUMPDEST POP POP POP POP POP POP JUMP JUMPDEST PUSH2 0x3B0C DUP1 PUSH3 0x4B5 PUSH1 0x0 CODECOPY PUSH1 0x0 RETURN INVALID PUSH1 0x80 PUSH1 0x40 MSTORE PUSH1 0x4 CALLDATASIZE LT PUSH2 0x113 JUMPI PUSH1 0x0 CALLDATALOAD PUSH1 0xE0 SHR DUP1 PUSH4 0x8C65C81F GT PUSH2 0xA0 JUMPI DUP1 PUSH4 0xADB9D3E9 GT PUSH2 0x64 JUMPI DUP1 PUSH4 0xADB9D3E9 EQ PUSH2 0x3BC JUMPI DUP1 PUSH4 0xDC177163 EQ PUSH2 0x3E5 JUMPI DUP1 PUSH4 0xE985E9C5 EQ PUSH2 0x410 JUMPI DUP1 PUSH4 0xF242432A EQ PUSH2 0x44D JUMPI DUP1 PUSH4 0xF2FDE38B EQ PUSH2 0x476 JUMPI PUSH2 0x113 JUMP JUMPDEST DUP1 PUSH4 0x8C65C81F EQ PUSH2 0x2BC JUMPI DUP1 PUSH4 0x8DA5CB5B EQ PUSH2 0x2FD JUMPI DUP1 PUSH4 0x8F1327C0 EQ PUSH2 0x328 JUMPI DUP1 PUSH4 0x96223A88 EQ PUSH2 0x36A JUMPI DUP1 PUSH4 0xA22CB465 EQ PUSH2 0x393 JUMPI PUSH2 0x113 JUMP JUMPDEST DUP1 PUSH4 0x2EB2C2D6 GT PUSH2 0xE7 JUMPI DUP1 PUSH4 0x2EB2C2D6 EQ PUSH2 0x1EB JUMPI DUP1 PUSH4 0x4E1273F4 EQ PUSH2 0x214 JUMPI DUP1 PUSH4 0x6A0C71E9 EQ PUSH2 0x251 JUMPI DUP1 PUSH4 0x715018A6 EQ PUSH2 0x27A JUMPI DUP1 PUSH4 0x8A19C8BC EQ PUSH2 0x291 JUMPI PUSH2 0x113 JUMP JUMPDEST DUP1 PUSH3 0xFDD58E EQ PUSH2 0x118 JUMPI DUP1 PUSH4 0x1FFC9A7 EQ PUSH2 0x155 JUMPI DUP1 PUSH4 0xE89341C EQ PUSH2 0x192 JUMPI DUP1 PUSH4 0x1D85BF03 EQ PUSH2 0x1CF JUMPI JUMPDEST PUSH1 0x0 DUP1 REVERT JUMPDEST CALLVALUE DUP1 ISZERO PUSH2 0x124 JUMPI PUSH1 0x0 DUP1 REVERT JUMPDEST POP PUSH2 0x13F PUSH1 0x4 DUP1 CALLDATASIZE SUB DUP2 ADD SWAP1 PUSH2 0x13A SWAP2 SWAP1 PUSH2 0x2190 JUMP JUMPDEST PUSH2 0x49F JUMP JUMPDEST PUSH1 0x40 MLOAD PUSH2 0x14C SWAP2 SWAP1 PUSH2 0x21DF JUMP JUMPDEST PUSH1 0x40 MLOAD DUP1 SWAP2 SUB SWAP1 RETURN JUMPDEST CALLVALUE DUP1 ISZERO PUSH2 0x161 JUMPI PUSH1 0x0 DUP1 REVERT JUMPDEST POP PUSH2 0x17C PUSH1 0x4 DUP1 CALLDATASIZE SUB DUP2 ADD SWAP1 PUSH2 0x177 SWAP2 SWAP1 PUSH2 0x2252 JUMP JUMPDEST PUSH2 0x567 JUMP JUMPDEST PUSH1 0x40 MLOAD PUSH2 0x189 SWAP2 SWAP1 PUSH2 0x229A JUMP JUMPDEST PUSH1 0x40 MLOAD DUP1 SWAP2 SUB SWAP1 RETURN JUMPDEST CALLVALUE DUP1 ISZERO PUSH2 0x19E JUMPI PUSH1 0x0 DUP1 REVERT JUMPDEST POP PUSH2 0x1B9 PUSH1 0x4 DUP1 CALLDATASIZE SUB DUP2 ADD SWAP1 PUSH2 0x1B4 SWAP2 SWAP1 PUSH2 0x22B5 JUMP JUMPDEST PUSH2 0x649 JUMP JUMPDEST PUSH1 0x40 MLOAD PUSH2 0x1C6 SWAP2 SWAP1 PUSH2 0x2372 JUMP JUMPDEST PUSH1 0x40 MLOAD DUP1 SWAP2 SUB SWAP1 RETURN JUMPDEST PUSH2 0x1E9 PUSH1 0x4 DUP1 CALLDATASIZE SUB DUP2 ADD SWAP1 PUSH2 0x1E4 SWAP2 SWAP1 PUSH2 0x2394 JUMP JUMPDEST PUSH2 0x6DD JUMP JUMPDEST STOP JUMPDEST CALLVALUE DUP1 ISZERO PUSH2 0x1F7 JUMPI PUSH1 0x0 DUP1 REVERT JUMPDEST POP PUSH2 0x212 PUSH1 0x4 DUP1 CALLDATASIZE SUB DUP2 ADD SWAP1 PUSH2 0x20D SWAP2 SWAP1 PUSH2 0x25D1 JUMP JUMPDEST PUSH2 0xA6A JUMP JUMPDEST STOP JUMPDEST CALLVALUE DUP1 ISZERO PUSH2 0x220 JUMPI PUSH1 0x0 DUP1 REVERT JUMPDEST POP PUSH2 0x23B PUSH1 0x4 DUP1 CALLDATASIZE SUB DUP2 ADD SWAP1 PUSH2 0x236 SWAP2 SWAP1 PUSH2 0x2763 JUMP JUMPDEST PUSH2 0xB0B JUMP JUMPDEST PUSH1 0x40 MLOAD PUSH2 0x248 SWAP2 SWAP1 PUSH2 0x2899 JUMP JUMPDEST PUSH1 0x40 MLOAD DUP1 SWAP2 SUB SWAP1 RETURN JUMPDEST CALLVALUE DUP1 ISZERO PUSH2 0x25D JUMPI PUSH1 0x0 DUP1 REVERT JUMPDEST POP PUSH2 0x278 PUSH1 0x4 DUP1 CALLDATASIZE SUB DUP2 ADD SWAP1 PUSH2 0x273 SWAP2 SWAP1 PUSH2 0x22B5 JUMP JUMPDEST PUSH2 0xC24 JUMP JUMPDEST STOP JUMPDEST CALLVALUE DUP1 ISZERO PUSH2 0x286 JUMPI PUSH1 0x0 DUP1 REVERT JUMPDEST POP PUSH2 0x28F PUSH2 0xC36 JUMP JUMPDEST STOP JUMPDEST CALLVALUE DUP1 ISZERO PUSH2 0x29D JUMPI PUSH1 0x0 DUP1 REVERT JUMPDEST POP PUSH2 0x2A6 PUSH2 0xC4A JUMP JUMPDEST PUSH1 0x40 MLOAD PUSH2 0x2B3 SWAP2 SWAP1 PUSH2 0x21DF JUMP JUMPDEST PUSH1 0x40 MLOAD DUP1 SWAP2 SUB SWAP1 RETURN JUMPDEST CALLVALUE DUP1 ISZERO PUSH2 0x2C8 JUMPI PUSH1 0x0 DUP1 REVERT JUMPDEST POP PUSH2 0x2E3 PUSH1 0x4 DUP1 CALLDATASIZE SUB DUP2 ADD SWAP1 PUSH2 0x2DE SWAP2 SWAP1 PUSH2 0x22B5 JUMP JUMPDEST PUSH2 0xC50 JUMP JUMPDEST PUSH1 0x40 MLOAD PUSH2 0x2F4 SWAP6 SWAP5 SWAP4 SWAP3 SWAP2 SWAP1 PUSH2 0x28CA JUMP JUMPDEST PUSH1 0x40 MLOAD DUP1 SWAP2 SUB SWAP1 RETURN JUMPDEST CALLVALUE DUP1 ISZERO PUSH2 0x309 JUMPI PUSH1 0x0 DUP1 REVERT JUMPDEST POP PUSH2 0x312 PUSH2 0xCA6 JUMP JUMPDEST PUSH1 0x40 MLOAD PUSH2 0x31F SWAP2 SWAP1 PUSH2 0x291D JUMP JUMPDEST PUSH1 0x40 MLOAD DUP1 SWAP2 SUB SWAP1 RETURN JUMPDEST CALLVALUE DUP1 ISZERO PUSH2 0x334 JUMPI PUSH1 0x0 DUP1 REVERT JUMPDEST POP PUSH2 0x34F PUSH1 0x4 DUP1 CALLDATASIZE SUB DUP2 ADD SWAP1 PUSH2 0x34A SWAP2 SWAP1 PUSH2 0x22B5 JUMP JUMPDEST PUSH2 0xCD0 JUMP JUMPDEST PUSH1 0x40 MLOAD PUSH2 0x361 SWAP7 SWAP6 SWAP5 SWAP4 SWAP3 SWAP2 SWAP1 PUSH2 0x2938 JUMP JUMPDEST PUSH1 0x40 MLOAD DUP1 SWAP2 SUB SWAP1 RETURN JUMPDEST CALLVALUE DUP1 ISZERO PUSH2 0x376 JUMPI PUSH1 0x0 DUP1 REVERT JUMPDEST POP PUSH2 0x391 PUSH1 0x4 DUP1 CALLDATASIZE SUB DUP2 ADD SWAP1 PUSH2 0x38C SWAP2 SWAP1 PUSH2 0x29A0 JUMP JUMPDEST PUSH2 0xE56 JUMP JUMPDEST STOP JUMPDEST CALLVALUE DUP1 ISZERO PUSH2 0x39F JUMPI PUSH1 0x0 DUP1 REVERT JUMPDEST POP PUSH2 0x3BA PUSH1 0x4 DUP1 CALLDATASIZE SUB DUP2 ADD SWAP1 PUSH2 0x3B5 SWAP2 SWAP1 PUSH2 0x2A8A JUMP JUMPDEST PUSH2 0xEFF JUMP JUMPDEST STOP JUMPDEST CALLVALUE DUP1 ISZERO PUSH2 0x3C8 JUMPI PUSH1 0x0 DUP1 REVERT JUMPDEST POP PUSH2 0x3E3 PUSH1 0x4 DUP1 CALLDATASIZE SUB DUP2 ADD SWAP1 PUSH2 0x3DE SWAP2 SWAP1 PUSH2 0x2ACA JUMP JUMPDEST PUSH2 0xF15 JUMP JUMPDEST STOP JUMPDEST CALLVALUE DUP1 ISZERO PUSH2 0x3F1 JUMPI PUSH1 0x0 DUP1 REVERT JUMPDEST POP PUSH2 0x3FA PUSH2 0xFD7 JUMP JUMPDEST PUSH1 0x40 MLOAD PUSH2 0x407 SWAP2 SWAP1 PUSH2 0x21DF JUMP JUMPDEST PUSH1 0x40 MLOAD DUP1 SWAP2 SUB SWAP1 RETURN JUMPDEST CALLVALUE DUP1 ISZERO PUSH2 0x41C JUMPI PUSH1 0x0 DUP1 REVERT JUMPDEST POP PUSH2 0x437 PUSH1 0x4 DUP1 CALLDATASIZE SUB DUP2 ADD SWAP1 PUSH2 0x432 SWAP2 SWAP1 PUSH2 0x2B73 JUMP JUMPDEST PUSH2 0xFDD JUMP JUMPDEST PUSH1 0x40 MLOAD PUSH2 0x444 SWAP2 SWAP1 PUSH2 0x229A JUMP JUMPDEST PUSH1 0x40 MLOAD DUP1 SWAP2 SUB SWAP1 RETURN JUMPDEST CALLVALUE DUP1 ISZERO PUSH2 0x459 JUMPI PUSH1 0x0 DUP1 REVERT JUMPDEST POP PUSH2 0x474 PUSH1 0x4 DUP1 CALLDATASIZE SUB DUP2 ADD SWAP1 PUSH2 0x46F SWAP2 SWAP1 PUSH2 0x2BB3 JUMP JUMPDEST PUSH2 0x1071 JUMP JUMPDEST STOP JUMPDEST CALLVALUE DUP1 ISZERO PUSH2 0x482 JUMPI PUSH1 0x0 DUP1 REVERT JUMPDEST POP PUSH2 0x49D PUSH1 0x4 DUP1 CALLDATASIZE SUB DUP2 ADD SWAP1 PUSH2 0x498 SWAP2 SWAP1 PUSH2 0x2C4A JUMP JUMPDEST PUSH2 0x1112 JUMP JUMPDEST STOP JUMPDEST PUSH1 0x0 DUP1 PUSH20 0xFFFFFFFFFFFFFFFFFFFFFFFFFFFFFFFFFFFFFFFF AND DUP4 PUSH20 0xFFFFFFFFFFFFFFFFFFFFFFFFFFFFFFFFFFFFFFFF AND SUB PUSH2 0x50F JUMPI PUSH1 0x40 MLOAD PUSH32 0x8C379A000000000000000000000000000000000000000000000000000000000 DUP2 MSTORE PUSH1 0x4 ADD PUSH2 0x506 SWAP1 PUSH2 0x2CE9 JUMP JUMPDEST PUSH1 0x40 MLOAD DUP1 SWAP2 SUB SWAP1 REVERT JUMPDEST PUSH1 0x0 DUP1 DUP4 DUP2 MSTORE PUSH1 0x20 ADD SWAP1 DUP2 MSTORE PUSH1 0x20 ADD PUSH1 0x0 KECCAK256 PUSH1 0x0 DUP5 PUSH20 0xFFFFFFFFFFFFFFFFFFFFFFFFFFFFFFFFFFFFFFFF AND PUSH20 0xFFFFFFFFFFFFFFFFFFFFFFFFFFFFFFFFFFFFFFFF AND DUP2 MSTORE PUSH1 0x20 ADD SWAP1 DUP2 MSTORE PUSH1 0x20 ADD PUSH1 0x0 KECCAK256 SLOAD SWAP1 POP SWAP3 SWAP2 POP POP JUMP JUMPDEST PUSH1 0x0 PUSH32 0xD9B67A2600000000000000000000000000000000000000000000000000000000 PUSH28 0xFFFFFFFFFFFFFFFFFFFFFFFFFFFFFFFFFFFFFFFFFFFFFFFFFFFFFFFF NOT AND DUP3 PUSH28 0xFFFFFFFFFFFFFFFFFFFFFFFFFFFFFFFFFFFFFFFFFFFFFFFFFFFFFFFF NOT AND EQ DUP1 PUSH2 0x632 JUMPI POP PUSH32 0xE89341C00000000000000000000000000000000000000000000000000000000 PUSH28 0xFFFFFFFFFFFFFFFFFFFFFFFFFFFFFFFFFFFFFFFFFFFFFFFFFFFFFFFF NOT AND DUP3 PUSH28 0xFFFFFFFFFFFFFFFFFFFFFFFFFFFFFFFFFFFFFFFFFFFFFFFFFFFFFFFF NOT AND EQ JUMPDEST DUP1 PUSH2 0x642 JUMPI POP PUSH2 0x641 DUP3 PUSH2 0x1195 JUMP JUMPDEST JUMPDEST SWAP1 POP SWAP2 SWAP1 POP JUMP JUMPDEST PUSH1 0x60 PUSH1 0x2 DUP1 SLOAD PUSH2 0x658 SWAP1 PUSH2 0x2D38 JUMP JUMPDEST DUP1 PUSH1 0x1F ADD PUSH1 0x20 DUP1 SWAP2 DIV MUL PUSH1 0x20 ADD PUSH1 0x40 MLOAD SWAP1 DUP2 ADD PUSH1 0x40 MSTORE DUP1 SWAP3 SWAP2 SWAP1 DUP2 DUP2 MSTORE PUSH1 0x20 ADD DUP3 DUP1 SLOAD PUSH2 0x684 SWAP1 PUSH2 0x2D38 JUMP JUMPDEST DUP1 ISZERO PUSH2 0x6D1 JUMPI DUP1 PUSH1 0x1F LT PUSH2 0x6A6 JUMPI PUSH2 0x100 DUP1 DUP4 SLOAD DIV MUL DUP4 MSTORE SWAP2 PUSH1 0x20 ADD SWAP2 PUSH2 0x6D1 JUMP JUMPDEST DUP3 ADD SWAP2 SWAP1 PUSH1 0x0 MSTORE PUSH1 0x20 PUSH1 0x0 KECCAK256 SWAP1 JUMPDEST DUP2 SLOAD DUP2 MSTORE SWAP1 PUSH1 0x1 ADD SWAP1 PUSH1 0x20 ADD DUP1 DUP4 GT PUSH2 0x6B4 JUMPI DUP3 SWAP1 SUB PUSH1 0x1F AND DUP3 ADD SWAP2 JUMPDEST POP POP POP POP POP SWAP1 POP SWAP2 SWAP1 POP JUMP JUMPDEST PUSH1 0x0 PUSH1 0x4 PUSH1 0x0 PUSH1 0x5 SLOAD DUP2 MSTORE PUSH1 0x20 ADD SWAP1 DUP2 MSTORE PUSH1 0x20 ADD PUSH1 0x0 KECCAK256 SWAP1 POP DUP1 PUSH1 0x0 ADD SLOAD TIMESTAMP LT ISZERO PUSH2 0x73D JUMPI PUSH1 0x40 MLOAD PUSH32 0x8C379A000000000000000000000000000000000000000000000000000000000 DUP2 MSTORE PUSH1 0x4 ADD PUSH2 0x734 SWAP1 PUSH2 0x2DB5 JUMP JUMPDEST PUSH1 0x40 MLOAD DUP1 SWAP2 SUB SWAP1 REVERT JUMPDEST DUP1 PUSH1 0x1 ADD SLOAD TIMESTAMP GT ISZERO PUSH2 0x784 JUMPI PUSH1 0x40 MLOAD PUSH32 0x8C379A000000000000000000000000000000000000000000000000000000000 DUP2 MSTORE PUSH1 0x4 ADD PUSH2 0x77B SWAP1 PUSH2 0x2E21 JUMP JUMPDEST PUSH1 0x40 MLOAD DUP1 SWAP2 SUB SWAP1 REVERT JUMPDEST DUP1 PUSH1 0x4 ADD DUP1 SLOAD SWAP1 POP DUP3 LT PUSH2 0x7CD JUMPI PUSH1 0x40 MLOAD PUSH32 0x8C379A000000000000000000000000000000000000000000000000000000000 DUP2 MSTORE PUSH1 0x4 ADD PUSH2 0x7C4 SWAP1 PUSH2 0x2E8D JUMP JUMPDEST PUSH1 0x40 MLOAD DUP1 SWAP2 SUB SWAP1 REVERT JUMPDEST PUSH1 0x1 PUSH1 0x5 SLOAD GT ISZERO PUSH2 0x853 JUMPI PUSH1 0x0 PUSH1 0x4 PUSH1 0x0 PUSH1 0x1 PUSH1 0x5 SLOAD PUSH2 0x7ED SWAP2 SWAP1 PUSH2 0x2EDC JUMP JUMPDEST DUP2 MSTORE PUSH1 0x20 ADD SWAP1 DUP2 MSTORE PUSH1 0x20 ADD PUSH1 0x0 KECCAK256 SWAP1 POP PUSH1 0x6 SLOAD DUP2 PUSH1 0x1 ADD SLOAD PUSH2 0x80F SWAP2 SWAP1 PUSH2 0x2F10 JUMP JUMPDEST TIMESTAMP LT ISZERO PUSH2 0x851 JUMPI PUSH1 0x40 MLOAD PUSH32 0x8C379A000000000000000000000000000000000000000000000000000000000 DUP2 MSTORE PUSH1 0x4 ADD PUSH2 0x848 SWAP1 PUSH2 0x2FB6 JUMP JUMPDEST PUSH1 0x40 MLOAD DUP1 SWAP2 SUB SWAP1 REVERT JUMPDEST POP JUMPDEST PUSH1 0x0 PUSH20 0xFFFFFFFFFFFFFFFFFFFFFFFFFFFFFFFFFFFFFFFF AND DUP2 PUSH1 0x5 ADD PUSH1 0x0 SWAP1 SLOAD SWAP1 PUSH2 0x100 EXP SWAP1 DIV PUSH20 0xFFFFFFFFFFFFFFFFFFFFFFFFFFFFFFFFFFFFFFFF AND PUSH20 0xFFFFFFFFFFFFFFFFFFFFFFFFFFFFFFFFFFFFFFFF AND SUB PUSH2 0x938 JUMPI DUP3 DUP2 PUSH1 0x4 ADD DUP4 DUP2 SLOAD DUP2 LT PUSH2 0x8C2 JUMPI PUSH2 0x8C1 PUSH2 0x2FD6 JUMP JUMPDEST JUMPDEST SWAP1 PUSH1 0x0 MSTORE PUSH1 0x20 PUSH1 0x0 KECCAK256 ADD SLOAD PUSH2 0x8D7 SWAP2 SWAP1 PUSH2 0x3005 JUMP JUMPDEST CALLVALUE EQ PUSH2 0x918 JUMPI PUSH1 0x40 MLOAD PUSH32 0x8C379A000000000000000000000000000000000000000000000000000000000 DUP2 MSTORE PUSH1 0x4 ADD PUSH2 0x90F SWAP1 PUSH2 0x3093 JUMP JUMPDEST PUSH1 0x40 MLOAD DUP1 SWAP2 SUB SWAP1 REVERT JUMPDEST PUSH2 0x933 CALLER DUP4 DUP6 PUSH1 0x40 MLOAD DUP1 PUSH1 0x20 ADD PUSH1 0x40 MSTORE DUP1 PUSH1 0x0 DUP2 MSTORE POP PUSH2 0x11FF JUMP JUMPDEST PUSH2 0xA65 JUMP JUMPDEST PUSH1 0x0 CALLVALUE EQ PUSH2 0x97B JUMPI PUSH1 0x40 MLOAD PUSH32 0x8C379A000000000000000000000000000000000000000000000000000000000 DUP2 MSTORE PUSH1 0x4 ADD PUSH2 0x972 SWAP1 PUSH2 0x30FF JUMP JUMPDEST PUSH1 0x40 MLOAD DUP1 SWAP2 SUB SWAP1 REVERT JUMPDEST DUP1 PUSH1 0x5 ADD PUSH1 0x0 SWAP1 SLOAD SWAP1 PUSH2 0x100 EXP SWAP1 DIV PUSH20 0xFFFFFFFFFFFFFFFFFFFFFFFFFFFFFFFFFFFFFFFF AND PUSH20 0xFFFFFFFFFFFFFFFFFFFFFFFFFFFFFFFFFFFFFFFF AND PUSH4 0xA9059CBB CALLER DUP4 PUSH1 0x4 ADD DUP6 DUP2 SLOAD DUP2 LT PUSH2 0x9D2 JUMPI PUSH2 0x9D1 PUSH2 0x2FD6 JUMP JUMPDEST JUMPDEST SWAP1 PUSH1 0x0 MSTORE PUSH1 0x20 PUSH1 0x0 KECCAK256 ADD SLOAD DUP7 PUSH2 0x9E8 SWAP2 SWAP1 PUSH2 0x3005 JUMP JUMPDEST PUSH1 0x40 MLOAD DUP4 PUSH4 0xFFFFFFFF AND PUSH1 0xE0 SHL DUP2 MSTORE PUSH1 0x4 ADD PUSH2 0xA05 SWAP3 SWAP2 SWAP1 PUSH2 0x311F JUMP JUMPDEST PUSH1 0x20 PUSH1 0x40 MLOAD DUP1 DUP4 SUB DUP2 PUSH1 0x0 DUP8 GAS CALL ISZERO DUP1 ISZERO PUSH2 0xA24 JUMPI RETURNDATASIZE PUSH1 0x0 DUP1 RETURNDATACOPY RETURNDATASIZE PUSH1 0x0 REVERT JUMPDEST POP POP POP POP PUSH1 0x40 MLOAD RETURNDATASIZE PUSH1 0x1F NOT PUSH1 0x1F DUP3 ADD AND DUP3 ADD DUP1 PUSH1 0x40 MSTORE POP DUP2 ADD SWAP1 PUSH2 0xA48 SWAP2 SWAP1 PUSH2 0x315D JUMP JUMPDEST POP PUSH2 0xA64 CALLER DUP4 DUP6 PUSH1 0x40 MLOAD DUP1 PUSH1 0x20 ADD PUSH1 0x40 MSTORE DUP1 PUSH1 0x0 DUP2 MSTORE POP PUSH2 0x11FF JUMP JUMPDEST JUMPDEST POP POP POP JUMP JUMPDEST PUSH2 0xA72 PUSH2 0x13AF JUMP JUMPDEST PUSH20 0xFFFFFFFFFFFFFFFFFFFFFFFFFFFFFFFFFFFFFFFF AND DUP6 PUSH20 0xFFFFFFFFFFFFFFFFFFFFFFFFFFFFFFFFFFFFFFFF AND EQ DUP1 PUSH2 0xAB8 JUMPI POP PUSH2 0xAB7 DUP6 PUSH2 0xAB2 PUSH2 0x13AF JUMP JUMPDEST PUSH2 0xFDD JUMP JUMPDEST JUMPDEST PUSH2 0xAF7 JUMPI PUSH1 0x40 MLOAD PUSH32 0x8C379A000000000000000000000000000000000000000000000000000000000 DUP2 MSTORE PUSH1 0x4 ADD PUSH2 0xAEE SWAP1 PUSH2 0x31FC JUMP JUMPDEST PUSH1 0x40 MLOAD DUP1 SWAP2 SUB SWAP1 REVERT JUMPDEST PUSH2 0xB04 DUP6 DUP6 DUP6 DUP6 DUP6 PUSH2 0x13B7 JUMP JUMPDEST POP POP POP POP POP JUMP JUMPDEST PUSH1 0x60 DUP2 MLOAD DUP4 MLOAD EQ PUSH2 0xB51 JUMPI PUSH1 0x40 MLOAD PUSH32 0x8C379A000000000000000000000000000000000000000000000000000000000 DUP2 MSTORE PUSH1 0x4 ADD PUSH2 0xB48 SWAP1 PUSH2 0x328E JUMP JUMPDEST PUSH1 0x40 MLOAD DUP1 SWAP2 SUB SWAP1 REVERT JUMPDEST PUSH1 0x0 DUP4 MLOAD PUSH8 0xFFFFFFFFFFFFFFFF DUP2 GT ISZERO PUSH2 0xB6E JUMPI PUSH2 0xB6D PUSH2 0x23D9 JUMP JUMPDEST JUMPDEST PUSH1 0x40 MLOAD SWAP1 DUP1 DUP3 MSTORE DUP1 PUSH1 0x20 MUL PUSH1 0x20 ADD DUP3 ADD PUSH1 0x40 MSTORE DUP1 ISZERO PUSH2 0xB9C JUMPI DUP2 PUSH1 0x20 ADD PUSH1 0x20 DUP3 MUL DUP1 CALLDATASIZE DUP4 CALLDATACOPY DUP1 DUP3 ADD SWAP2 POP POP SWAP1 POP JUMPDEST POP SWAP1 POP PUSH1 0x0 JUMPDEST DUP5 MLOAD DUP2 LT ISZERO PUSH2 0xC19 JUMPI PUSH2 0xBE9 DUP6 DUP3 DUP2 MLOAD DUP2 LT PUSH2 0xBC1 JUMPI PUSH2 0xBC0 PUSH2 0x2FD6 JUMP JUMPDEST JUMPDEST PUSH1 0x20 MUL PUSH1 0x20 ADD ADD MLOAD DUP6 DUP4 DUP2 MLOAD DUP2 LT PUSH2 0xBDC JUMPI PUSH2 0xBDB PUSH2 0x2FD6 JUMP JUMPDEST JUMPDEST PUSH1 0x20 MUL PUSH1 0x20 ADD ADD MLOAD PUSH2 0x49F JUMP JUMPDEST DUP3 DUP3 DUP2 MLOAD DUP2 LT PUSH2 0xBFC JUMPI PUSH2 0xBFB PUSH2 0x2FD6 JUMP JUMPDEST JUMPDEST PUSH1 0x20 MUL PUSH1 0x20 ADD ADD DUP2 DUP2 MSTORE POP POP DUP1 PUSH2 0xC12 SWAP1 PUSH2 0x32AE JUMP JUMPDEST SWAP1 POP PUSH2 0xBA2 JUMP JUMPDEST POP DUP1 SWAP2 POP POP SWAP3 SWAP2 POP POP JUMP JUMPDEST PUSH2 0xC2C PUSH2 0x16D8 JUMP JUMPDEST DUP1 PUSH1 0x6 DUP2 SWAP1 SSTORE POP POP JUMP JUMPDEST PUSH2 0xC3E PUSH2 0x16D8 JUMP JUMPDEST PUSH2 0xC48 PUSH1 0x0 PUSH2 0x1756 JUMP JUMPDEST JUMP JUMPDEST PUSH1 0x5 SLOAD DUP2 JUMP JUMPDEST PUSH1 0x4 PUSH1 0x20 MSTORE DUP1 PUSH1 0x0 MSTORE PUSH1 0x40 PUSH1 0x0 KECCAK256 PUSH1 0x0 SWAP2 POP SWAP1 POP DUP1 PUSH1 0x0 ADD SLOAD SWAP1 DUP1 PUSH1 0x1 ADD SLOAD SWAP1 DUP1 PUSH1 0x2 ADD SLOAD SWAP1 DUP1 PUSH1 0x3 ADD SLOAD SWAP1 DUP1 PUSH1 0x5 ADD PUSH1 0x0 SWAP1 SLOAD SWAP1 PUSH2 0x100 EXP SWAP1 DIV PUSH20 0xFFFFFFFFFFFFFFFFFFFFFFFFFFFFFFFFFFFFFFFF AND SWAP1 POP DUP6 JUMP JUMPDEST PUSH1 0x0 PUSH1 0x3 PUSH1 0x0 SWAP1 SLOAD SWAP1 PUSH2 0x100 EXP SWAP1 DIV PUSH20 0xFFFFFFFFFFFFFFFFFFFFFFFFFFFFFFFFFFFFFFFF AND SWAP1 POP SWAP1 JUMP JUMPDEST PUSH1 0x0 DUP1 PUSH1 0x0 DUP1 PUSH1 0x60 PUSH1 0x0 DUP1 DUP8 GT DUP1 ISZERO PUSH2 0xCEB JUMPI POP PUSH1 0x5 SLOAD DUP8 GT ISZERO JUMPDEST PUSH2 0xD2A JUMPI PUSH1 0x40 MLOAD PUSH32 0x8C379A000000000000000000000000000000000000000000000000000000000 DUP2 MSTORE PUSH1 0x4 ADD PUSH2 0xD21 SWAP1 PUSH2 0x3342 JUMP JUMPDEST PUSH1 0x40 MLOAD DUP1 SWAP2 SUB SWAP1 REVERT JUMPDEST PUSH1 0x0 PUSH1 0x4 PUSH1 0x0 DUP10 DUP2 MSTORE PUSH1 0x20 ADD SWAP1 DUP2 MSTORE PUSH1 0x20 ADD PUSH1 0x0 KECCAK256 PUSH1 0x40 MLOAD DUP1 PUSH1 0xC0 ADD PUSH1 0x40 MSTORE SWAP1 DUP2 PUSH1 0x0 DUP3 ADD SLOAD DUP2 MSTORE PUSH1 0x20 ADD PUSH1 0x1 DUP3 ADD SLOAD DUP2 MSTORE PUSH1 0x20 ADD PUSH1 0x2 DUP3 ADD SLOAD DUP2 MSTORE PUSH1 0x20 ADD PUSH1 0x3 DUP3 ADD SLOAD DUP2 MSTORE PUSH1 0x20 ADD PUSH1 0x4 DUP3 ADD DUP1 SLOAD DUP1 PUSH1 0x20 MUL PUSH1 0x20 ADD PUSH1 0x40 MLOAD SWAP1 DUP2 ADD PUSH1 0x40 MSTORE DUP1 SWAP3 SWAP2 SWAP1 DUP2 DUP2 MSTORE PUSH1 0x20 ADD DUP3 DUP1 SLOAD DUP1 ISZERO PUSH2 0xDC1 JUMPI PUSH1 0x20 MUL DUP3 ADD SWAP2 SWAP1 PUSH1 0x0 MSTORE PUSH1 0x20 PUSH1 0x0 KECCAK256 SWAP1 JUMPDEST DUP2 SLOAD DUP2 MSTORE PUSH1 0x20 ADD SWAP1 PUSH1 0x1 ADD SWAP1 DUP1 DUP4 GT PUSH2 0xDAD JUMPI JUMPDEST POP POP POP POP POP DUP2 MSTORE PUSH1 0x20 ADD PUSH1 0x5 DUP3 ADD PUSH1 0x0 SWAP1 SLOAD SWAP1 PUSH2 0x100 EXP SWAP1 DIV PUSH20 0xFFFFFFFFFFFFFFFFFFFFFFFFFFFFFFFFFFFFFFFF AND PUSH20 0xFFFFFFFFFFFFFFFFFFFFFFFFFFFFFFFFFFFFFFFF AND PUSH20 0xFFFFFFFFFFFFFFFFFFFFFFFFFFFFFFFFFFFFFFFF AND DUP2 MSTORE POP POP SWAP1 POP DUP1 PUSH1 0x0 ADD MLOAD DUP2 PUSH1 0x20 ADD MLOAD DUP3 PUSH1 0x40 ADD MLOAD DUP4 PUSH1 0x60 ADD MLOAD DUP5 PUSH1 0x80 ADD MLOAD DUP6 PUSH1 0xA0 ADD MLOAD SWAP7 POP SWAP7 POP SWAP7 POP SWAP7 POP SWAP7 POP SWAP7 POP POP SWAP2 SWAP4 SWAP6 POP SWAP2 SWAP4 SWAP6 JUMP JUMPDEST PUSH2 0xE5E PUSH2 0x16D8 JUMP JUMPDEST PUSH1 0x0 PUSH1 0x4 PUSH1 0x0 DUP10 DUP2 MSTORE PUSH1 0x20 ADD SWAP1 DUP2 MSTORE PUSH1 0x20 ADD PUSH1 0x0 KECCAK256 SWAP1 POP DUP7 DUP2 PUSH1 0x0 ADD DUP2 SWAP1 SSTORE POP DUP6 DUP2 PUSH1 0x1 ADD DUP2 SWAP1 SSTORE POP DUP5 DUP2 PUSH1 0x2 ADD DUP2 SWAP1 SSTORE POP DUP4 DUP2 PUSH1 0x3 ADD DUP2 SWAP1 SSTORE POP DUP3 DUP2 PUSH1 0x4 ADD SWAP1 DUP1 MLOAD SWAP1 PUSH1 0x20 ADD SWAP1 PUSH2 0xEB1 SWAP3 SWAP2 SWAP1 PUSH2 0x207E JUMP JUMPDEST POP DUP2 DUP2 PUSH1 0x5 ADD PUSH1 0x0 PUSH2 0x100 EXP DUP2 SLOAD DUP2 PUSH20 0xFFFFFFFFFFFFFFFFFFFFFFFFFFFFFFFFFFFFFFFF MUL NOT AND SWAP1 DUP4 PUSH20 0xFFFFFFFFFFFFFFFFFFFFFFFFFFFFFFFFFFFFFFFF AND MUL OR SWAP1 SSTORE POP POP POP POP POP POP POP POP POP JUMP JUMPDEST PUSH2 0xF11 PUSH2 0xF0A PUSH2 0x13AF JUMP JUMPDEST DUP4 DUP4 PUSH2 0x181C JUMP JUMPDEST POP POP JUMP JUMPDEST PUSH2 0xF1D PUSH2 0x16D8 JUMP JUMPDEST PUSH1 0x5 PUSH1 0x0 DUP2 SLOAD DUP1 SWAP3 SWAP2 SWAP1 PUSH2 0xF30 SWAP1 PUSH2 0x32AE JUMP JUMPDEST SWAP2 SWAP1 POP SSTORE POP PUSH1 0x0 PUSH1 0x4 PUSH1 0x0 PUSH1 0x5 SLOAD DUP2 MSTORE PUSH1 0x20 ADD SWAP1 DUP2 MSTORE PUSH1 0x20 ADD PUSH1 0x0 KECCAK256 SWAP1 POP DUP7 DUP2 PUSH1 0x0 ADD DUP2 SWAP1 SSTORE POP DUP6 DUP2 PUSH1 0x1 ADD DUP2 SWAP1 SSTORE POP DUP5 DUP2 PUSH1 0x2 ADD DUP2 SWAP1 SSTORE POP DUP4 DUP2 PUSH1 0x3 ADD DUP2 SWAP1 SSTORE POP DUP3 DUP2 PUSH1 0x4 ADD SWAP1 DUP1 MLOAD SWAP1 PUSH1 0x20 ADD SWAP1 PUSH2 0xF8A SWAP3 SWAP2 SWAP1 PUSH2 0x207E JUMP JUMPDEST POP DUP2 DUP2 PUSH1 0x5 ADD PUSH1 0x0 PUSH2 0x100 EXP DUP2 SLOAD DUP2 PUSH20 0xFFFFFFFFFFFFFFFFFFFFFFFFFFFFFFFFFFFFFFFF MUL NOT AND SWAP1 DUP4 PUSH20 0xFFFFFFFFFFFFFFFFFFFFFFFFFFFFFFFFFFFFFFFF AND MUL OR SWAP1 SSTORE POP POP POP POP POP POP POP POP JUMP JUMPDEST PUSH1 0x6 SLOAD DUP2 JUMP JUMPDEST PUSH1 0x0 PUSH1 0x1 PUSH1 0x0 DUP5 PUSH20 0xFFFFFFFFFFFFFFFFFFFFFFFFFFFFFFFFFFFFFFFF AND PUSH20 0xFFFFFFFFFFFFFFFFFFFFFFFFFFFFFFFFFFFFFFFF AND DUP2 MSTORE PUSH1 0x20 ADD SWAP1 DUP2 MSTORE PUSH1 0x20 ADD PUSH1 0x0 KECCAK256 PUSH1 0x0 DUP4 PUSH20 0xFFFFFFFFFFFFFFFFFFFFFFFFFFFFFFFFFFFFFFFF AND PUSH20 0xFFFFFFFFFFFFFFFFFFFFFFFFFFFFFFFFFFFFFFFF AND DUP2 MSTORE PUSH1 0x20 ADD SWAP1 DUP2 MSTORE PUSH1 0x20 ADD PUSH1 0x0 KECCAK256 PUSH1 0x0 SWAP1 SLOAD SWAP1 PUSH2 0x100 EXP SWAP1 DIV PUSH1 0xFF AND SWAP1 POP SWAP3 SWAP2 POP POP JUMP JUMPDEST PUSH2 0x1079 PUSH2 0x13AF JUMP JUMPDEST PUSH20 0xFFFFFFFFFFFFFFFFFFFFFFFFFFFFFFFFFFFFFFFF AND DUP6 PUSH20 0xFFFFFFFFFFFFFFFFFFFFFFFFFFFFFFFFFFFFFFFF AND EQ DUP1 PUSH2 0x10BF JUMPI POP PUSH2 0x10BE DUP6 PUSH2 0x10B9 PUSH2 0x13AF JUMP JUMPDEST PUSH2 0xFDD JUMP JUMPDEST JUMPDEST PUSH2 0x10FE JUMPI PUSH1 0x40 MLOAD PUSH32 0x8C379A000000000000000000000000000000000000000000000000000000000 DUP2 MSTORE PUSH1 0x4 ADD PUSH2 0x10F5 SWAP1 PUSH2 0x31FC JUMP JUMPDEST PUSH1 0x40 MLOAD DUP1 SWAP2 SUB SWAP1 REVERT JUMPDEST PUSH2 0x110B DUP6 DUP6 DUP6 DUP6 DUP6 PUSH2 0x1988 JUMP JUMPDEST POP POP POP POP POP JUMP JUMPDEST PUSH2 0x111A PUSH2 0x16D8 JUMP JUMPDEST PUSH1 0x0 PUSH20 0xFFFFFFFFFFFFFFFFFFFFFFFFFFFFFFFFFFFFFFFF AND DUP2 PUSH20 0xFFFFFFFFFFFFFFFFFFFFFFFFFFFFFFFFFFFFFFFF AND SUB PUSH2 0x1189 JUMPI PUSH1 0x40 MLOAD PUSH32 0x8C379A000000000000000000000000000000000000000000000000000000000 DUP2 MSTORE PUSH1 0x4 ADD PUSH2 0x1180 SWAP1 PUSH2 0x33D4 JUMP JUMPDEST PUSH1 0x40 MLOAD DUP1 SWAP2 SUB SWAP1 REVERT JUMPDEST PUSH2 0x1192 DUP2 PUSH2 0x1756 JUMP JUMPDEST POP JUMP JUMPDEST PUSH1 0x0 PUSH32 0x1FFC9A700000000000000000000000000000000000000000000000000000000 PUSH28 0xFFFFFFFFFFFFFFFFFFFFFFFFFFFFFFFFFFFFFFFFFFFFFFFFFFFFFFFF NOT AND DUP3 PUSH28 0xFFFFFFFFFFFFFFFFFFFFFFFFFFFFFFFFFFFFFFFFFFFFFFFFFFFFFFFF NOT AND EQ SWAP1 POP SWAP2 SWAP1 POP JUMP JUMPDEST PUSH1 0x0 PUSH20 0xFFFFFFFFFFFFFFFFFFFFFFFFFFFFFFFFFFFFFFFF AND DUP5 PUSH20 0xFFFFFFFFFFFFFFFFFFFFFFFFFFFFFFFFFFFFFFFF AND SUB PUSH2 0x126E JUMPI PUSH1 0x40 MLOAD PUSH32 0x8C379A000000000000000000000000000000000000000000000000000000000 DUP2 MSTORE PUSH1 0x4 ADD PUSH2 0x1265 SWAP1 PUSH2 0x3466 JUMP JUMPDEST PUSH1 0x40 MLOAD DUP1 SWAP2 SUB SWAP1 REVERT JUMPDEST PUSH1 0x0 PUSH2 0x1278 PUSH2 0x13AF JUMP JUMPDEST SWAP1 POP PUSH1 0x0 PUSH2 0x1285 DUP6 PUSH2 0x1C23 JUMP JUMPDEST SWAP1 POP PUSH1 0x0 PUSH2 0x1292 DUP6 PUSH2 0x1C23 JUMP JUMPDEST SWAP1 POP PUSH2 0x12A3 DUP4 PUSH1 0x0 DUP10 DUP6 DUP6 DUP10 PUSH2 0x1C9D JUMP JUMPDEST DUP5 PUSH1 0x0 DUP1 DUP9 DUP2 MSTORE PUSH1 0x20 ADD SWAP1 DUP2 MSTORE PUSH1 0x20 ADD PUSH1 0x0 KECCAK256 PUSH1 0x0 DUP10 PUSH20 0xFFFFFFFFFFFFFFFFFFFFFFFFFFFFFFFFFFFFFFFF AND PUSH20 0xFFFFFFFFFFFFFFFFFFFFFFFFFFFFFFFFFFFFFFFF AND DUP2 MSTORE PUSH1 0x20 ADD SWAP1 DUP2 MSTORE PUSH1 0x20 ADD PUSH1 0x0 KECCAK256 PUSH1 0x0 DUP3 DUP3 SLOAD PUSH2 0x1302 SWAP2 SWAP1 PUSH2 0x2F10 JUMP JUMPDEST SWAP3 POP POP DUP2 SWAP1 SSTORE POP DUP7 PUSH20 0xFFFFFFFFFFFFFFFFFFFFFFFFFFFFFFFFFFFFFFFF AND PUSH1 0x0 PUSH20 0xFFFFFFFFFFFFFFFFFFFFFFFFFFFFFFFFFFFFFFFF AND DUP5 PUSH20 0xFFFFFFFFFFFFFFFFFFFFFFFFFFFFFFFFFFFFFFFF AND PUSH32 0xC3D58168C5AE7397731D063D5BBF3D657854427343F4C083240F7AACAA2D0F62 DUP10 DUP10 PUSH1 0x40 MLOAD PUSH2 0x1380 SWAP3 SWAP2 SWAP1 PUSH2 0x3486 JUMP JUMPDEST PUSH1 0x40 MLOAD DUP1 SWAP2 SUB SWAP1 LOG4 PUSH2 0x1397 DUP4 PUSH1 0x0 DUP10 DUP6 DUP6 DUP10 PUSH2 0x1CA5 JUMP JUMPDEST PUSH2 0x13A6 DUP4 PUSH1 0x0 DUP10 DUP10 DUP10 DUP10 PUSH2 0x1CAD JUMP JUMPDEST POP POP POP POP POP POP POP JUMP JUMPDEST PUSH1 0x0 CALLER SWAP1 POP SWAP1 JUMP JUMPDEST DUP2 MLOAD DUP4 MLOAD EQ PUSH2 0x13FB JUMPI PUSH1 0x40 MLOAD PUSH32 0x8C379A000000000000000000000000000000000000000000000000000000000 DUP2 MSTORE PUSH1 0x4 ADD PUSH2 0x13F2 SWAP1 PUSH2 0x3521 JUMP JUMPDEST PUSH1 0x40 MLOAD DUP1 SWAP2 SUB SWAP1 REVERT JUMPDEST PUSH1 0x0 PUSH20 0xFFFFFFFFFFFFFFFFFFFFFFFFFFFFFFFFFFFFFFFF AND DUP5 PUSH20 0xFFFFFFFFFFFFFFFFFFFFFFFFFFFFFFFFFFFFFFFF AND SUB PUSH2 0x146A JUMPI PUSH1 0x40 MLOAD PUSH32 0x8C379A000000000000000000000000000000000000000000000000000000000 DUP2 MSTORE PUSH1 0x4 ADD PUSH2 0x1461 SWAP1 PUSH2 0x35B3 JUMP JUMPDEST PUSH1 0x40 MLOAD DUP1 SWAP2 SUB SWAP1 REVERT JUMPDEST PUSH1 0x0 PUSH2 0x1474 PUSH2 0x13AF JUMP JUMPDEST SWAP1 POP PUSH2 0x1484 DUP2 DUP8 DUP8 DUP8 DUP8 DUP8 PUSH2 0x1C9D JUMP JUMPDEST PUSH1 0x0 JUMPDEST DUP5 MLOAD DUP2 LT ISZERO PUSH2 0x1635 JUMPI PUSH1 0x0 DUP6 DUP3 DUP2 MLOAD DUP2 LT PUSH2 0x14A5 JUMPI PUSH2 0x14A4 PUSH2 0x2FD6 JUMP JUMPDEST JUMPDEST PUSH1 0x20 MUL PUSH1 0x20 ADD ADD MLOAD SWAP1 POP PUSH1 0x0 DUP6 DUP4 DUP2 MLOAD DUP2 LT PUSH2 0x14C4 JUMPI PUSH2 0x14C3 PUSH2 0x2FD6 JUMP JUMPDEST JUMPDEST PUSH1 0x20 MUL PUSH1 0x20 ADD ADD MLOAD SWAP1 POP PUSH1 0x0 DUP1 PUSH1 0x0 DUP5 DUP2 MSTORE PUSH1 0x20 ADD SWAP1 DUP2 MSTORE PUSH1 0x20 ADD PUSH1 0x0 KECCAK256 PUSH1 0x0 DUP12 PUSH20 0xFFFFFFFFFFFFFFFFFFFFFFFFFFFFFFFFFFFFFFFF AND PUSH20 0xFFFFFFFFFFFFFFFFFFFFFFFFFFFFFFFFFFFFFFFF AND DUP2 MSTORE PUSH1 0x20 ADD SWAP1 DUP2 MSTORE PUSH1 0x20 ADD PUSH1 0x0 KECCAK256 SLOAD SWAP1 POP DUP2 DUP2 LT ISZERO PUSH2 0x1565 JUMPI PUSH1 0x40 MLOAD PUSH32 0x8C379A000000000000000000000000000000000000000000000000000000000 DUP2 MSTORE PUSH1 0x4 ADD PUSH2 0x155C SWAP1 PUSH2 0x3645 JUMP JUMPDEST PUSH1 0x40 MLOAD DUP1 SWAP2 SUB SWAP1 REVERT JUMPDEST DUP2 DUP2 SUB PUSH1 0x0 DUP1 DUP6 DUP2 MSTORE PUSH1 0x20 ADD SWAP1 DUP2 MSTORE PUSH1 0x20 ADD PUSH1 0x0 KECCAK256 PUSH1 0x0 DUP13 PUSH20 0xFFFFFFFFFFFFFFFFFFFFFFFFFFFFFFFFFFFFFFFF AND PUSH20 0xFFFFFFFFFFFFFFFFFFFFFFFFFFFFFFFFFFFFFFFF AND DUP2 MSTORE PUSH1 0x20 ADD SWAP1 DUP2 MSTORE PUSH1 0x20 ADD PUSH1 0x0 KECCAK256 DUP2 SWAP1 SSTORE POP DUP2 PUSH1 0x0 DUP1 DUP6 DUP2 MSTORE PUSH1 0x20 ADD SWAP1 DUP2 MSTORE PUSH1 0x20 ADD PUSH1 0x0 KECCAK256 PUSH1 0x0 DUP12 PUSH20 0xFFFFFFFFFFFFFFFFFFFFFFFFFFFFFFFFFFFFFFFF AND PUSH20 0xFFFFFFFFFFFFFFFFFFFFFFFFFFFFFFFFFFFFFFFF AND DUP2 MSTORE PUSH1 0x20 ADD SWAP1 DUP2 MSTORE PUSH1 0x20 ADD PUSH1 0x0 KECCAK256 PUSH1 0x0 DUP3 DUP3 SLOAD PUSH2 0x161A SWAP2 SWAP1 PUSH2 0x2F10 JUMP JUMPDEST SWAP3 POP POP DUP2 SWAP1 SSTORE POP POP POP POP DUP1 PUSH2 0x162E SWAP1 PUSH2 0x32AE JUMP JUMPDEST SWAP1 POP PUSH2 0x1487 JUMP JUMPDEST POP DUP5 PUSH20 0xFFFFFFFFFFFFFFFFFFFFFFFFFFFFFFFFFFFFFFFF AND DUP7 PUSH20 0xFFFFFFFFFFFFFFFFFFFFFFFFFFFFFFFFFFFFFFFF AND DUP3 PUSH20 0xFFFFFFFFFFFFFFFFFFFFFFFFFFFFFFFFFFFFFFFF AND PUSH32 0x4A39DC06D4C0DBC64B70AF90FD698A233A518AA5D07E595D983B8C0526C8F7FB DUP8 DUP8 PUSH1 0x40 MLOAD PUSH2 0x16AC SWAP3 SWAP2 SWAP1 PUSH2 0x3665 JUMP JUMPDEST PUSH1 0x40 MLOAD DUP1 SWAP2 SUB SWAP1 LOG4 PUSH2 0x16C2 DUP2 DUP8 DUP8 DUP8 DUP8 DUP8 PUSH2 0x1CA5 JUMP JUMPDEST PUSH2 0x16D0 DUP2 DUP8 DUP8 DUP8 DUP8 DUP8 PUSH2 0x1E84 JUMP JUMPDEST POP POP POP POP POP POP JUMP JUMPDEST PUSH2 0x16E0 PUSH2 0x13AF JUMP JUMPDEST PUSH20 0xFFFFFFFFFFFFFFFFFFFFFFFFFFFFFFFFFFFFFFFF AND PUSH2 0x16FE PUSH2 0xCA6 JUMP JUMPDEST PUSH20 0xFFFFFFFFFFFFFFFFFFFFFFFFFFFFFFFFFFFFFFFF AND EQ PUSH2 0x1754 JUMPI PUSH1 0x40 MLOAD PUSH32 0x8C379A000000000000000000000000000000000000000000000000000000000 DUP2 MSTORE PUSH1 0x4 ADD PUSH2 0x174B SWAP1 PUSH2 0x36E8 JUMP JUMPDEST PUSH1 0x40 MLOAD DUP1 SWAP2 SUB SWAP1 REVERT JUMPDEST JUMP JUMPDEST PUSH1 0x0 PUSH1 0x3 PUSH1 0x0 SWAP1 SLOAD SWAP1 PUSH2 0x100 EXP SWAP1 DIV PUSH20 0xFFFFFFFFFFFFFFFFFFFFFFFFFFFFFFFFFFFFFFFF AND SWAP1 POP DUP2 PUSH1 0x3 PUSH1 0x0 PUSH2 0x100 EXP DUP2 SLOAD DUP2 PUSH20 0xFFFFFFFFFFFFFFFFFFFFFFFFFFFFFFFFFFFFFFFF MUL NOT AND SWAP1 DUP4 PUSH20 0xFFFFFFFFFFFFFFFFFFFFFFFFFFFFFFFFFFFFFFFF AND MUL OR SWAP1 SSTORE POP DUP2 PUSH20 0xFFFFFFFFFFFFFFFFFFFFFFFFFFFFFFFFFFFFFFFF AND DUP2 PUSH20 0xFFFFFFFFFFFFFFFFFFFFFFFFFFFFFFFFFFFFFFFF AND PUSH32 0x8BE0079C531659141344CD1FD0A4F28419497F9722A3DAAFE3B4186F6B6457E0 PUSH1 0x40 MLOAD PUSH1 0x40 MLOAD DUP1 SWAP2 SUB SWAP1 LOG3 POP POP JUMP JUMPDEST DUP2 PUSH20 0xFFFFFFFFFFFFFFFFFFFFFFFFFFFFFFFFFFFFFFFF AND DUP4 PUSH20 0xFFFFFFFFFFFFFFFFFFFFFFFFFFFFFFFFFFFFFFFF AND SUB PUSH2 0x188A JUMPI PUSH1 0x40 MLOAD PUSH32 0x8C379A000000000000000000000000000000000000000000000000000000000 DUP2 MSTORE PUSH1 0x4 ADD PUSH2 0x1881 SWAP1 PUSH2 0x377A JUMP JUMPDEST PUSH1 0x40 MLOAD DUP1 SWAP2 SUB SWAP1 REVERT JUMPDEST DUP1 PUSH1 0x1 PUSH1 0x0 DUP6 PUSH20 0xFFFFFFFFFFFFFFFFFFFFFFFFFFFFFFFFFFFFFFFF AND PUSH20 0xFFFFFFFFFFFFFFFFFFFFFFFFFFFFFFFFFFFFFFFF AND DUP2 MSTORE PUSH1 0x20 ADD SWAP1 DUP2 MSTORE PUSH1 0x20 ADD PUSH1 0x0 KECCAK256 PUSH1 0x0 DUP5 PUSH20 0xFFFFFFFFFFFFFFFFFFFFFFFFFFFFFFFFFFFFFFFF AND PUSH20 0xFFFFFFFFFFFFFFFFFFFFFFFFFFFFFFFFFFFFFFFF AND DUP2 MSTORE PUSH1 0x20 ADD SWAP1 DUP2 MSTORE PUSH1 0x20 ADD PUSH1 0x0 KECCAK256 PUSH1 0x0 PUSH2 0x100 EXP DUP2 SLOAD DUP2 PUSH1 0xFF MUL NOT AND SWAP1 DUP4 ISZERO ISZERO MUL OR SWAP1 SSTORE POP DUP2 PUSH20 0xFFFFFFFFFFFFFFFFFFFFFFFFFFFFFFFFFFFFFFFF AND DUP4 PUSH20 0xFFFFFFFFFFFFFFFFFFFFFFFFFFFFFFFFFFFFFFFF AND PUSH32 0x17307EAB39AB6107E8899845AD3D59BD9653F200F220920489CA2B5937696C31 DUP4 PUSH1 0x40 MLOAD PUSH2 0x197B SWAP2 SWAP1 PUSH2 0x229A JUMP JUMPDEST PUSH1 0x40 MLOAD DUP1 SWAP2 SUB SWAP1 LOG3 POP POP POP JUMP JUMPDEST PUSH1 0x0 PUSH20 0xFFFFFFFFFFFFFFFFFFFFFFFFFFFFFFFFFFFFFFFF AND DUP5 PUSH20 0xFFFFFFFFFFFFFFFFFFFFFFFFFFFFFFFFFFFFFFFF AND SUB PUSH2 0x19F7 JUMPI PUSH1 0x40 MLOAD PUSH32 0x8C379A000000000000000000000000000000000000000000000000000000000 DUP2 MSTORE PUSH1 0x4 ADD PUSH2 0x19EE SWAP1 PUSH2 0x35B3 JUMP JUMPDEST PUSH1 0x40 MLOAD DUP1 SWAP2 SUB SWAP1 REVERT JUMPDEST PUSH1 0x0 PUSH2 0x1A01 PUSH2 0x13AF JUMP JUMPDEST SWAP1 POP PUSH1 0x0 PUSH2 0x1A0E DUP6 PUSH2 0x1C23 JUMP JUMPDEST SWAP1 POP PUSH1 0x0 PUSH2 0x1A1B DUP6 PUSH2 0x1C23 JUMP JUMPDEST SWAP1 POP PUSH2 0x1A2B DUP4 DUP10 DUP10 DUP6 DUP6 DUP10 PUSH2 0x1C9D JUMP JUMPDEST PUSH1 0x0 DUP1 PUSH1 0x0 DUP9 DUP2 MSTORE PUSH1 0x20 ADD SWAP1 DUP2 MSTORE PUSH1 0x20 ADD PUSH1 0x0 KECCAK256 PUSH1 0x0 DUP11 PUSH20 0xFFFFFFFFFFFFFFFFFFFFFFFFFFFFFFFFFFFFFFFF AND PUSH20 0xFFFFFFFFFFFFFFFFFFFFFFFFFFFFFFFFFFFFFFFF AND DUP2 MSTORE PUSH1 0x20 ADD SWAP1 DUP2 MSTORE PUSH1 0x20 ADD PUSH1 0x0 KECCAK256 SLOAD SWAP1 POP DUP6 DUP2 LT ISZERO PUSH2 0x1AC2 JUMPI PUSH1 0x40 MLOAD PUSH32 0x8C379A000000000000000000000000000000000000000000000000000000000 DUP2 MSTORE PUSH1 0x4 ADD PUSH2 0x1AB9 SWAP1 PUSH2 0x3645 JUMP JUMPDEST PUSH1 0x40 MLOAD DUP1 SWAP2 SUB SWAP1 REVERT JUMPDEST DUP6 DUP2 SUB PUSH1 0x0 DUP1 DUP10 DUP2 MSTORE PUSH1 0x20 ADD SWAP1 DUP2 MSTORE PUSH1 0x20 ADD PUSH1 0x0 KECCAK256 PUSH1 0x0 DUP12 PUSH20 0xFFFFFFFFFFFFFFFFFFFFFFFFFFFFFFFFFFFFFFFF AND PUSH20 0xFFFFFFFFFFFFFFFFFFFFFFFFFFFFFFFFFFFFFFFF AND DUP2 MSTORE PUSH1 0x20 ADD SWAP1 DUP2 MSTORE PUSH1 0x20 ADD PUSH1 0x0 KECCAK256 DUP2 SWAP1 SSTORE POP DUP6 PUSH1 0x0 DUP1 DUP10 DUP2 MSTORE PUSH1 0x20 ADD SWAP1 DUP2 MSTORE PUSH1 0x20 ADD PUSH1 0x0 KECCAK256 PUSH1 0x0 DUP11 PUSH20 0xFFFFFFFFFFFFFFFFFFFFFFFFFFFFFFFFFFFFFFFF AND PUSH20 0xFFFFFFFFFFFFFFFFFFFFFFFFFFFFFFFFFFFFFFFF AND DUP2 MSTORE PUSH1 0x20 ADD SWAP1 DUP2 MSTORE PUSH1 0x20 ADD PUSH1 0x0 KECCAK256 PUSH1 0x0 DUP3 DUP3 SLOAD PUSH2 0x1B77 SWAP2 SWAP1 PUSH2 0x2F10 JUMP JUMPDEST SWAP3 POP POP DUP2 SWAP1 SSTORE POP DUP8 PUSH20 0xFFFFFFFFFFFFFFFFFFFFFFFFFFFFFFFFFFFFFFFF AND DUP10 PUSH20 0xFFFFFFFFFFFFFFFFFFFFFFFFFFFFFFFFFFFFFFFF AND DUP6 PUSH20 0xFFFFFFFFFFFFFFFFFFFFFFFFFFFFFFFFFFFFFFFF AND PUSH32 0xC3D58168C5AE7397731D063D5BBF3D657854427343F4C083240F7AACAA2D0F62 DUP11 DUP11 PUSH1 0x40 MLOAD PUSH2 0x1BF4 SWAP3 SWAP2 SWAP1 PUSH2 0x3486 JUMP JUMPDEST PUSH1 0x40 MLOAD DUP1 SWAP2 SUB SWAP1 LOG4 PUSH2 0x1C0A DUP5 DUP11 DUP11 DUP7 DUP7 DUP11 PUSH2 0x1CA5 JUMP JUMPDEST PUSH2 0x1C18 DUP5 DUP11 DUP11 DUP11 DUP11 DUP11 PUSH2 0x1CAD JUMP JUMPDEST POP POP POP POP POP POP POP POP POP JUMP JUMPDEST PUSH1 0x60 PUSH1 0x0 PUSH1 0x1 PUSH8 0xFFFFFFFFFFFFFFFF DUP2 GT ISZERO PUSH2 0x1C42 JUMPI PUSH2 0x1C41 PUSH2 0x23D9 JUMP JUMPDEST JUMPDEST PUSH1 0x40 MLOAD SWAP1 DUP1 DUP3 MSTORE DUP1 PUSH1 0x20 MUL PUSH1 0x20 ADD DUP3 ADD PUSH1 0x40 MSTORE DUP1 ISZERO PUSH2 0x1C70 JUMPI DUP2 PUSH1 0x20 ADD PUSH1 0x20 DUP3 MUL DUP1 CALLDATASIZE DUP4 CALLDATACOPY DUP1 DUP3 ADD SWAP2 POP POP SWAP1 POP JUMPDEST POP SWAP1 POP DUP3 DUP2 PUSH1 0x0 DUP2 MLOAD DUP2 LT PUSH2 0x1C88 JUMPI PUSH2 0x1C87 PUSH2 0x2FD6 JUMP JUMPDEST JUMPDEST PUSH1 0x20 MUL PUSH1 0x20 ADD ADD DUP2 DUP2 MSTORE POP POP DUP1 SWAP2 POP POP SWAP2 SWAP1 POP JUMP JUMPDEST POP POP POP POP POP POP JUMP JUMPDEST POP POP POP POP POP POP JUMP JUMPDEST PUSH2 0x1CCC DUP5 PUSH20 0xFFFFFFFFFFFFFFFFFFFFFFFFFFFFFFFFFFFFFFFF AND PUSH2 0x205B JUMP JUMPDEST ISZERO PUSH2 0x1E7C JUMPI DUP4 PUSH20 0xFFFFFFFFFFFFFFFFFFFFFFFFFFFFFFFFFFFFFFFF AND PUSH4 0xF23A6E61 DUP8 DUP8 DUP7 DUP7 DUP7 PUSH1 0x40 MLOAD DUP7 PUSH4 0xFFFFFFFF AND PUSH1 0xE0 SHL DUP2 MSTORE PUSH1 0x4 ADD PUSH2 0x1D12 SWAP6 SWAP5 SWAP4 SWAP3 SWAP2 SWAP1 PUSH2 0x37EF JUMP JUMPDEST PUSH1 0x20 PUSH1 0x40 MLOAD DUP1 DUP4 SUB DUP2 PUSH1 0x0 DUP8 GAS CALL SWAP3 POP POP POP DUP1 ISZERO PUSH2 0x1D4E JUMPI POP PUSH1 0x40 MLOAD RETURNDATASIZE PUSH1 0x1F NOT PUSH1 0x1F DUP3 ADD AND DUP3 ADD DUP1 PUSH1 0x40 MSTORE POP DUP2 ADD SWAP1 PUSH2 0x1D4B SWAP2 SWAP1 PUSH2 0x385E JUMP JUMPDEST PUSH1 0x1 JUMPDEST PUSH2 0x1DF3 JUMPI PUSH2 0x1D5A PUSH2 0x3898 JUMP JUMPDEST DUP1 PUSH4 0x8C379A0 SUB PUSH2 0x1DB6 JUMPI POP PUSH2 0x1D6E PUSH2 0x38BA JUMP JUMPDEST DUP1 PUSH2 0x1D79 JUMPI POP PUSH2 0x1DB8 JUMP JUMPDEST DUP1 PUSH1 0x40 MLOAD PUSH32 0x8C379A000000000000000000000000000000000000000000000000000000000 DUP2 MSTORE PUSH1 0x4 ADD PUSH2 0x1DAD SWAP2 SWAP1 PUSH2 0x2372 JUMP JUMPDEST PUSH1 0x40 MLOAD DUP1 SWAP2 SUB SWAP1 REVERT JUMPDEST POP JUMPDEST PUSH1 0x40 MLOAD PUSH32 0x8C379A000000000000000000000000000000000000000000000000000000000 DUP2 MSTORE PUSH1 0x4 ADD PUSH2 0x1DEA SWAP1 PUSH2 0x39BC JUMP JUMPDEST PUSH1 0x40 MLOAD DUP1 SWAP2 SUB SWAP1 REVERT JUMPDEST PUSH4 0xF23A6E61 PUSH1 0xE0 SHL PUSH28 0xFFFFFFFFFFFFFFFFFFFFFFFFFFFFFFFFFFFFFFFFFFFFFFFFFFFFFFFF NOT AND DUP2 PUSH28 0xFFFFFFFFFFFFFFFFFFFFFFFFFFFFFFFFFFFFFFFFFFFFFFFFFFFFFFFF NOT AND EQ PUSH2 0x1E7A JUMPI PUSH1 0x40 MLOAD PUSH32 0x8C379A000000000000000000000000000000000000000000000000000000000 DUP2 MSTORE PUSH1 0x4 ADD PUSH2 0x1E71 SWAP1 PUSH2 0x3A4E JUMP JUMPDEST PUSH1 0x40 MLOAD DUP1 SWAP2 SUB SWAP1 REVERT JUMPDEST POP JUMPDEST POP POP POP POP POP POP JUMP JUMPDEST PUSH2 0x1EA3 DUP5 PUSH20 0xFFFFFFFFFFFFFFFFFFFFFFFFFFFFFFFFFFFFFFFF AND PUSH2 0x205B JUMP JUMPDEST ISZERO PUSH2 0x2053 JUMPI DUP4 PUSH20 0xFFFFFFFFFFFFFFFFFFFFFFFFFFFFFFFFFFFFFFFF AND PUSH4 0xBC197C81 DUP8 DUP8 DUP7 DUP7 DUP7 PUSH1 0x40 MLOAD DUP7 PUSH4 0xFFFFFFFF AND PUSH1 0xE0 SHL DUP2 MSTORE PUSH1 0x4 ADD PUSH2 0x1EE9 SWAP6 SWAP5 SWAP4 SWAP3 SWAP2 SWAP1 PUSH2 0x3A6E JUMP JUMPDEST PUSH1 0x20 PUSH1 0x40 MLOAD DUP1 DUP4 SUB DUP2 PUSH1 0x0 DUP8 GAS CALL SWAP3 POP POP POP DUP1 ISZERO PUSH2 0x1F25 JUMPI POP PUSH1 0x40 MLOAD RETURNDATASIZE PUSH1 0x1F NOT PUSH1 0x1F DUP3 ADD AND DUP3 ADD DUP1 PUSH1 0x40 MSTORE POP DUP2 ADD SWAP1 PUSH2 0x1F22 SWAP2 SWAP1 PUSH2 0x385E JUMP JUMPDEST PUSH1 0x1 JUMPDEST PUSH2 0x1FCA JUMPI PUSH2 0x1F31 PUSH2 0x3898 JUMP JUMPDEST DUP1 PUSH4 0x8C379A0 SUB PUSH2 0x1F8D JUMPI POP PUSH2 0x1F45 PUSH2 0x38BA JUMP JUMPDEST DUP1 PUSH2 0x1F50 JUMPI POP PUSH2 0x1F8F JUMP JUMPDEST DUP1 PUSH1 0x40 MLOAD PUSH32 0x8C379A000000000000000000000000000000000000000000000000000000000 DUP2 MSTORE PUSH1 0x4 ADD PUSH2 0x1F84 SWAP2 SWAP1 PUSH2 0x2372 JUMP JUMPDEST PUSH1 0x40 MLOAD DUP1 SWAP2 SUB SWAP1 REVERT JUMPDEST POP JUMPDEST PUSH1 0x40 MLOAD PUSH32 0x8C379A000000000000000000000000000000000000000000000000000000000 DUP2 MSTORE PUSH1 0x4 ADD PUSH2 0x1FC1 SWAP1 PUSH2 0x39BC JUMP JUMPDEST PUSH1 0x40 MLOAD DUP1 SWAP2 SUB SWAP1 REVERT JUMPDEST PUSH4 0xBC197C81 PUSH1 0xE0 SHL PUSH28 0xFFFFFFFFFFFFFFFFFFFFFFFFFFFFFFFFFFFFFFFFFFFFFFFFFFFFFFFF NOT AND DUP2 PUSH28 0xFFFFFFFFFFFFFFFFFFFFFFFFFFFFFFFFFFFFFFFFFFFFFFFFFFFFFFFF NOT AND EQ PUSH2 0x2051 JUMPI PUSH1 0x40 MLOAD PUSH32 0x8C379A000000000000000000000000000000000000000000000000000000000 DUP2 MSTORE PUSH1 0x4 ADD PUSH2 0x2048 SWAP1 PUSH2 0x3A4E JUMP JUMPDEST PUSH1 0x40 MLOAD DUP1 SWAP2 SUB SWAP1 REVERT JUMPDEST POP JUMPDEST POP POP POP POP POP POP JUMP JUMPDEST PUSH1 0x0 DUP1 DUP3 PUSH20 0xFFFFFFFFFFFFFFFFFFFFFFFFFFFFFFFFFFFFFFFF AND EXTCODESIZE GT SWAP1 POP SWAP2 SWAP1 POP JUMP JUMPDEST DUP3 DUP1 SLOAD DUP3 DUP3 SSTORE SWAP1 PUSH1 0x0 MSTORE PUSH1 0x20 PUSH1 0x0 KECCAK256 SWAP1 DUP2 ADD SWAP3 DUP3 ISZERO PUSH2 0x20BA JUMPI SWAP2 PUSH1 0x20 MUL DUP3 ADD JUMPDEST DUP3 DUP2 GT ISZERO PUSH2 0x20B9 JUMPI DUP3 MLOAD DUP3 SSTORE SWAP2 PUSH1 0x20 ADD SWAP2 SWAP1 PUSH1 0x1 ADD SWAP1 PUSH2 0x209E JUMP JUMPDEST JUMPDEST POP SWAP1 POP PUSH2 0x20C7 SWAP2 SWAP1 PUSH2 0x20CB JUMP JUMPDEST POP SWAP1 JUMP JUMPDEST JUMPDEST DUP1 DUP3 GT ISZERO PUSH2 0x20E4 JUMPI PUSH1 0x0 DUP2 PUSH1 0x0 SWAP1 SSTORE POP PUSH1 0x1 ADD PUSH2 0x20CC JUMP JUMPDEST POP SWAP1 JUMP JUMPDEST PUSH1 0x0 PUSH1 0x40 MLOAD SWAP1 POP SWAP1 JUMP JUMPDEST PUSH1 0x0 DUP1 REVERT JUMPDEST PUSH1 0x0 DUP1 REVERT JUMPDEST PUSH1 0x0 PUSH20 0xFFFFFFFFFFFFFFFFFFFFFFFFFFFFFFFFFFFFFFFF DUP3 AND SWAP1 POP SWAP2 SWAP1 POP JUMP JUMPDEST PUSH1 0x0 PUSH2 0x2127 DUP3 PUSH2 0x20FC JUMP JUMPDEST SWAP1 POP SWAP2 SWAP1 POP JUMP JUMPDEST PUSH2 0x2137 DUP2 PUSH2 0x211C JUMP JUMPDEST DUP2 EQ PUSH2 0x2142 JUMPI PUSH1 0x0 DUP1 REVERT JUMPDEST POP JUMP JUMPDEST PUSH1 0x0 DUP2 CALLDATALOAD SWAP1 POP PUSH2 0x2154 DUP2 PUSH2 0x212E JUMP JUMPDEST SWAP3 SWAP2 POP POP JUMP JUMPDEST PUSH1 0x0 DUP2 SWAP1 POP SWAP2 SWAP1 POP JUMP JUMPDEST PUSH2 0x216D DUP2 PUSH2 0x215A JUMP JUMPDEST DUP2 EQ PUSH2 0x2178 JUMPI PUSH1 0x0 DUP1 REVERT JUMPDEST POP JUMP JUMPDEST PUSH1 0x0 DUP2 CALLDATALOAD SWAP1 POP PUSH2 0x218A DUP2 PUSH2 0x2164 JUMP JUMPDEST SWAP3 SWAP2 POP POP JUMP JUMPDEST PUSH1 0x0 DUP1 PUSH1 0x40 DUP4 DUP6 SUB SLT ISZERO PUSH2 0x21A7 JUMPI PUSH2 0x21A6 PUSH2 0x20F2 JUMP JUMPDEST JUMPDEST PUSH1 0x0 PUSH2 0x21B5 DUP6 DUP3 DUP7 ADD PUSH2 0x2145 JUMP JUMPDEST SWAP3 POP POP PUSH1 0x20 PUSH2 0x21C6 DUP6 DUP3 DUP7 ADD PUSH2 0x217B JUMP JUMPDEST SWAP2 POP POP SWAP3 POP SWAP3 SWAP1 POP JUMP JUMPDEST PUSH2 0x21D9 DUP2 PUSH2 0x215A JUMP JUMPDEST DUP3 MSTORE POP POP JUMP JUMPDEST PUSH1 0x0 PUSH1 0x20 DUP3 ADD SWAP1 POP PUSH2 0x21F4 PUSH1 0x0 DUP4 ADD DUP5 PUSH2 0x21D0 JUMP JUMPDEST SWAP3 SWAP2 POP POP JUMP JUMPDEST PUSH1 0x0 PUSH32 0xFFFFFFFF00000000000000000000000000000000000000000000000000000000 DUP3 AND SWAP1 POP SWAP2 SWAP1 POP JUMP JUMPDEST PUSH2 0x222F DUP2 PUSH2 0x21FA JUMP JUMPDEST DUP2 EQ PUSH2 0x223A JUMPI PUSH1 0x0 DUP1 REVERT JUMPDEST POP JUMP JUMPDEST PUSH1 0x0 DUP2 CALLDATALOAD SWAP1 POP PUSH2 0x224C DUP2 PUSH2 0x2226 JUMP JUMPDEST SWAP3 SWAP2 POP POP JUMP JUMPDEST PUSH1 0x0 PUSH1 0x20 DUP3 DUP5 SUB SLT ISZERO PUSH2 0x2268 JUMPI PUSH2 0x2267 PUSH2 0x20F2 JUMP JUMPDEST JUMPDEST PUSH1 0x0 PUSH2 0x2276 DUP5 DUP3 DUP6 ADD PUSH2 0x223D JUMP JUMPDEST SWAP2 POP POP SWAP3 SWAP2 POP POP JUMP JUMPDEST PUSH1 0x0 DUP2 ISZERO ISZERO SWAP1 POP SWAP2 SWAP1 POP JUMP JUMPDEST PUSH2 0x2294 DUP2 PUSH2 0x227F JUMP JUMPDEST DUP3 MSTORE POP POP JUMP JUMPDEST PUSH1 0x0 PUSH1 0x20 DUP3 ADD SWAP1 POP PUSH2 0x22AF PUSH1 0x0 DUP4 ADD DUP5 PUSH2 0x228B JUMP JUMPDEST SWAP3 SWAP2 POP POP JUMP JUMPDEST PUSH1 0x0 PUSH1 0x20 DUP3 DUP5 SUB SLT ISZERO PUSH2 0x22CB JUMPI PUSH2 0x22CA PUSH2 0x20F2 JUMP JUMPDEST JUMPDEST PUSH1 0x0 PUSH2 0x22D9 DUP5 DUP3 DUP6 ADD PUSH2 0x217B JUMP JUMPDEST SWAP2 POP POP SWAP3 SWAP2 POP POP JUMP JUMPDEST PUSH1 0x0 DUP2 MLOAD SWAP1 POP SWAP2 SWAP1 POP JUMP JUMPDEST PUSH1 0x0 DUP3 DUP3 MSTORE PUSH1 0x20 DUP3 ADD SWAP1 POP SWAP3 SWAP2 POP POP JUMP JUMPDEST PUSH1 0x0 JUMPDEST DUP4 DUP2 LT ISZERO PUSH2 0x231C JUMPI DUP1 DUP3 ADD MLOAD DUP2 DUP5 ADD MSTORE PUSH1 0x20 DUP2 ADD SWAP1 POP PUSH2 0x2301 JUMP JUMPDEST PUSH1 0x0 DUP5 DUP5 ADD MSTORE POP POP POP POP JUMP JUMPDEST PUSH1 0x0 PUSH1 0x1F NOT PUSH1 0x1F DUP4 ADD AND SWAP1 POP SWAP2 SWAP1 POP JUMP JUMPDEST PUSH1 0x0 PUSH2 0x2344 DUP3 PUSH2 0x22E2 JUMP JUMPDEST PUSH2 0x234E DUP2 DUP6 PUSH2 0x22ED JUMP JUMPDEST SWAP4 POP PUSH2 0x235E DUP2 DUP6 PUSH1 0x20 DUP7 ADD PUSH2 0x22FE JUMP JUMPDEST PUSH2 0x2367 DUP2 PUSH2 0x2328 JUMP JUMPDEST DUP5 ADD SWAP2 POP POP SWAP3 SWAP2 POP POP JUMP JUMPDEST PUSH1 0x0 PUSH1 0x20 DUP3 ADD SWAP1 POP DUP2 DUP2 SUB PUSH1 0x0 DUP4 ADD MSTORE PUSH2 0x238C DUP2 DUP5 PUSH2 0x2339 JUMP JUMPDEST SWAP1 POP SWAP3 SWAP2 POP POP JUMP JUMPDEST PUSH1 0x0 DUP1 PUSH1 0x40 DUP4 DUP6 SUB SLT ISZERO PUSH2 0x23AB JUMPI PUSH2 0x23AA PUSH2 0x20F2 JUMP JUMPDEST JUMPDEST PUSH1 0x0 PUSH2 0x23B9 DUP6 DUP3 DUP7 ADD PUSH2 0x217B JUMP JUMPDEST SWAP3 POP POP PUSH1 0x20 PUSH2 0x23CA DUP6 DUP3 DUP7 ADD PUSH2 0x217B JUMP JUMPDEST SWAP2 POP POP SWAP3 POP SWAP3 SWAP1 POP JUMP JUMPDEST PUSH1 0x0 DUP1 REVERT JUMPDEST PUSH32 0x4E487B7100000000000000000000000000000000000000000000000000000000 PUSH1 0x0 MSTORE PUSH1 0x41 PUSH1 0x4 MSTORE PUSH1 0x24 PUSH1 0x0 REVERT JUMPDEST PUSH2 0x2411 DUP3 PUSH2 0x2328 JUMP JUMPDEST DUP2 ADD DUP2 DUP2 LT PUSH8 0xFFFFFFFFFFFFFFFF DUP3 GT OR ISZERO PUSH2 0x2430 JUMPI PUSH2 0x242F PUSH2 0x23D9 JUMP JUMPDEST JUMPDEST DUP1 PUSH1 0x40 MSTORE POP POP POP JUMP JUMPDEST PUSH1 0x0 PUSH2 0x2443 PUSH2 0x20E8 JUMP JUMPDEST SWAP1 POP PUSH2 0x244F DUP3 DUP3 PUSH2 0x2408 JUMP JUMPDEST SWAP2 SWAP1 POP JUMP JUMPDEST PUSH1 0x0 PUSH8 0xFFFFFFFFFFFFFFFF DUP3 GT ISZERO PUSH2 0x246F JUMPI PUSH2 0x246E PUSH2 0x23D9 JUMP JUMPDEST JUMPDEST PUSH1 0x20 DUP3 MUL SWAP1 POP PUSH1 0x20 DUP2 ADD SWAP1 POP SWAP2 SWAP1 POP JUMP JUMPDEST PUSH1 0x0 DUP1 REVERT JUMPDEST PUSH1 0x0 PUSH2 0x2498 PUSH2 0x2493 DUP5 PUSH2 0x2454 JUMP JUMPDEST PUSH2 0x2439 JUMP JUMPDEST SWAP1 POP DUP1 DUP4 DUP3 MSTORE PUSH1 0x20 DUP3 ADD SWAP1 POP PUSH1 0x20 DUP5 MUL DUP4 ADD DUP6 DUP2 GT ISZERO PUSH2 0x24BB JUMPI PUSH2 0x24BA PUSH2 0x2480 JUMP JUMPDEST JUMPDEST DUP4 JUMPDEST DUP2 DUP2 LT ISZERO PUSH2 0x24E4 JUMPI DUP1 PUSH2 0x24D0 DUP9 DUP3 PUSH2 0x217B JUMP JUMPDEST DUP5 MSTORE PUSH1 0x20 DUP5 ADD SWAP4 POP POP PUSH1 0x20 DUP2 ADD SWAP1 POP PUSH2 0x24BD JUMP JUMPDEST POP POP POP SWAP4 SWAP3 POP POP POP JUMP JUMPDEST PUSH1 0x0 DUP3 PUSH1 0x1F DUP4 ADD SLT PUSH2 0x2503 JUMPI PUSH2 0x2502 PUSH2 0x23D4 JUMP JUMPDEST JUMPDEST DUP2 CALLDATALOAD PUSH2 0x2513 DUP5 DUP3 PUSH1 0x20 DUP7 ADD PUSH2 0x2485 JUMP JUMPDEST SWAP2 POP POP SWAP3 SWAP2 POP POP JUMP JUMPDEST PUSH1 0x0 DUP1 REVERT JUMPDEST PUSH1 0x0 PUSH8 0xFFFFFFFFFFFFFFFF DUP3 GT ISZERO PUSH2 0x253C JUMPI PUSH2 0x253B PUSH2 0x23D9 JUMP JUMPDEST JUMPDEST PUSH2 0x2545 DUP3 PUSH2 0x2328 JUMP JUMPDEST SWAP1 POP PUSH1 0x20 DUP2 ADD SWAP1 POP SWAP2 SWAP1 POP JUMP JUMPDEST DUP3 DUP2 DUP4 CALLDATACOPY PUSH1 0x0 DUP4 DUP4 ADD MSTORE POP POP POP JUMP JUMPDEST PUSH1 0x0 PUSH2 0x2574 PUSH2 0x256F DUP5 PUSH2 0x2521 JUMP JUMPDEST PUSH2 0x2439 JUMP JUMPDEST SWAP1 POP DUP3 DUP2 MSTORE PUSH1 0x20 DUP2 ADD DUP5 DUP5 DUP5 ADD GT ISZERO PUSH2 0x2590 JUMPI PUSH2 0x258F PUSH2 0x251C JUMP JUMPDEST JUMPDEST PUSH2 0x259B DUP5 DUP3 DUP6 PUSH2 0x2552 JUMP JUMPDEST POP SWAP4 SWAP3 POP POP POP JUMP JUMPDEST PUSH1 0x0 DUP3 PUSH1 0x1F DUP4 ADD SLT PUSH2 0x25B8 JUMPI PUSH2 0x25B7 PUSH2 0x23D4 JUMP JUMPDEST JUMPDEST DUP2 CALLDATALOAD PUSH2 0x25C8 DUP5 DUP3 PUSH1 0x20 DUP7 ADD PUSH2 0x2561 JUMP JUMPDEST SWAP2 POP POP SWAP3 SWAP2 POP POP JUMP JUMPDEST PUSH1 0x0 DUP1 PUSH1 0x0 DUP1 PUSH1 0x0 PUSH1 0xA0 DUP7 DUP9 SUB SLT ISZERO PUSH2 0x25ED JUMPI PUSH2 0x25EC PUSH2 0x20F2 JUMP JUMPDEST JUMPDEST PUSH1 0x0 PUSH2 0x25FB DUP9 DUP3 DUP10 ADD PUSH2 0x2145 JUMP JUMPDEST SWAP6 POP POP PUSH1 0x20 PUSH2 0x260C DUP9 DUP3 DUP10 ADD PUSH2 0x2145 JUMP JUMPDEST SWAP5 POP POP PUSH1 0x40 DUP7 ADD CALLDATALOAD PUSH8 0xFFFFFFFFFFFFFFFF DUP2 GT ISZERO PUSH2 0x262D JUMPI PUSH2 0x262C PUSH2 0x20F7 JUMP JUMPDEST JUMPDEST PUSH2 0x2639 DUP9 DUP3 DUP10 ADD PUSH2 0x24EE JUMP JUMPDEST SWAP4 POP POP PUSH1 0x60 DUP7 ADD CALLDATALOAD PUSH8 0xFFFFFFFFFFFFFFFF DUP2 GT ISZERO PUSH2 0x265A JUMPI PUSH2 0x2659 PUSH2 0x20F7 JUMP JUMPDEST JUMPDEST PUSH2 0x2666 DUP9 DUP3 DUP10 ADD PUSH2 0x24EE JUMP JUMPDEST SWAP3 POP POP PUSH1 0x80 DUP7 ADD CALLDATALOAD PUSH8 0xFFFFFFFFFFFFFFFF DUP2 GT ISZERO PUSH2 0x2687 JUMPI PUSH2 0x2686 PUSH2 0x20F7 JUMP JUMPDEST JUMPDEST PUSH2 0x2693 DUP9 DUP3 DUP10 ADD PUSH2 0x25A3 JUMP JUMPDEST SWAP2 POP POP SWAP3 SWAP6 POP SWAP3 SWAP6 SWAP1 SWAP4 POP JUMP JUMPDEST PUSH1 0x0 PUSH8 0xFFFFFFFFFFFFFFFF DUP3 GT ISZERO PUSH2 0x26BB JUMPI PUSH2 0x26BA PUSH2 0x23D9 JUMP JUMPDEST JUMPDEST PUSH1 0x20 DUP3 MUL SWAP1 POP PUSH1 0x20 DUP2 ADD SWAP1 POP SWAP2 SWAP1 POP JUMP JUMPDEST PUSH1 0x0 PUSH2 0x26DF PUSH2 0x26DA DUP5 PUSH2 0x26A0 JUMP JUMPDEST PUSH2 0x2439 JUMP JUMPDEST SWAP1 POP DUP1 DUP4 DUP3 MSTORE PUSH1 0x20 DUP3 ADD SWAP1 POP PUSH1 0x20 DUP5 MUL DUP4 ADD DUP6 DUP2 GT ISZERO PUSH2 0x2702 JUMPI PUSH2 0x2701 PUSH2 0x2480 JUMP JUMPDEST JUMPDEST DUP4 JUMPDEST DUP2 DUP2 LT ISZERO PUSH2 0x272B JUMPI DUP1 PUSH2 0x2717 DUP9 DUP3 PUSH2 0x2145 JUMP JUMPDEST DUP5 MSTORE PUSH1 0x20 DUP5 ADD SWAP4 POP POP PUSH1 0x20 DUP2 ADD SWAP1 POP PUSH2 0x2704 JUMP JUMPDEST POP POP POP SWAP4 SWAP3 POP POP POP JUMP JUMPDEST PUSH1 0x0 DUP3 PUSH1 0x1F DUP4 ADD SLT PUSH2 0x274A JUMPI PUSH2 0x2749 PUSH2 0x23D4 JUMP JUMPDEST JUMPDEST DUP2 CALLDATALOAD PUSH2 0x275A DUP5 DUP3 PUSH1 0x20 DUP7 ADD PUSH2 0x26CC JUMP JUMPDEST SWAP2 POP POP SWAP3 SWAP2 POP POP JUMP JUMPDEST PUSH1 0x0 DUP1 PUSH1 0x40 DUP4 DUP6 SUB SLT ISZERO PUSH2 0x277A JUMPI PUSH2 0x2779 PUSH2 0x20F2 JUMP JUMPDEST JUMPDEST PUSH1 0x0 DUP4 ADD CALLDATALOAD PUSH8 0xFFFFFFFFFFFFFFFF DUP2 GT ISZERO PUSH2 0x2798 JUMPI PUSH2 0x2797 PUSH2 0x20F7 JUMP JUMPDEST JUMPDEST PUSH2 0x27A4 DUP6 DUP3 DUP7 ADD PUSH2 0x2735 JUMP JUMPDEST SWAP3 POP POP PUSH1 0x20 DUP4 ADD CALLDATALOAD PUSH8 0xFFFFFFFFFFFFFFFF DUP2 GT ISZERO PUSH2 0x27C5 JUMPI PUSH2 0x27C4 PUSH2 0x20F7 JUMP JUMPDEST JUMPDEST PUSH2 0x27D1 DUP6 DUP3 DUP7 ADD PUSH2 0x24EE JUMP JUMPDEST SWAP2 POP POP SWAP3 POP SWAP3 SWAP1 POP JUMP JUMPDEST PUSH1 0x0 DUP2 MLOAD SWAP1 POP SWAP2 SWAP1 POP JUMP JUMPDEST PUSH1 0x0 DUP3 DUP3 MSTORE PUSH1 0x20 DUP3 ADD SWAP1 POP SWAP3 SWAP2 POP POP JUMP JUMPDEST PUSH1 0x0 DUP2 SWAP1 POP PUSH1 0x20 DUP3 ADD SWAP1 POP SWAP2 SWAP1 POP JUMP JUMPDEST PUSH2 0x2810 DUP2 PUSH2 0x215A JUMP JUMPDEST DUP3 MSTORE POP POP JUMP JUMPDEST PUSH1 0x0 PUSH2 0x2822 DUP4 DUP4 PUSH2 0x2807 JUMP JUMPDEST PUSH1 0x20 DUP4 ADD SWAP1 POP SWAP3 SWAP2 POP POP JUMP JUMPDEST PUSH1 0x0 PUSH1 0x20 DUP3 ADD SWAP1 POP SWAP2 SWAP1 POP JUMP JUMPDEST PUSH1 0x0 PUSH2 0x2846 DUP3 PUSH2 0x27DB JUMP JUMPDEST PUSH2 0x2850 DUP2 DUP6 PUSH2 0x27E6 JUMP JUMPDEST SWAP4 POP PUSH2 0x285B DUP4 PUSH2 0x27F7 JUMP JUMPDEST DUP1 PUSH1 0x0 JUMPDEST DUP4 DUP2 LT ISZERO PUSH2 0x288C JUMPI DUP2 MLOAD PUSH2 0x2873 DUP9 DUP3 PUSH2 0x2816 JUMP JUMPDEST SWAP8 POP PUSH2 0x287E DUP4 PUSH2 0x282E JUMP JUMPDEST SWAP3 POP POP PUSH1 0x1 DUP2 ADD SWAP1 POP PUSH2 0x285F JUMP JUMPDEST POP DUP6 SWAP4 POP POP POP POP SWAP3 SWAP2 POP POP JUMP JUMPDEST PUSH1 0x0 PUSH1 0x20 DUP3 ADD SWAP1 POP DUP2 DUP2 SUB PUSH1 0x0 DUP4 ADD MSTORE PUSH2 0x28B3 DUP2 DUP5 PUSH2 0x283B JUMP JUMPDEST SWAP1 POP SWAP3 SWAP2 POP POP JUMP JUMPDEST PUSH2 0x28C4 DUP2 PUSH2 0x211C JUMP JUMPDEST DUP3 MSTORE POP POP JUMP JUMPDEST PUSH1 0x0 PUSH1 0xA0 DUP3 ADD SWAP1 POP PUSH2 0x28DF PUSH1 0x0 DUP4 ADD DUP9 PUSH2 0x21D0 JUMP JUMPDEST PUSH2 0x28EC PUSH1 0x20 DUP4 ADD DUP8 PUSH2 0x21D0 JUMP JUMPDEST PUSH2 0x28F9 PUSH1 0x40 DUP4 ADD DUP7 PUSH2 0x21D0 JUMP JUMPDEST PUSH2 0x2906 PUSH1 0x60 DUP4 ADD DUP6 PUSH2 0x21D0 JUMP JUMPDEST PUSH2 0x2913 PUSH1 0x80 DUP4 ADD DUP5 PUSH2 0x28BB JUMP JUMPDEST SWAP7 SWAP6 POP POP POP POP POP POP JUMP JUMPDEST PUSH1 0x0 PUSH1 0x20 DUP3 ADD SWAP1 POP PUSH2 0x2932 PUSH1 0x0 DUP4 ADD DUP5 PUSH2 0x28BB JUMP JUMPDEST SWAP3 SWAP2 POP POP JUMP JUMPDEST PUSH1 0x0 PUSH1 0xC0 DUP3 ADD SWAP1 POP PUSH2 0x294D PUSH1 0x0 DUP4 ADD DUP10 PUSH2 0x21D0 JUMP JUMPDEST PUSH2 0x295A PUSH1 0x20 DUP4 ADD DUP9 PUSH2 0x21D0 JUMP JUMPDEST PUSH2 0x2967 PUSH1 0x40 DUP4 ADD DUP8 PUSH2 0x21D0 JUMP JUMPDEST PUSH2 0x2974 PUSH1 0x60 DUP4 ADD DUP7 PUSH2 0x21D0 JUMP JUMPDEST DUP2 DUP2 SUB PUSH1 0x80 DUP4 ADD MSTORE PUSH2 0x2986 DUP2 DUP6 PUSH2 0x283B JUMP JUMPDEST SWAP1 POP PUSH2 0x2995 PUSH1 0xA0 DUP4 ADD DUP5 PUSH2 0x28BB JUMP JUMPDEST SWAP8 SWAP7 POP POP POP POP POP POP POP JUMP JUMPDEST PUSH1 0x0 DUP1 PUSH1 0x0 DUP1 PUSH1 0x0 DUP1 PUSH1 0x0 PUSH1 0xE0 DUP9 DUP11 SUB SLT ISZERO PUSH2 0x29BF JUMPI PUSH2 0x29BE PUSH2 0x20F2 JUMP JUMPDEST JUMPDEST PUSH1 0x0 PUSH2 0x29CD DUP11 DUP3 DUP12 ADD PUSH2 0x217B JUMP JUMPDEST SWAP8 POP POP PUSH1 0x20 PUSH2 0x29DE DUP11 DUP3 DUP12 ADD PUSH2 0x217B JUMP JUMPDEST SWAP7 POP POP PUSH1 0x40 PUSH2 0x29EF DUP11 DUP3 DUP12 ADD PUSH2 0x217B JUMP JUMPDEST SWAP6 POP POP PUSH1 0x60 PUSH2 0x2A00 DUP11 DUP3 DUP12 ADD PUSH2 0x217B JUMP JUMPDEST SWAP5 POP POP PUSH1 0x80 PUSH2 0x2A11 DUP11 DUP3 DUP12 ADD PUSH2 0x217B JUMP JUMPDEST SWAP4 POP POP PUSH1 0xA0 DUP9 ADD CALLDATALOAD PUSH8 0xFFFFFFFFFFFFFFFF DUP2 GT ISZERO PUSH2 0x2A32 JUMPI PUSH2 0x2A31 PUSH2 0x20F7 JUMP JUMPDEST JUMPDEST PUSH2 0x2A3E DUP11 DUP3 DUP12 ADD PUSH2 0x24EE JUMP JUMPDEST SWAP3 POP POP PUSH1 0xC0 PUSH2 0x2A4F DUP11 DUP3 DUP12 ADD PUSH2 0x2145 JUMP JUMPDEST SWAP2 POP POP SWAP3 SWAP6 SWAP9 SWAP2 SWAP5 SWAP8 POP SWAP3 SWAP6 POP JUMP JUMPDEST PUSH2 0x2A67 DUP2 PUSH2 0x227F JUMP JUMPDEST DUP2 EQ PUSH2 0x2A72 JUMPI PUSH1 0x0 DUP1 REVERT JUMPDEST POP JUMP JUMPDEST PUSH1 0x0 DUP2 CALLDATALOAD SWAP1 POP PUSH2 0x2A84 DUP2 PUSH2 0x2A5E JUMP JUMPDEST SWAP3 SWAP2 POP POP JUMP JUMPDEST PUSH1 0x0 DUP1 PUSH1 0x40 DUP4 DUP6 SUB SLT ISZERO PUSH2 0x2AA1 JUMPI PUSH2 0x2AA0 PUSH2 0x20F2 JUMP JUMPDEST JUMPDEST PUSH1 0x0 PUSH2 0x2AAF DUP6 DUP3 DUP7 ADD PUSH2 0x2145 JUMP JUMPDEST SWAP3 POP POP PUSH1 0x20 PUSH2 0x2AC0 DUP6 DUP3 DUP7 ADD PUSH2 0x2A75 JUMP JUMPDEST SWAP2 POP POP SWAP3 POP SWAP3 SWAP1 POP JUMP JUMPDEST PUSH1 0x0 DUP1 PUSH1 0x0 DUP1 PUSH1 0x0 DUP1 PUSH1 0xC0 DUP8 DUP10 SUB SLT ISZERO PUSH2 0x2AE7 JUMPI PUSH2 0x2AE6 PUSH2 0x20F2 JUMP JUMPDEST JUMPDEST PUSH1 0x0 PUSH2 0x2AF5 DUP10 DUP3 DUP11 ADD PUSH2 0x217B JUMP JUMPDEST SWAP7 POP POP PUSH1 0x20 PUSH2 0x2B06 DUP10 DUP3 DUP11 ADD PUSH2 0x217B JUMP JUMPDEST SWAP6 POP POP PUSH1 0x40 PUSH2 0x2B17 DUP10 DUP3 DUP11 ADD PUSH2 0x217B JUMP JUMPDEST SWAP5 POP POP PUSH1 0x60 PUSH2 0x2B28 DUP10 DUP3 DUP11 ADD PUSH2 0x217B JUMP JUMPDEST SWAP4 POP POP PUSH1 0x80 DUP8 ADD CALLDATALOAD PUSH8 0xFFFFFFFFFFFFFFFF DUP2 GT ISZERO PUSH2 0x2B49 JUMPI PUSH2 0x2B48 PUSH2 0x20F7 JUMP JUMPDEST JUMPDEST PUSH2 0x2B55 DUP10 DUP3 DUP11 ADD PUSH2 0x24EE JUMP JUMPDEST SWAP3 POP POP PUSH1 0xA0 PUSH2 0x2B66 DUP10 DUP3 DUP11 ADD PUSH2 0x2145 JUMP JUMPDEST SWAP2 POP POP SWAP3 SWAP6 POP SWAP3 SWAP6 POP SWAP3 SWAP6 JUMP JUMPDEST PUSH1 0x0 DUP1 PUSH1 0x40 DUP4 DUP6 SUB SLT ISZERO PUSH2 0x2B8A JUMPI PUSH2 0x2B89 PUSH2 0x20F2 JUMP JUMPDEST JUMPDEST PUSH1 0x0 PUSH2 0x2B98 DUP6 DUP3 DUP7 ADD PUSH2 0x2145 JUMP JUMPDEST SWAP3 POP POP PUSH1 0x20 PUSH2 0x2BA9 DUP6 DUP3 DUP7 ADD PUSH2 0x2145 JUMP JUMPDEST SWAP2 POP POP SWAP3 POP SWAP3 SWAP1 POP JUMP JUMPDEST PUSH1 0x0 DUP1 PUSH1 0x0 DUP1 PUSH1 0x0 PUSH1 0xA0 DUP7 DUP9 SUB SLT ISZERO PUSH2 0x2BCF JUMPI PUSH2 0x2BCE PUSH2 0x20F2 JUMP JUMPDEST JUMPDEST PUSH1 0x0 PUSH2 0x2BDD DUP9 DUP3 DUP10 ADD PUSH2 0x2145 JUMP JUMPDEST SWAP6 POP POP PUSH1 0x20 PUSH2 0x2BEE DUP9 DUP3 DUP10 ADD PUSH2 0x2145 JUMP JUMPDEST SWAP5 POP POP PUSH1 0x40 PUSH2 0x2BFF DUP9 DUP3 DUP10 ADD PUSH2 0x217B JUMP JUMPDEST SWAP4 POP POP PUSH1 0x60 PUSH2 0x2C10 DUP9 DUP3 DUP10 ADD PUSH2 0x217B JUMP JUMPDEST SWAP3 POP POP PUSH1 0x80 DUP7 ADD CALLDATALOAD PUSH8 0xFFFFFFFFFFFFFFFF DUP2 GT ISZERO PUSH2 0x2C31 JUMPI PUSH2 0x2C30 PUSH2 0x20F7 JUMP JUMPDEST JUMPDEST PUSH2 0x2C3D DUP9 DUP3 DUP10 ADD PUSH2 0x25A3 JUMP JUMPDEST SWAP2 POP POP SWAP3 SWAP6 POP SWAP3 SWAP6 SWAP1 SWAP4 POP JUMP JUMPDEST PUSH1 0x0 PUSH1 0x20 DUP3 DUP5 SUB SLT ISZERO PUSH2 0x2C60 JUMPI PUSH2 0x2C5F PUSH2 0x20F2 JUMP JUMPDEST JUMPDEST PUSH1 0x0 PUSH2 0x2C6E DUP5 DUP3 DUP6 ADD PUSH2 0x2145 JUMP JUMPDEST SWAP2 POP POP SWAP3 SWAP2 POP POP JUMP JUMPDEST PUSH32 0x455243313135353A2061646472657373207A65726F206973206E6F7420612076 PUSH1 0x0 DUP3 ADD MSTORE PUSH32 0x616C6964206F776E657200000000000000000000000000000000000000000000 PUSH1 0x20 DUP3 ADD MSTORE POP JUMP JUMPDEST PUSH1 0x0 PUSH2 0x2CD3 PUSH1 0x2A DUP4 PUSH2 0x22ED JUMP JUMPDEST SWAP2 POP PUSH2 0x2CDE DUP3 PUSH2 0x2C77 JUMP JUMPDEST PUSH1 0x40 DUP3 ADD SWAP1 POP SWAP2 SWAP1 POP JUMP JUMPDEST PUSH1 0x0 PUSH1 0x20 DUP3 ADD SWAP1 POP DUP2 DUP2 SUB PUSH1 0x0 DUP4 ADD MSTORE PUSH2 0x2D02 DUP2 PUSH2 0x2CC6 JUMP JUMPDEST SWAP1 POP SWAP2 SWAP1 POP JUMP JUMPDEST PUSH32 0x4E487B7100000000000000000000000000000000000000000000000000000000 PUSH1 0x0 MSTORE PUSH1 0x22 PUSH1 0x4 MSTORE PUSH1 0x24 PUSH1 0x0 REVERT JUMPDEST PUSH1 0x0 PUSH1 0x2 DUP3 DIV SWAP1 POP PUSH1 0x1 DUP3 AND DUP1 PUSH2 0x2D50 JUMPI PUSH1 0x7F DUP3 AND SWAP2 POP JUMPDEST PUSH1 0x20 DUP3 LT DUP2 SUB PUSH2 0x2D63 JUMPI PUSH2 0x2D62 PUSH2 0x2D09 JUMP JUMPDEST JUMPDEST POP SWAP2 SWAP1 POP JUMP JUMPDEST PUSH32 0x4E6F742074696D65206F70656E2073616C650000000000000000000000000000 PUSH1 0x0 DUP3 ADD MSTORE POP JUMP JUMPDEST PUSH1 0x0 PUSH2 0x2D9F PUSH1 0x12 DUP4 PUSH2 0x22ED JUMP JUMPDEST SWAP2 POP PUSH2 0x2DAA DUP3 PUSH2 0x2D69 JUMP JUMPDEST PUSH1 0x20 DUP3 ADD SWAP1 POP SWAP2 SWAP1 POP JUMP JUMPDEST PUSH1 0x0 PUSH1 0x20 DUP3 ADD SWAP1 POP DUP2 DUP2 SUB PUSH1 0x0 DUP4 ADD MSTORE PUSH2 0x2DCE DUP2 PUSH2 0x2D92 JUMP JUMPDEST SWAP1 POP SWAP2 SWAP1 POP JUMP JUMPDEST PUSH32 0x506173732074696D65206F6E2073616C65000000000000000000000000000000 PUSH1 0x0 DUP3 ADD MSTORE POP JUMP JUMPDEST PUSH1 0x0 PUSH2 0x2E0B PUSH1 0x11 DUP4 PUSH2 0x22ED JUMP JUMPDEST SWAP2 POP PUSH2 0x2E16 DUP3 PUSH2 0x2DD5 JUMP JUMPDEST PUSH1 0x20 DUP3 ADD SWAP1 POP SWAP2 SWAP1 POP JUMP JUMPDEST PUSH1 0x0 PUSH1 0x20 DUP3 ADD SWAP1 POP DUP2 DUP2 SUB PUSH1 0x0 DUP4 ADD MSTORE PUSH2 0x2E3A DUP2 PUSH2 0x2DFE JUMP JUMPDEST SWAP1 POP SWAP2 SWAP1 POP JUMP JUMPDEST PUSH32 0x496E76616C696420746F6B656E49640000000000000000000000000000000000 PUSH1 0x0 DUP3 ADD MSTORE POP JUMP JUMPDEST PUSH1 0x0 PUSH2 0x2E77 PUSH1 0xF DUP4 PUSH2 0x22ED JUMP JUMPDEST SWAP2 POP PUSH2 0x2E82 DUP3 PUSH2 0x2E41 JUMP JUMPDEST PUSH1 0x20 DUP3 ADD SWAP1 POP SWAP2 SWAP1 POP JUMP JUMPDEST PUSH1 0x0 PUSH1 0x20 DUP3 ADD SWAP1 POP DUP2 DUP2 SUB PUSH1 0x0 DUP4 ADD MSTORE PUSH2 0x2EA6 DUP2 PUSH2 0x2E6A JUMP JUMPDEST SWAP1 POP SWAP2 SWAP1 POP JUMP JUMPDEST PUSH32 0x4E487B7100000000000000000000000000000000000000000000000000000000 PUSH1 0x0 MSTORE PUSH1 0x11 PUSH1 0x4 MSTORE PUSH1 0x24 PUSH1 0x0 REVERT JUMPDEST PUSH1 0x0 PUSH2 0x2EE7 DUP3 PUSH2 0x215A JUMP JUMPDEST SWAP2 POP PUSH2 0x2EF2 DUP4 PUSH2 0x215A JUMP JUMPDEST SWAP3 POP DUP3 DUP3 SUB SWAP1 POP DUP2 DUP2 GT ISZERO PUSH2 0x2F0A JUMPI PUSH2 0x2F09 PUSH2 0x2EAD JUMP JUMPDEST JUMPDEST SWAP3 SWAP2 POP POP JUMP JUMPDEST PUSH1 0x0 PUSH2 0x2F1B DUP3 PUSH2 0x215A JUMP JUMPDEST SWAP2 POP PUSH2 0x2F26 DUP4 PUSH2 0x215A JUMP JUMPDEST SWAP3 POP DUP3 DUP3 ADD SWAP1 POP DUP1 DUP3 GT ISZERO PUSH2 0x2F3E JUMPI PUSH2 0x2F3D PUSH2 0x2EAD JUMP JUMPDEST JUMPDEST SWAP3 SWAP2 POP POP JUMP JUMPDEST PUSH32 0x49742773206E6F742074696D6520746F2073746172742073656C6C696E672074 PUSH1 0x0 DUP3 ADD MSTORE PUSH32 0x6865206E657720726F756E642079657400000000000000000000000000000000 PUSH1 0x20 DUP3 ADD MSTORE POP JUMP JUMPDEST PUSH1 0x0 PUSH2 0x2FA0 PUSH1 0x30 DUP4 PUSH2 0x22ED JUMP JUMPDEST SWAP2 POP PUSH2 0x2FAB DUP3 PUSH2 0x2F44 JUMP JUMPDEST PUSH1 0x40 DUP3 ADD SWAP1 POP SWAP2 SWAP1 POP JUMP JUMPDEST PUSH1 0x0 PUSH1 0x20 DUP3 ADD SWAP1 POP DUP2 DUP2 SUB PUSH1 0x0 DUP4 ADD MSTORE PUSH2 0x2FCF DUP2 PUSH2 0x2F93 JUMP JUMPDEST SWAP1 POP SWAP2 SWAP1 POP JUMP JUMPDEST PUSH32 0x4E487B7100000000000000000000000000000000000000000000000000000000 PUSH1 0x0 MSTORE PUSH1 0x32 PUSH1 0x4 MSTORE PUSH1 0x24 PUSH1 0x0 REVERT JUMPDEST PUSH1 0x0 PUSH2 0x3010 DUP3 PUSH2 0x215A JUMP JUMPDEST SWAP2 POP PUSH2 0x301B DUP4 PUSH2 0x215A JUMP JUMPDEST SWAP3 POP DUP3 DUP3 MUL PUSH2 0x3029 DUP2 PUSH2 0x215A JUMP JUMPDEST SWAP2 POP DUP3 DUP3 DIV DUP5 EQ DUP4 ISZERO OR PUSH2 0x3040 JUMPI PUSH2 0x303F PUSH2 0x2EAD JUMP JUMPDEST JUMPDEST POP SWAP3 SWAP2 POP POP JUMP JUMPDEST PUSH32 0x4E6F7420656E6F756768206E617469766520636F696E00000000000000000000 PUSH1 0x0 DUP3 ADD MSTORE POP JUMP JUMPDEST PUSH1 0x0 PUSH2 0x307D PUSH1 0x16 DUP4 PUSH2 0x22ED JUMP JUMPDEST SWAP2 POP PUSH2 0x3088 DUP3 PUSH2 0x3047 JUMP JUMPDEST PUSH1 0x20 DUP3 ADD SWAP1 POP SWAP2 SWAP1 POP JUMP JUMPDEST PUSH1 0x0 PUSH1 0x20 DUP3 ADD SWAP1 POP DUP2 DUP2 SUB PUSH1 0x0 DUP4 ADD MSTORE PUSH2 0x30AC DUP2 PUSH2 0x3070 JUMP JUMPDEST SWAP1 POP SWAP2 SWAP1 POP JUMP JUMPDEST PUSH32 0x446F6E74206E65656420746F6B656E2049440000000000000000000000000000 PUSH1 0x0 DUP3 ADD MSTORE POP JUMP JUMPDEST PUSH1 0x0 PUSH2 0x30E9 PUSH1 0x12 DUP4 PUSH2 0x22ED JUMP JUMPDEST SWAP2 POP PUSH2 0x30F4 DUP3 PUSH2 0x30B3 JUMP JUMPDEST PUSH1 0x20 DUP3 ADD SWAP1 POP SWAP2 SWAP1 POP JUMP JUMPDEST PUSH1 0x0 PUSH1 0x20 DUP3 ADD SWAP1 POP DUP2 DUP2 SUB PUSH1 0x0 DUP4 ADD MSTORE PUSH2 0x3118 DUP2 PUSH2 0x30DC JUMP JUMPDEST SWAP1 POP SWAP2 SWAP1 POP JUMP JUMPDEST PUSH1 0x0 PUSH1 0x40 DUP3 ADD SWAP1 POP PUSH2 0x3134 PUSH1 0x0 DUP4 ADD DUP6 PUSH2 0x28BB JUMP JUMPDEST PUSH2 0x3141 PUSH1 0x20 DUP4 ADD DUP5 PUSH2 0x21D0 JUMP JUMPDEST SWAP4 SWAP3 POP POP POP JUMP JUMPDEST PUSH1 0x0 DUP2 MLOAD SWAP1 POP PUSH2 0x3157 DUP2 PUSH2 0x2A5E JUMP JUMPDEST SWAP3 SWAP2 POP POP JUMP JUMPDEST PUSH1 0x0 PUSH1 0x20 DUP3 DUP5 SUB SLT ISZERO PUSH2 0x3173 JUMPI PUSH2 0x3172 PUSH2 0x20F2 JUMP JUMPDEST JUMPDEST PUSH1 0x0 PUSH2 0x3181 DUP5 DUP3 DUP6 ADD PUSH2 0x3148 JUMP JUMPDEST SWAP2 POP POP SWAP3 SWAP2 POP POP JUMP JUMPDEST PUSH32 0x455243313135353A2063616C6C6572206973206E6F7420746F6B656E206F776E PUSH1 0x0 DUP3 ADD MSTORE PUSH32 0x6572206F7220617070726F766564000000000000000000000000000000000000 PUSH1 0x20 DUP3 ADD MSTORE POP JUMP JUMPDEST PUSH1 0x0 PUSH2 0x31E6 PUSH1 0x2E DUP4 PUSH2 0x22ED JUMP JUMPDEST SWAP2 POP PUSH2 0x31F1 DUP3 PUSH2 0x318A JUMP JUMPDEST PUSH1 0x40 DUP3 ADD SWAP1 POP SWAP2 SWAP1 POP JUMP JUMPDEST PUSH1 0x0 PUSH1 0x20 DUP3 ADD SWAP1 POP DUP2 DUP2 SUB PUSH1 0x0 DUP4 ADD MSTORE PUSH2 0x3215 DUP2 PUSH2 0x31D9 JUMP JUMPDEST SWAP1 POP SWAP2 SWAP1 POP JUMP JUMPDEST PUSH32 0x455243313135353A206163636F756E747320616E6420696473206C656E677468 PUSH1 0x0 DUP3 ADD MSTORE PUSH32 0x206D69736D617463680000000000000000000000000000000000000000000000 PUSH1 0x20 DUP3 ADD MSTORE POP JUMP JUMPDEST PUSH1 0x0 PUSH2 0x3278 PUSH1 0x29 DUP4 PUSH2 0x22ED JUMP JUMPDEST SWAP2 POP PUSH2 0x3283 DUP3 PUSH2 0x321C JUMP JUMPDEST PUSH1 0x40 DUP3 ADD SWAP1 POP SWAP2 SWAP1 POP JUMP JUMPDEST PUSH1 0x0 PUSH1 0x20 DUP3 ADD SWAP1 POP DUP2 DUP2 SUB PUSH1 0x0 DUP4 ADD MSTORE PUSH2 0x32A7 DUP2 PUSH2 0x326B JUMP JUMPDEST SWAP1 POP SWAP2 SWAP1 POP JUMP JUMPDEST PUSH1 0x0 PUSH2 0x32B9 DUP3 PUSH2 0x215A JUMP JUMPDEST SWAP2 POP PUSH32 0xFFFFFFFFFFFFFFFFFFFFFFFFFFFFFFFFFFFFFFFFFFFFFFFFFFFFFFFFFFFFFFFF DUP3 SUB PUSH2 0x32EB JUMPI PUSH2 0x32EA PUSH2 0x2EAD JUMP JUMPDEST JUMPDEST PUSH1 0x1 DUP3 ADD SWAP1 POP SWAP2 SWAP1 POP JUMP JUMPDEST PUSH32 0x526F756E6420646F6573206E6F74206578697374000000000000000000000000 PUSH1 0x0 DUP3 ADD MSTORE POP JUMP JUMPDEST PUSH1 0x0 PUSH2 0x332C PUSH1 0x14 DUP4 PUSH2 0x22ED JUMP JUMPDEST SWAP2 POP PUSH2 0x3337 DUP3 PUSH2 0x32F6 JUMP JUMPDEST PUSH1 0x20 DUP3 ADD SWAP1 POP SWAP2 SWAP1 POP JUMP JUMPDEST PUSH1 0x0 PUSH1 0x20 DUP3 ADD SWAP1 POP DUP2 DUP2 SUB PUSH1 0x0 DUP4 ADD MSTORE PUSH2 0x335B DUP2 PUSH2 0x331F JUMP JUMPDEST SWAP1 POP SWAP2 SWAP1 POP JUMP JUMPDEST PUSH32 0x4F776E61626C653A206E6577206F776E657220697320746865207A65726F2061 PUSH1 0x0 DUP3 ADD MSTORE PUSH32 0x6464726573730000000000000000000000000000000000000000000000000000 PUSH1 0x20 DUP3 ADD MSTORE POP JUMP JUMPDEST PUSH1 0x0 PUSH2 0x33BE PUSH1 0x26 DUP4 PUSH2 0x22ED JUMP JUMPDEST SWAP2 POP PUSH2 0x33C9 DUP3 PUSH2 0x3362 JUMP JUMPDEST PUSH1 0x40 DUP3 ADD SWAP1 POP SWAP2 SWAP1 POP JUMP JUMPDEST PUSH1 0x0 PUSH1 0x20 DUP3 ADD SWAP1 POP DUP2 DUP2 SUB PUSH1 0x0 DUP4 ADD MSTORE PUSH2 0x33ED DUP2 PUSH2 0x33B1 JUMP JUMPDEST SWAP1 POP SWAP2 SWAP1 POP JUMP JUMPDEST PUSH32 0x455243313135353A206D696E7420746F20746865207A65726F20616464726573 PUSH1 0x0 DUP3 ADD MSTORE PUSH32 0x7300000000000000000000000000000000000000000000000000000000000000 PUSH1 0x20 DUP3 ADD MSTORE POP JUMP JUMPDEST PUSH1 0x0 PUSH2 0x3450 PUSH1 0x21 DUP4 PUSH2 0x22ED JUMP JUMPDEST SWAP2 POP PUSH2 0x345B DUP3 PUSH2 0x33F4 JUMP JUMPDEST PUSH1 0x40 DUP3 ADD SWAP1 POP SWAP2 SWAP1 POP JUMP JUMPDEST PUSH1 0x0 PUSH1 0x20 DUP3 ADD SWAP1 POP DUP2 DUP2 SUB PUSH1 0x0 DUP4 ADD MSTORE PUSH2 0x347F DUP2 PUSH2 0x3443 JUMP JUMPDEST SWAP1 POP SWAP2 SWAP1 POP JUMP JUMPDEST PUSH1 0x0 PUSH1 0x40 DUP3 ADD SWAP1 POP PUSH2 0x349B PUSH1 0x0 DUP4 ADD DUP6 PUSH2 0x21D0 JUMP JUMPDEST PUSH2 0x34A8 PUSH1 0x20 DUP4 ADD DUP5 PUSH2 0x21D0 JUMP JUMPDEST SWAP4 SWAP3 POP POP POP JUMP JUMPDEST PUSH32 0x455243313135353A2069647320616E6420616D6F756E7473206C656E67746820 PUSH1 0x0 DUP3 ADD MSTORE PUSH32 0x6D69736D61746368000000000000000000000000000000000000000000000000 PUSH1 0x20 DUP3 ADD MSTORE POP JUMP JUMPDEST PUSH1 0x0 PUSH2 0x350B PUSH1 0x28 DUP4 PUSH2 0x22ED JUMP JUMPDEST SWAP2 POP PUSH2 0x3516 DUP3 PUSH2 0x34AF JUMP JUMPDEST PUSH1 0x40 DUP3 ADD SWAP1 POP SWAP2 SWAP1 POP JUMP JUMPDEST PUSH1 0x0 PUSH1 0x20 DUP3 ADD SWAP1 POP DUP2 DUP2 SUB PUSH1 0x0 DUP4 ADD MSTORE PUSH2 0x353A DUP2 PUSH2 0x34FE JUMP JUMPDEST SWAP1 POP SWAP2 SWAP1 POP JUMP JUMPDEST PUSH32 0x455243313135353A207472616E7366657220746F20746865207A65726F206164 PUSH1 0x0 DUP3 ADD MSTORE PUSH32 0x6472657373000000000000000000000000000000000000000000000000000000 PUSH1 0x20 DUP3 ADD MSTORE POP JUMP JUMPDEST PUSH1 0x0 PUSH2 0x359D PUSH1 0x25 DUP4 PUSH2 0x22ED JUMP JUMPDEST SWAP2 POP PUSH2 0x35A8 DUP3 PUSH2 0x3541 JUMP JUMPDEST PUSH1 0x40 DUP3 ADD SWAP1 POP SWAP2 SWAP1 POP JUMP JUMPDEST PUSH1 0x0 PUSH1 0x20 DUP3 ADD SWAP1 POP DUP2 DUP2 SUB PUSH1 0x0 DUP4 ADD MSTORE PUSH2 0x35CC DUP2 PUSH2 0x3590 JUMP JUMPDEST SWAP1 POP SWAP2 SWAP1 POP JUMP JUMPDEST PUSH32 0x455243313135353A20696E73756666696369656E742062616C616E636520666F PUSH1 0x0 DUP3 ADD MSTORE PUSH32 0x72207472616E7366657200000000000000000000000000000000000000000000 PUSH1 0x20 DUP3 ADD MSTORE POP JUMP JUMPDEST PUSH1 0x0 PUSH2 0x362F PUSH1 0x2A DUP4 PUSH2 0x22ED JUMP JUMPDEST SWAP2 POP PUSH2 0x363A DUP3 PUSH2 0x35D3 JUMP JUMPDEST PUSH1 0x40 DUP3 ADD SWAP1 POP SWAP2 SWAP1 POP JUMP JUMPDEST PUSH1 0x0 PUSH1 0x20 DUP3 ADD SWAP1 POP DUP2 DUP2 SUB PUSH1 0x0 DUP4 ADD MSTORE PUSH2 0x365E DUP2 PUSH2 0x3622 JUMP JUMPDEST SWAP1 POP SWAP2 SWAP1 POP JUMP JUMPDEST PUSH1 0x0 PUSH1 0x40 DUP3 ADD SWAP1 POP DUP2 DUP2 SUB PUSH1 0x0 DUP4 ADD MSTORE PUSH2 0x367F DUP2 DUP6 PUSH2 0x283B JUMP JUMPDEST SWAP1 POP DUP2 DUP2 SUB PUSH1 0x20 DUP4 ADD MSTORE PUSH2 0x3693 DUP2 DUP5 PUSH2 0x283B JUMP JUMPDEST SWAP1 POP SWAP4 SWAP3 POP POP POP JUMP JUMPDEST PUSH32 0x4F776E61626C653A2063616C6C6572206973206E6F7420746865206F776E6572 PUSH1 0x0 DUP3 ADD MSTORE POP JUMP JUMPDEST PUSH1 0x0 PUSH2 0x36D2 PUSH1 0x20 DUP4 PUSH2 0x22ED JUMP JUMPDEST SWAP2 POP PUSH2 0x36DD DUP3 PUSH2 0x369C JUMP JUMPDEST PUSH1 0x20 DUP3 ADD SWAP1 POP SWAP2 SWAP1 POP JUMP JUMPDEST PUSH1 0x0 PUSH1 0x20 DUP3 ADD SWAP1 POP DUP2 DUP2 SUB PUSH1 0x0 DUP4 ADD MSTORE PUSH2 0x3701 DUP2 PUSH2 0x36C5 JUMP JUMPDEST SWAP1 POP SWAP2 SWAP1 POP JUMP JUMPDEST PUSH32 0x455243313135353A2073657474696E6720617070726F76616C20737461747573 PUSH1 0x0 DUP3 ADD MSTORE PUSH32 0x20666F722073656C660000000000000000000000000000000000000000000000 PUSH1 0x20 DUP3 ADD MSTORE POP JUMP JUMPDEST PUSH1 0x0 PUSH2 0x3764 PUSH1 0x29 DUP4 PUSH2 0x22ED JUMP JUMPDEST SWAP2 POP PUSH2 0x376F DUP3 PUSH2 0x3708 JUMP JUMPDEST PUSH1 0x40 DUP3 ADD SWAP1 POP SWAP2 SWAP1 POP JUMP JUMPDEST PUSH1 0x0 PUSH1 0x20 DUP3 ADD SWAP1 POP DUP2 DUP2 SUB PUSH1 0x0 DUP4 ADD MSTORE PUSH2 0x3793 DUP2 PUSH2 0x3757 JUMP JUMPDEST SWAP1 POP SWAP2 SWAP1 POP JUMP JUMPDEST PUSH1 0x0 DUP2 MLOAD SWAP1 POP SWAP2 SWAP1 POP JUMP JUMPDEST PUSH1 0x0 DUP3 DUP3 MSTORE PUSH1 0x20 DUP3 ADD SWAP1 POP SWAP3 SWAP2 POP POP JUMP JUMPDEST PUSH1 0x0 PUSH2 0x37C1 DUP3 PUSH2 0x379A JUMP JUMPDEST PUSH2 0x37CB DUP2 DUP6 PUSH2 0x37A5 JUMP JUMPDEST SWAP4 POP PUSH2 0x37DB DUP2 DUP6 PUSH1 0x20 DUP7 ADD PUSH2 0x22FE JUMP JUMPDEST PUSH2 0x37E4 DUP2 PUSH2 0x2328 JUMP JUMPDEST DUP5 ADD SWAP2 POP POP SWAP3 SWAP2 POP POP JUMP JUMPDEST PUSH1 0x0 PUSH1 0xA0 DUP3 ADD SWAP1 POP PUSH2 0x3804 PUSH1 0x0 DUP4 ADD DUP9 PUSH2 0x28BB JUMP JUMPDEST PUSH2 0x3811 PUSH1 0x20 DUP4 ADD DUP8 PUSH2 0x28BB JUMP JUMPDEST PUSH2 0x381E PUSH1 0x40 DUP4 ADD DUP7 PUSH2 0x21D0 JUMP JUMPDEST PUSH2 0x382B PUSH1 0x60 DUP4 ADD DUP6 PUSH2 0x21D0 JUMP JUMPDEST DUP2 DUP2 SUB PUSH1 0x80 DUP4 ADD MSTORE PUSH2 0x383D DUP2 DUP5 PUSH2 0x37B6 JUMP JUMPDEST SWAP1 POP SWAP7 SWAP6 POP POP POP POP POP POP JUMP JUMPDEST PUSH1 0x0 DUP2 MLOAD SWAP1 POP PUSH2 0x3858 DUP2 PUSH2 0x2226 JUMP JUMPDEST SWAP3 SWAP2 POP POP JUMP JUMPDEST PUSH1 0x0 PUSH1 0x20 DUP3 DUP5 SUB SLT ISZERO PUSH2 0x3874 JUMPI PUSH2 0x3873 PUSH2 0x20F2 JUMP JUMPDEST JUMPDEST PUSH1 0x0 PUSH2 0x3882 DUP5 DUP3 DUP6 ADD PUSH2 0x3849 JUMP JUMPDEST SWAP2 POP POP SWAP3 SWAP2 POP POP JUMP JUMPDEST PUSH1 0x0 DUP2 PUSH1 0xE0 SHR SWAP1 POP SWAP2 SWAP1 POP JUMP JUMPDEST PUSH1 0x0 PUSH1 0x3 RETURNDATASIZE GT ISZERO PUSH2 0x38B7 JUMPI PUSH1 0x4 PUSH1 0x0 DUP1 RETURNDATACOPY PUSH2 0x38B4 PUSH1 0x0 MLOAD PUSH2 0x388B JUMP JUMPDEST SWAP1 POP JUMPDEST SWAP1 JUMP JUMPDEST PUSH1 0x0 PUSH1 0x44 RETURNDATASIZE LT PUSH2 0x3947 JUMPI PUSH2 0x38CC PUSH2 0x20E8 JUMP JUMPDEST PUSH1 0x4 RETURNDATASIZE SUB PUSH1 0x4 DUP3 RETURNDATACOPY DUP1 MLOAD RETURNDATASIZE PUSH1 0x24 DUP3 ADD GT PUSH8 0xFFFFFFFFFFFFFFFF DUP3 GT OR ISZERO PUSH2 0x38F4 JUMPI POP POP PUSH2 0x3947 JUMP JUMPDEST DUP1 DUP3 ADD DUP1 MLOAD PUSH8 0xFFFFFFFFFFFFFFFF DUP2 GT ISZERO PUSH2 0x3912 JUMPI POP POP POP POP PUSH2 0x3947 JUMP JUMPDEST DUP1 PUSH1 0x20 DUP4 ADD ADD PUSH1 0x4 RETURNDATASIZE SUB DUP6 ADD DUP2 GT ISZERO PUSH2 0x392F JUMPI POP POP POP POP POP PUSH2 0x3947 JUMP JUMPDEST PUSH2 0x393E DUP3 PUSH1 0x20 ADD DUP6 ADD DUP7 PUSH2 0x2408 JUMP JUMPDEST DUP3 SWAP6 POP POP POP POP POP POP JUMPDEST SWAP1 JUMP JUMPDEST PUSH32 0x455243313135353A207472616E7366657220746F206E6F6E2D45524331313535 PUSH1 0x0 DUP3 ADD MSTORE PUSH32 0x526563656976657220696D706C656D656E746572000000000000000000000000 PUSH1 0x20 DUP3 ADD MSTORE POP JUMP JUMPDEST PUSH1 0x0 PUSH2 0x39A6 PUSH1 0x34 DUP4 PUSH2 0x22ED JUMP JUMPDEST SWAP2 POP PUSH2 0x39B1 DUP3 PUSH2 0x394A JUMP JUMPDEST PUSH1 0x40 DUP3 ADD SWAP1 POP SWAP2 SWAP1 POP JUMP JUMPDEST PUSH1 0x0 PUSH1 0x20 DUP3 ADD SWAP1 POP DUP2 DUP2 SUB PUSH1 0x0 DUP4 ADD MSTORE PUSH2 0x39D5 DUP2 PUSH2 0x3999 JUMP JUMPDEST SWAP1 POP SWAP2 SWAP1 POP JUMP JUMPDEST PUSH32 0x455243313135353A204552433131353552656365697665722072656A65637465 PUSH1 0x0 DUP3 ADD MSTORE PUSH32 0x6420746F6B656E73000000000000000000000000000000000000000000000000 PUSH1 0x20 DUP3 ADD MSTORE POP JUMP JUMPDEST PUSH1 0x0 PUSH2 0x3A38 PUSH1 0x28 DUP4 PUSH2 0x22ED JUMP JUMPDEST SWAP2 POP PUSH2 0x3A43 DUP3 PUSH2 0x39DC JUMP JUMPDEST PUSH1 0x40 DUP3 ADD SWAP1 POP SWAP2 SWAP1 POP JUMP JUMPDEST PUSH1 0x0 PUSH1 0x20 DUP3 ADD SWAP1 POP DUP2 DUP2 SUB PUSH1 0x0 DUP4 ADD MSTORE PUSH2 0x3A67 DUP2 PUSH2 0x3A2B JUMP JUMPDEST SWAP1 POP SWAP2 SWAP1 POP JUMP JUMPDEST PUSH1 0x0 PUSH1 0xA0 DUP3 ADD SWAP1 POP PUSH2 0x3A83 PUSH1 0x0 DUP4 ADD DUP9 PUSH2 0x28BB JUMP JUMPDEST PUSH2 0x3A90 PUSH1 0x20 DUP4 ADD DUP8 PUSH2 0x28BB JUMP JUMPDEST DUP2 DUP2 SUB PUSH1 0x40 DUP4 ADD MSTORE PUSH2 0x3AA2 DUP2 DUP7 PUSH2 0x283B JUMP JUMPDEST SWAP1 POP DUP2 DUP2 SUB PUSH1 0x60 DUP4 ADD MSTORE PUSH2 0x3AB6 DUP2 DUP6 PUSH2 0x283B JUMP JUMPDEST SWAP1 POP DUP2 DUP2 SUB PUSH1 0x80 DUP4 ADD MSTORE PUSH2 0x3ACA DUP2 DUP5 PUSH2 0x37B6 JUMP JUMPDEST SWAP1 POP SWAP7 SWAP6 POP POP POP POP POP POP JUMP INVALID LOG2 PUSH5 0x6970667358 0x22 SLT KECCAK256 SWAP5 DUP2 0xD6 0xF6 0xC1 0xE7 0xA8 PUSH16 0x93D16DB9C964ADEF9359901B00AF5E1C 0x26 SWAP10 MSTORE8 0xC5 POP 0x26 PUSH3 0xFF6473 PUSH16 0x6C634300081300330000000000000000 "},"methodIdentifiers":{"addRound(uint256,uint256,uint256,uint256,uint256[],address)":"adb9d3e9","balanceOf(address,uint256)":"00fdd58e","balanceOfBatch(address[],uint256[])":"4e1273f4","buyNFT(uint256,uint256)":"1d85bf03","currentRound()":"8a19c8bc","getRound(uint256)":"8f1327c0","isApprovedForAll(address,address)":"e985e9c5","owner()":"8da5cb5b","renounceOwnership()":"715018a6","rounds(uint256)":"8c65c81f","safeBatchTransferFrom(address,address,uint256[],uint256[],bytes)":"2eb2c2d6","safeTransferFrom(address,address,uint256,uint256,bytes)":"f242432a","setApprovalForAll(address,bool)":"a22cb465","setTimeOnSaleNextRound(uint256)":"6a0c71e9","supportsInterface(bytes4)":"01ffc9a7","timeNextRound()":"dc177163","transferOwnership(address)":"f2fde38b","updateRound(uint256,uint256,uint256,uint256,uint256,uint256[],address)":"96223a88","uri(uint256)":"0e89341c"}}}}}