{
  "_format": "hh-sol-artifact-1",
  "contractName": "SwordNFTs",
  "sourceName": "contracts/Sword.sol",
  "abi": [
    {
      "inputs": [],
      "stateMutability": "nonpayable",
      "type": "constructor"
    },
    {
      "anonymous": false,
      "inputs": [
        {
          "indexed": true,
          "internalType": "address",
          "name": "account",
          "type": "address"
        },
        {
          "indexed": true,
          "internalType": "address",
          "name": "operator",
          "type": "address"
        },
        {
          "indexed": false,
          "internalType": "bool",
          "name": "approved",
          "type": "bool"
        }
      ],
      "name": "ApprovalForAll",
      "type": "event"
    },
    {
      "anonymous": false,
      "inputs": [
        {
          "indexed": true,
          "internalType": "address",
          "name": "previousOwner",
          "type": "address"
        },
        {
          "indexed": true,
          "internalType": "address",
          "name": "newOwner",
          "type": "address"
        }
      ],
      "name": "OwnershipTransferred",
      "type": "event"
    },
    {
      "anonymous": false,
      "inputs": [
        {
          "indexed": true,
          "internalType": "address",
          "name": "operator",
          "type": "address"
        },
        {
          "indexed": true,
          "internalType": "address",
          "name": "from",
          "type": "address"
        },
        {
          "indexed": true,
          "internalType": "address",
          "name": "to",
          "type": "address"
        },
        {
          "indexed": false,
          "internalType": "uint256[]",
          "name": "ids",
          "type": "uint256[]"
        },
        {
          "indexed": false,
          "internalType": "uint256[]",
          "name": "values",
          "type": "uint256[]"
        }
      ],
      "name": "TransferBatch",
      "type": "event"
    },
    {
      "anonymous": false,
      "inputs": [
        {
          "indexed": true,
          "internalType": "address",
          "name": "operator",
          "type": "address"
        },
        {
          "indexed": true,
          "internalType": "address",
          "name": "from",
          "type": "address"
        },
        {
          "indexed": true,
          "internalType": "address",
          "name": "to",
          "type": "address"
        },
        {
          "indexed": false,
          "internalType": "uint256",
          "name": "id",
          "type": "uint256"
        },
        {
          "indexed": false,
          "internalType": "uint256",
          "name": "value",
          "type": "uint256"
        }
      ],
      "name": "TransferSingle",
      "type": "event"
    },
    {
      "anonymous": false,
      "inputs": [
        {
          "indexed": false,
          "internalType": "string",
          "name": "value",
          "type": "string"
        },
        {
          "indexed": true,
          "internalType": "uint256",
          "name": "id",
          "type": "uint256"
        }
      ],
      "name": "URI",
      "type": "event"
    },
    {
      "inputs": [
        {
          "internalType": "uint256",
          "name": "_startTime",
          "type": "uint256"
        },
        {
          "internalType": "uint256",
          "name": "_endTime",
          "type": "uint256"
        },
        {
          "internalType": "uint256",
          "name": "_maxNFTsPerUser",
          "type": "uint256"
        },
        {
          "internalType": "uint256",
          "name": "_totalNFTsInRound",
          "type": "uint256"
        },
        {
          "internalType": "uint256[]",
          "name": "_prices",
          "type": "uint256[]"
        },
        {
          "internalType": "address",
          "name": "_tokenAddress",
          "type": "address"
        },
        {
          "internalType": "uint256",
          "name": "_newTotalSupply",
          "type": "uint256"
        }
      ],
      "name": "addRound",
      "outputs": [],
      "stateMutability": "nonpayable",
      "type": "function"
    },
    {
      "inputs": [
        {
          "internalType": "address",
          "name": "",
          "type": "address"
        }
      ],
      "name": "amountBought",
      "outputs": [
        {
          "internalType": "uint256",
          "name": "",
          "type": "uint256"
        }
      ],
      "stateMutability": "view",
      "type": "function"
    },
    {
      "inputs": [
        {
          "internalType": "address",
          "name": "account",
          "type": "address"
        },
        {
          "internalType": "uint256",
          "name": "id",
          "type": "uint256"
        }
      ],
      "name": "balanceOf",
      "outputs": [
        {
          "internalType": "uint256",
          "name": "",
          "type": "uint256"
        }
      ],
      "stateMutability": "view",
      "type": "function"
    },
    {
      "inputs": [
        {
          "internalType": "address[]",
          "name": "accounts",
          "type": "address[]"
        },
        {
          "internalType": "uint256[]",
          "name": "ids",
          "type": "uint256[]"
        }
      ],
      "name": "balanceOfBatch",
      "outputs": [
        {
          "internalType": "uint256[]",
          "name": "",
          "type": "uint256[]"
        }
      ],
      "stateMutability": "view",
      "type": "function"
    },
    {
      "inputs": [
        {
          "internalType": "uint256",
          "name": "amount",
          "type": "uint256"
        },
        {
          "internalType": "uint256",
          "name": "tokenId",
          "type": "uint256"
        }
      ],
      "name": "buyNFT",
      "outputs": [],
      "stateMutability": "payable",
      "type": "function"
    },
    {
      "inputs": [],
      "name": "currentRound",
      "outputs": [
        {
          "internalType": "uint256",
          "name": "",
          "type": "uint256"
        }
      ],
      "stateMutability": "view",
      "type": "function"
    },
    {
      "inputs": [
        {
          "internalType": "address",
          "name": "_address",
          "type": "address"
        }
      ],
      "name": "getEtherContractBalance",
      "outputs": [
        {
          "internalType": "uint256",
          "name": "",
          "type": "uint256"
        }
      ],
      "stateMutability": "view",
      "type": "function"
    },
    {
      "inputs": [
        {
          "internalType": "uint256",
          "name": "_roundIndex",
          "type": "uint256"
        }
      ],
      "name": "getRound",
      "outputs": [
        {
          "internalType": "uint256",
          "name": "startTime",
          "type": "uint256"
        },
        {
          "internalType": "uint256",
          "name": "endTime",
          "type": "uint256"
        },
        {
          "internalType": "uint256",
          "name": "maxNFTsPerUser",
          "type": "uint256"
        },
        {
          "internalType": "uint256",
          "name": "totalNFTsInRound",
          "type": "uint256"
        },
        {
          "internalType": "uint256[]",
          "name": "prices",
          "type": "uint256[]"
        },
        {
          "internalType": "address",
          "name": "tokenAddress",
          "type": "address"
        },
        {
          "internalType": "uint256",
          "name": "totalSupply",
          "type": "uint256"
        }
      ],
      "stateMutability": "view",
      "type": "function"
    },
    {
      "inputs": [],
      "name": "getTimeCurrent",
      "outputs": [
        {
          "internalType": "uint256",
          "name": "",
          "type": "uint256"
        }
      ],
      "stateMutability": "view",
      "type": "function"
    },
    {
      "inputs": [
        {
          "internalType": "address",
          "name": "account",
          "type": "address"
        },
        {
          "internalType": "address",
          "name": "operator",
          "type": "address"
        }
      ],
      "name": "isApprovedForAll",
      "outputs": [
        {
          "internalType": "bool",
          "name": "",
          "type": "bool"
        }
      ],
      "stateMutability": "view",
      "type": "function"
    },
    {
      "inputs": [],
      "name": "owner",
      "outputs": [
        {
          "internalType": "address",
          "name": "",
          "type": "address"
        }
      ],
      "stateMutability": "view",
      "type": "function"
    },
    {
      "inputs": [],
      "name": "renounceOwnership",
      "outputs": [],
      "stateMutability": "nonpayable",
      "type": "function"
    },
    {
      "inputs": [],
      "name": "roundIndex",
      "outputs": [
        {
          "internalType": "uint256",
          "name": "",
          "type": "uint256"
        }
      ],
      "stateMutability": "view",
      "type": "function"
    },
    {
      "inputs": [
        {
          "internalType": "uint256",
          "name": "",
          "type": "uint256"
        }
      ],
      "name": "rounds",
      "outputs": [
        {
          "internalType": "uint256",
          "name": "startTime",
          "type": "uint256"
        },
        {
          "internalType": "uint256",
          "name": "endTime",
          "type": "uint256"
        },
        {
          "internalType": "uint256",
          "name": "maxNFTsPerUser",
          "type": "uint256"
        },
        {
          "internalType": "uint256",
          "name": "totalNFTsInRound",
          "type": "uint256"
        },
        {
          "internalType": "address",
          "name": "tokenAddress",
          "type": "address"
        },
        {
          "internalType": "uint256",
          "name": "totalSupply",
          "type": "uint256"
        }
      ],
      "stateMutability": "view",
      "type": "function"
    },
    {
      "inputs": [
        {
          "internalType": "address",
          "name": "from",
          "type": "address"
        },
        {
          "internalType": "address",
          "name": "to",
          "type": "address"
        },
        {
          "internalType": "uint256[]",
          "name": "ids",
          "type": "uint256[]"
        },
        {
          "internalType": "uint256[]",
          "name": "amounts",
          "type": "uint256[]"
        },
        {
          "internalType": "bytes",
          "name": "data",
          "type": "bytes"
        }
      ],
      "name": "safeBatchTransferFrom",
      "outputs": [],
      "stateMutability": "nonpayable",
      "type": "function"
    },
    {
      "inputs": [
        {
          "internalType": "address",
          "name": "from",
          "type": "address"
        },
        {
          "internalType": "address",
          "name": "to",
          "type": "address"
        },
        {
          "internalType": "uint256",
          "name": "id",
          "type": "uint256"
        },
        {
          "internalType": "uint256",
          "name": "amount",
          "type": "uint256"
        },
        {
          "internalType": "bytes",
          "name": "data",
          "type": "bytes"
        }
      ],
      "name": "safeTransferFrom",
      "outputs": [],
      "stateMutability": "nonpayable",
      "type": "function"
    },
    {
      "inputs": [
        {
          "internalType": "address",
          "name": "operator",
          "type": "address"
        },
        {
          "internalType": "bool",
          "name": "approved",
          "type": "bool"
        }
      ],
      "name": "setApprovalForAll",
      "outputs": [],
      "stateMutability": "nonpayable",
      "type": "function"
    },
    {
      "inputs": [
        {
          "internalType": "uint256",
          "name": "_roundIndex",
          "type": "uint256"
        }
      ],
      "name": "setRoundIndex",
      "outputs": [],
      "stateMutability": "nonpayable",
      "type": "function"
    },
    {
      "inputs": [
        {
          "internalType": "uint256",
          "name": "_time",
          "type": "uint256"
        }
      ],
      "name": "setTimeOnSaleNextRound",
      "outputs": [],
      "stateMutability": "nonpayable",
      "type": "function"
    },
    {
      "inputs": [
        {
          "internalType": "bytes4",
          "name": "interfaceId",
          "type": "bytes4"
        }
      ],
      "name": "supportsInterface",
      "outputs": [
        {
          "internalType": "bool",
          "name": "",
          "type": "bool"
        }
      ],
      "stateMutability": "view",
      "type": "function"
    },
    {
      "inputs": [],
      "name": "timeNextRound",
      "outputs": [
        {
          "internalType": "uint256",
          "name": "",
          "type": "uint256"
        }
      ],
      "stateMutability": "view",
      "type": "function"
    },
    {
      "inputs": [
        {
          "internalType": "address",
          "name": "newOwner",
          "type": "address"
        }
      ],
      "name": "transferOwnership",
      "outputs": [],
      "stateMutability": "nonpayable",
      "type": "function"
    },
    {
      "inputs": [
        {
          "internalType": "uint256",
          "name": "_roundIndex",
          "type": "uint256"
        },
        {
          "internalType": "uint256",
          "name": "newStartTime",
          "type": "uint256"
        },
        {
          "internalType": "uint256",
          "name": "newEndTime",
          "type": "uint256"
        },
        {
          "internalType": "uint256",
          "name": "newMaxNFTsPerUser",
          "type": "uint256"
        },
        {
          "internalType": "uint256",
          "name": "newTotalNFTsInRound",
          "type": "uint256"
        },
        {
          "internalType": "uint256[]",
          "name": "newPrice",
          "type": "uint256[]"
        },
        {
          "internalType": "address",
          "name": "newTokenAddress",
          "type": "address"
        },
        {
          "internalType": "uint256",
          "name": "newTotalSupply",
          "type": "uint256"
        }
      ],
      "name": "updateRound",
      "outputs": [],
      "stateMutability": "nonpayable",
      "type": "function"
    },
    {
      "inputs": [
        {
          "internalType": "uint256",
          "name": "",
          "type": "uint256"
        }
      ],
      "name": "uri",
      "outputs": [
        {
          "internalType": "string",
          "name": "",
          "type": "string"
        }
      ],
      "stateMutability": "view",
      "type": "function"
    },
    {
      "inputs": [
        {
          "internalType": "address",
          "name": "tokenAddr",
          "type": "address"
        }
      ],
      "name": "withdRaw",
      "outputs": [],
      "stateMutability": "nonpayable",
      "type": "function"
    }
  ],
  "bytecode": "0x6080604052600160075562093a806008553480156200001d57600080fd5b50604051806020016040528060008152506200003f816200006660201b60201c565b5062000060620000546200007b60201b60201c565b6200008360201b60201c565b620004aa565b8060029081620000779190620003c3565b5050565b600033905090565b6000600360009054906101000a900473ffffffffffffffffffffffffffffffffffffffff16905081600360006101000a81548173ffffffffffffffffffffffffffffffffffffffff021916908373ffffffffffffffffffffffffffffffffffffffff1602179055508173ffffffffffffffffffffffffffffffffffffffff168173ffffffffffffffffffffffffffffffffffffffff167f8be0079c531659141344cd1fd0a4f28419497f9722a3daafe3b4186f6b6457e060405160405180910390a35050565b600081519050919050565b7f4e487b7100000000000000000000000000000000000000000000000000000000600052604160045260246000fd5b7f4e487b7100000000000000000000000000000000000000000000000000000000600052602260045260246000fd5b60006002820490506001821680620001cb57607f821691505b602082108103620001e157620001e062000183565b5b50919050565b60008190508160005260206000209050919050565b60006020601f8301049050919050565b600082821b905092915050565b6000600883026200024b7fffffffffffffffffffffffffffffffffffffffffffffffffffffffffffffffff826200020c565b6200025786836200020c565b95508019841693508086168417925050509392505050565b6000819050919050565b6000819050919050565b6000620002a46200029e62000298846200026f565b62000279565b6200026f565b9050919050565b6000819050919050565b620002c08362000283565b620002d8620002cf82620002ab565b84845462000219565b825550505050565b600090565b620002ef620002e0565b620002fc818484620002b5565b505050565b5b81811015620003245762000318600082620002e5565b60018101905062000302565b5050565b601f82111562000373576200033d81620001e7565b6200034884620001fc565b8101602085101562000358578190505b620003706200036785620001fc565b83018262000301565b50505b505050565b600082821c905092915050565b6000620003986000198460080262000378565b1980831691505092915050565b6000620003b3838362000385565b9150826002028217905092915050565b620003ce8262000149565b67ffffffffffffffff811115620003ea57620003e962000154565b5b620003f68254620001b2565b6200040382828562000328565b600060209050601f8311600181146200043b576000841562000426578287015190505b620004328582620003a5565b865550620004a2565b601f1984166200044b86620001e7565b60005b8281101562000475578489015182556001820191506020850194506020810190506200044e565b8683101562000495578489015162000491601f89168262000385565b8355505b6001600288020188555050505b505050505050565b6140c380620004ba6000396000f3fe6080604052600436106101655760003560e01c8063648036ae116100d15780638da5cb5b1161008a578063dc17716311610064578063dc1771631461055b578063e985e9c514610586578063f242432a146105c3578063f2fde38b146105ec57610165565b80638da5cb5b146104c45780638f1327c0146104ef578063a22cb4651461053257610165565b8063648036ae146103c35780636a0c71e9146103ee578063715018a6146104175780637f3068851461042e5780638a19c8bc146104575780638c65c81f1461048257610165565b80632d4a16dd116101235780632d4a16dd146102a35780632eb2c2d6146102e05780633821b8aa146103095780634e1273f4146103345780635e11fa5d146103715780635ebb32a21461039a57610165565b8062fdd58e1461016a57806301ffc9a7146101a757806306f1df54146101e45780630e89341c146102215780631d85bf031461025e57806320fe23c81461027a575b600080fd5b34801561017657600080fd5b50610191600480360381019061018c9190612677565b610615565b60405161019e91906126c6565b60405180910390f35b3480156101b357600080fd5b506101ce60048036038101906101c99190612739565b6106dd565b6040516101db9190612781565b60405180910390f35b3480156101f057600080fd5b5061020b6004803603810190610206919061279c565b6107bf565b60405161021891906126c6565b60405180910390f35b34801561022d57600080fd5b50610248600480360381019061024391906127c9565b6107e0565b6040516102559190612886565b60405180910390f35b610278600480360381019061027391906128a8565b610874565b005b34801561028657600080fd5b506102a1600480360381019061029c9190612a30565b610d46565b005b3480156102af57600080fd5b506102ca60048036038101906102c5919061279c565b610df9565b6040516102d791906126c6565b60405180910390f35b3480156102ec57600080fd5b5061030760048036038101906103029190612bb7565b610e11565b005b34801561031557600080fd5b5061031e610eb2565b60405161032b91906126c6565b60405180910390f35b34801561034057600080fd5b5061035b60048036038101906103569190612d49565b610eba565b6040516103689190612e7f565b60405180910390f35b34801561037d57600080fd5b506103986004803603810190610393919061279c565b610fd3565b005b3480156103a657600080fd5b506103c160048036038101906103bc9190612ea1565b611177565b005b3480156103cf57600080fd5b506103d8611243565b6040516103e591906126c6565b60405180910390f35b3480156103fa57600080fd5b50610415600480360381019061041091906127c9565b611249565b005b34801561042357600080fd5b5061042c61125b565b005b34801561043a57600080fd5b50610455600480360381019061045091906127c9565b61126f565b005b34801561046357600080fd5b5061046c611281565b60405161047991906126c6565b60405180910390f35b34801561048e57600080fd5b506104a960048036038101906104a491906127c9565b611287565b6040516104bb96959493929190612f6e565b60405180910390f35b3480156104d057600080fd5b506104d96112e3565b6040516104e69190612fcf565b60405180910390f35b3480156104fb57600080fd5b50610516600480360381019061051191906127c9565b61130d565b6040516105299796959493929190612fea565b60405180910390f35b34801561053e57600080fd5b506105596004803603810190610554919061308c565b6114a8565b005b34801561056757600080fd5b506105706114be565b60405161057d91906126c6565b60405180910390f35b34801561059257600080fd5b506105ad60048036038101906105a891906130cc565b6114c4565b6040516105ba9190612781565b60405180910390f35b3480156105cf57600080fd5b506105ea60048036038101906105e5919061310c565b611558565b005b3480156105f857600080fd5b50610613600480360381019061060e919061279c565b6115f9565b005b60008073ffffffffffffffffffffffffffffffffffffffff168373ffffffffffffffffffffffffffffffffffffffff1603610685576040517f08c379a000000000000000000000000000000000000000000000000000000000815260040161067c90613215565b60405180910390fd5b60008083815260200190815260200160002060008473ffffffffffffffffffffffffffffffffffffffff1673ffffffffffffffffffffffffffffffffffffffff16815260200190815260200160002054905092915050565b60007fd9b67a26000000000000000000000000000000000000000000000000000000007bffffffffffffffffffffffffffffffffffffffffffffffffffffffff1916827bffffffffffffffffffffffffffffffffffffffffffffffffffffffff191614806107a857507f0e89341c000000000000000000000000000000000000000000000000000000007bffffffffffffffffffffffffffffffffffffffffffffffffffffffff1916827bffffffffffffffffffffffffffffffffffffffffffffffffffffffff1916145b806107b857506107b78261167c565b5b9050919050565b60008173ffffffffffffffffffffffffffffffffffffffff16319050919050565b6060600280546107ef90613264565b80601f016020809104026020016040519081016040528092919081815260200182805461081b90613264565b80156108685780601f1061083d57610100808354040283529160200191610868565b820191906000526020600020905b81548152906001019060200180831161084b57829003601f168201915b50505050509050919050565b6000600560006007548152602001908152602001600020905080600001544210156108d4576040517f08c379a00000000000000000000000000000000000000000000000000000000081526004016108cb906132e1565b60405180910390fd5b806001015442111561091b576040517f08c379a00000000000000000000000000000000000000000000000000000000081526004016109129061334d565b60405180910390fd5b80600401805490508210610964576040517f08c379a000000000000000000000000000000000000000000000000000000000815260040161095b906133b9565b60405180910390fd5b8060020154600460003373ffffffffffffffffffffffffffffffffffffffff1673ffffffffffffffffffffffffffffffffffffffff16815260200190815260200160002054846109b49190613408565b11156109f5576040517f08c379a00000000000000000000000000000000000000000000000000000000081526004016109ec90613488565b60405180910390fd5b8060030154838260060154610a0a9190613408565b1115610a4b576040517f08c379a0000000000000000000000000000000000000000000000000000000008152600401610a42906134f4565b60405180910390fd5b600073ffffffffffffffffffffffffffffffffffffffff168160050160009054906101000a900473ffffffffffffffffffffffffffffffffffffffff1673ffffffffffffffffffffffffffffffffffffffff1603610ba15782816004018381548110610aba57610ab9613514565b5b9060005260206000200154610acf9190613543565b3414610b10576040517f08c379a0000000000000000000000000000000000000000000000000000000008152600401610b07906135d1565b60405180910390fd5b610b2b338385604051806020016040528060008152506116e6565b82600460003373ffffffffffffffffffffffffffffffffffffffff1673ffffffffffffffffffffffffffffffffffffffff1681526020019081526020016000206000828254610b7a9190613408565b9250508190555082816006016000828254610b959190613408565b92505081905550610d41565b60003414610be4576040517f08c379a0000000000000000000000000000000000000000000000000000000008152600401610bdb9061363d565b60405180910390fd5b8060050160009054906101000a900473ffffffffffffffffffffffffffffffffffffffff1673ffffffffffffffffffffffffffffffffffffffff166323b872dd3330846004018681548110610c3c57610c3b613514565b5b906000526020600020015487610c529190613543565b6040518463ffffffff1660e01b8152600401610c709392919061365d565b6020604051808303816000875af1158015610c8f573d6000803e3d6000fd5b505050506040513d601f19601f82011682018060405250810190610cb391906136a9565b50610ccf338385604051806020016040528060008152506116e6565b82600460003373ffffffffffffffffffffffffffffffffffffffff1673ffffffffffffffffffffffffffffffffffffffff1681526020019081526020016000206000828254610d1e9190613408565b9250508190555082816006016000828254610d399190613408565b925050819055505b505050565b610d4e611896565b6000600560008a8152602001908152602001600020905087816000018190555086816001018190555085816002018190555084816003018190555083816004019080519060200190610da1929190612565565b50828160050160006101000a81548173ffffffffffffffffffffffffffffffffffffffff021916908373ffffffffffffffffffffffffffffffffffffffff160217905550818160060181905550505050505050505050565b60046020528060005260406000206000915090505481565b610e19611914565b73ffffffffffffffffffffffffffffffffffffffff168573ffffffffffffffffffffffffffffffffffffffff161480610e5f5750610e5e85610e59611914565b6114c4565b5b610e9e576040517f08c379a0000000000000000000000000000000000000000000000000000000008152600401610e9590613748565b60405180910390fd5b610eab858585858561191c565b5050505050565b600042905090565b60608151835114610f00576040517f08c379a0000000000000000000000000000000000000000000000000000000008152600401610ef7906137da565b60405180910390fd5b6000835167ffffffffffffffff811115610f1d57610f1c6128ed565b5b604051908082528060200260200182016040528015610f4b5781602001602082028036833780820191505090505b50905060005b8451811015610fc857610f98858281518110610f7057610f6f613514565b5b6020026020010151858381518110610f8b57610f8a613514565b5b6020026020010151610615565b828281518110610fab57610faa613514565b5b60200260200101818152505080610fc1906137fa565b9050610f51565b508091505092915050565b610fdb611896565b600073ffffffffffffffffffffffffffffffffffffffff168173ffffffffffffffffffffffffffffffffffffffff160361106857600047905061101c6112e3565b73ffffffffffffffffffffffffffffffffffffffff166108fc829081150290604051600060405180830381858888f19350505050158015611061573d6000803e3d6000fd5b5050611174565b600081905060008173ffffffffffffffffffffffffffffffffffffffff166370a08231306040518263ffffffff1660e01b81526004016110a89190612fcf565b602060405180830381865afa1580156110c5573d6000803e3d6000fd5b505050506040513d601f19601f820116820180604052508101906110e99190613857565b90508173ffffffffffffffffffffffffffffffffffffffff1663a9059cbb61110f6112e3565b836040518363ffffffff1660e01b815260040161112d929190613884565b6020604051808303816000875af115801561114c573d6000803e3d6000fd5b505050506040513d601f19601f8201168201806040525081019061117091906136a9565b5050505b50565b61117f611896565b60066000815480929190611192906137fa565b919050555060006005600060065481526020019081526020016000209050878160000181905550868160010181905550858160020181905550848160030181905550838160040190805190602001906111ec929190612565565b50828160050160006101000a81548173ffffffffffffffffffffffffffffffffffffffff021916908373ffffffffffffffffffffffffffffffffffffffff1602179055508181600601819055505050505050505050565b60075481565b611251611896565b8060088190555050565b611263611896565b61126d6000611c3d565b565b611277611896565b8060078190555050565b60065481565b60056020528060005260406000206000915090508060000154908060010154908060020154908060030154908060050160009054906101000a900473ffffffffffffffffffffffffffffffffffffffff16908060060154905086565b6000600360009054906101000a900473ffffffffffffffffffffffffffffffffffffffff16905090565b600080600080606060008060008811801561132a57506006548811155b611369576040517f08c379a0000000000000000000000000000000000000000000000000000000008152600401611360906138f9565b60405180910390fd5b6000600560008a81526020019081526020016000206040518060e0016040529081600082015481526020016001820154815260200160028201548152602001600382015481526020016004820180548060200260200160405190810160405280929190818152602001828054801561140057602002820191906000526020600020905b8154815260200190600101908083116113ec575b505050505081526020016005820160009054906101000a900473ffffffffffffffffffffffffffffffffffffffff1673ffffffffffffffffffffffffffffffffffffffff1673ffffffffffffffffffffffffffffffffffffffff1681526020016006820154815250509050806000015181602001518260400151836060015184608001518560a001518660c00151975097509750975097509750975050919395979092949650565b6114ba6114b3611914565b8383611d03565b5050565b60085481565b6000600160008473ffffffffffffffffffffffffffffffffffffffff1673ffffffffffffffffffffffffffffffffffffffff16815260200190815260200160002060008373ffffffffffffffffffffffffffffffffffffffff1673ffffffffffffffffffffffffffffffffffffffff16815260200190815260200160002060009054906101000a900460ff16905092915050565b611560611914565b73ffffffffffffffffffffffffffffffffffffffff168573ffffffffffffffffffffffffffffffffffffffff1614806115a657506115a5856115a0611914565b6114c4565b5b6115e5576040517f08c379a00000000000000000000000000000000000000000000000000000000081526004016115dc90613748565b60405180910390fd5b6115f28585858585611e6f565b5050505050565b611601611896565b600073ffffffffffffffffffffffffffffffffffffffff168173ffffffffffffffffffffffffffffffffffffffff1603611670576040517f08c379a00000000000000000000000000000000000000000000000000000000081526004016116679061398b565b60405180910390fd5b61167981611c3d565b50565b60007f01ffc9a7000000000000000000000000000000000000000000000000000000007bffffffffffffffffffffffffffffffffffffffffffffffffffffffff1916827bffffffffffffffffffffffffffffffffffffffffffffffffffffffff1916149050919050565b600073ffffffffffffffffffffffffffffffffffffffff168473ffffffffffffffffffffffffffffffffffffffff1603611755576040517f08c379a000000000000000000000000000000000000000000000000000000000815260040161174c90613a1d565b60405180910390fd5b600061175f611914565b9050600061176c8561210a565b905060006117798561210a565b905061178a83600089858589612184565b8460008088815260200190815260200160002060008973ffffffffffffffffffffffffffffffffffffffff1673ffffffffffffffffffffffffffffffffffffffff16815260200190815260200160002060008282546117e99190613408565b925050819055508673ffffffffffffffffffffffffffffffffffffffff16600073ffffffffffffffffffffffffffffffffffffffff168473ffffffffffffffffffffffffffffffffffffffff167fc3d58168c5ae7397731d063d5bbf3d657854427343f4c083240f7aacaa2d0f628989604051611867929190613a3d565b60405180910390a461187e8360008985858961218c565b61188d83600089898989612194565b50505050505050565b61189e611914565b73ffffffffffffffffffffffffffffffffffffffff166118bc6112e3565b73ffffffffffffffffffffffffffffffffffffffff1614611912576040517f08c379a000000000000000000000000000000000000000000000000000000000815260040161190990613ab2565b60405180910390fd5b565b600033905090565b8151835114611960576040517f08c379a000000000000000000000000000000000000000000000000000000000815260040161195790613b44565b60405180910390fd5b600073ffffffffffffffffffffffffffffffffffffffff168473ffffffffffffffffffffffffffffffffffffffff16036119cf576040517f08c379a00000000000000000000000000000000000000000000000000000000081526004016119c690613bd6565b60405180910390fd5b60006119d9611914565b90506119e9818787878787612184565b60005b8451811015611b9a576000858281518110611a0a57611a09613514565b5b602002602001015190506000858381518110611a2957611a28613514565b5b60200260200101519050600080600084815260200190815260200160002060008b73ffffffffffffffffffffffffffffffffffffffff1673ffffffffffffffffffffffffffffffffffffffff16815260200190815260200160002054905081811015611aca576040517f08c379a0000000000000000000000000000000000000000000000000000000008152600401611ac190613c68565b60405180910390fd5b81810360008085815260200190815260200160002060008c73ffffffffffffffffffffffffffffffffffffffff1673ffffffffffffffffffffffffffffffffffffffff168152602001908152602001600020819055508160008085815260200190815260200160002060008b73ffffffffffffffffffffffffffffffffffffffff1673ffffffffffffffffffffffffffffffffffffffff1681526020019081526020016000206000828254611b7f9190613408565b9250508190555050505080611b93906137fa565b90506119ec565b508473ffffffffffffffffffffffffffffffffffffffff168673ffffffffffffffffffffffffffffffffffffffff168273ffffffffffffffffffffffffffffffffffffffff167f4a39dc06d4c0dbc64b70af90fd698a233a518aa5d07e595d983b8c0526c8f7fb8787604051611c11929190613c88565b60405180910390a4611c2781878787878761218c565b611c3581878787878761236b565b505050505050565b6000600360009054906101000a900473ffffffffffffffffffffffffffffffffffffffff16905081600360006101000a81548173ffffffffffffffffffffffffffffffffffffffff021916908373ffffffffffffffffffffffffffffffffffffffff1602179055508173ffffffffffffffffffffffffffffffffffffffff168173ffffffffffffffffffffffffffffffffffffffff167f8be0079c531659141344cd1fd0a4f28419497f9722a3daafe3b4186f6b6457e060405160405180910390a35050565b8173ffffffffffffffffffffffffffffffffffffffff168373ffffffffffffffffffffffffffffffffffffffff1603611d71576040517f08c379a0000000000000000000000000000000000000000000000000000000008152600401611d6890613d31565b60405180910390fd5b80600160008573ffffffffffffffffffffffffffffffffffffffff1673ffffffffffffffffffffffffffffffffffffffff16815260200190815260200160002060008473ffffffffffffffffffffffffffffffffffffffff1673ffffffffffffffffffffffffffffffffffffffff16815260200190815260200160002060006101000a81548160ff0219169083151502179055508173ffffffffffffffffffffffffffffffffffffffff168373ffffffffffffffffffffffffffffffffffffffff167f17307eab39ab6107e8899845ad3d59bd9653f200f220920489ca2b5937696c3183604051611e629190612781565b60405180910390a3505050565b600073ffffffffffffffffffffffffffffffffffffffff168473ffffffffffffffffffffffffffffffffffffffff1603611ede576040517f08c379a0000000000000000000000000000000000000000000000000000000008152600401611ed590613bd6565b60405180910390fd5b6000611ee8611914565b90506000611ef58561210a565b90506000611f028561210a565b9050611f12838989858589612184565b600080600088815260200190815260200160002060008a73ffffffffffffffffffffffffffffffffffffffff1673ffffffffffffffffffffffffffffffffffffffff16815260200190815260200160002054905085811015611fa9576040517f08c379a0000000000000000000000000000000000000000000000000000000008152600401611fa090613c68565b60405180910390fd5b85810360008089815260200190815260200160002060008b73ffffffffffffffffffffffffffffffffffffffff1673ffffffffffffffffffffffffffffffffffffffff168152602001908152602001600020819055508560008089815260200190815260200160002060008a73ffffffffffffffffffffffffffffffffffffffff1673ffffffffffffffffffffffffffffffffffffffff168152602001908152602001600020600082825461205e9190613408565b925050819055508773ffffffffffffffffffffffffffffffffffffffff168973ffffffffffffffffffffffffffffffffffffffff168573ffffffffffffffffffffffffffffffffffffffff167fc3d58168c5ae7397731d063d5bbf3d657854427343f4c083240f7aacaa2d0f628a8a6040516120db929190613a3d565b60405180910390a46120f1848a8a86868a61218c565b6120ff848a8a8a8a8a612194565b505050505050505050565b60606000600167ffffffffffffffff811115612129576121286128ed565b5b6040519080825280602002602001820160405280156121575781602001602082028036833780820191505090505b509050828160008151811061216f5761216e613514565b5b60200260200101818152505080915050919050565b505050505050565b505050505050565b6121b38473ffffffffffffffffffffffffffffffffffffffff16612542565b15612363578373ffffffffffffffffffffffffffffffffffffffff1663f23a6e6187878686866040518663ffffffff1660e01b81526004016121f9959493929190613da6565b6020604051808303816000875af192505050801561223557506040513d601f19601f820116820180604052508101906122329190613e15565b60015b6122da57612241613e4f565b806308c379a00361229d5750612255613e71565b80612260575061229f565b806040517f08c379a00000000000000000000000000000000000000000000000000000000081526004016122949190612886565b60405180910390fd5b505b6040517f08c379a00000000000000000000000000000000000000000000000000000000081526004016122d190613f73565b60405180910390fd5b63f23a6e6160e01b7bffffffffffffffffffffffffffffffffffffffffffffffffffffffff1916817bffffffffffffffffffffffffffffffffffffffffffffffffffffffff191614612361576040517f08c379a000000000000000000000000000000000000000000000000000000000815260040161235890614005565b60405180910390fd5b505b505050505050565b61238a8473ffffffffffffffffffffffffffffffffffffffff16612542565b1561253a578373ffffffffffffffffffffffffffffffffffffffff1663bc197c8187878686866040518663ffffffff1660e01b81526004016123d0959493929190614025565b6020604051808303816000875af192505050801561240c57506040513d601f19601f820116820180604052508101906124099190613e15565b60015b6124b157612418613e4f565b806308c379a003612474575061242c613e71565b806124375750612476565b806040517f08c379a000000000000000000000000000000000000000000000000000000000815260040161246b9190612886565b60405180910390fd5b505b6040517f08c379a00000000000000000000000000000000000000000000000000000000081526004016124a890613f73565b60405180910390fd5b63bc197c8160e01b7bffffffffffffffffffffffffffffffffffffffffffffffffffffffff1916817bffffffffffffffffffffffffffffffffffffffffffffffffffffffff191614612538576040517f08c379a000000000000000000000000000000000000000000000000000000000815260040161252f90614005565b60405180910390fd5b505b505050505050565b6000808273ffffffffffffffffffffffffffffffffffffffff163b119050919050565b8280548282559060005260206000209081019282156125a1579160200282015b828111156125a0578251825591602001919060010190612585565b5b5090506125ae91906125b2565b5090565b5b808211156125cb5760008160009055506001016125b3565b5090565b6000604051905090565b600080fd5b600080fd5b600073ffffffffffffffffffffffffffffffffffffffff82169050919050565b600061260e826125e3565b9050919050565b61261e81612603565b811461262957600080fd5b50565b60008135905061263b81612615565b92915050565b6000819050919050565b61265481612641565b811461265f57600080fd5b50565b6000813590506126718161264b565b92915050565b6000806040838503121561268e5761268d6125d9565b5b600061269c8582860161262c565b92505060206126ad85828601612662565b9150509250929050565b6126c081612641565b82525050565b60006020820190506126db60008301846126b7565b92915050565b60007fffffffff0000000000000000000000000000000000000000000000000000000082169050919050565b612716816126e1565b811461272157600080fd5b50565b6000813590506127338161270d565b92915050565b60006020828403121561274f5761274e6125d9565b5b600061275d84828501612724565b91505092915050565b60008115159050919050565b61277b81612766565b82525050565b60006020820190506127966000830184612772565b92915050565b6000602082840312156127b2576127b16125d9565b5b60006127c08482850161262c565b91505092915050565b6000602082840312156127df576127de6125d9565b5b60006127ed84828501612662565b91505092915050565b600081519050919050565b600082825260208201905092915050565b60005b83811015612830578082015181840152602081019050612815565b60008484015250505050565b6000601f19601f8301169050919050565b6000612858826127f6565b6128628185612801565b9350612872818560208601612812565b61287b8161283c565b840191505092915050565b600060208201905081810360008301526128a0818461284d565b905092915050565b600080604083850312156128bf576128be6125d9565b5b60006128cd85828601612662565b92505060206128de85828601612662565b9150509250929050565b600080fd5b7f4e487b7100000000000000000000000000000000000000000000000000000000600052604160045260246000fd5b6129258261283c565b810181811067ffffffffffffffff82111715612944576129436128ed565b5b80604052505050565b60006129576125cf565b9050612963828261291c565b919050565b600067ffffffffffffffff821115612983576129826128ed565b5b602082029050602081019050919050565b600080fd5b60006129ac6129a784612968565b61294d565b905080838252602082019050602084028301858111156129cf576129ce612994565b5b835b818110156129f857806129e48882612662565b8452602084019350506020810190506129d1565b5050509392505050565b600082601f830112612a1757612a166128e8565b5b8135612a27848260208601612999565b91505092915050565b600080600080600080600080610100898b031215612a5157612a506125d9565b5b6000612a5f8b828c01612662565b9850506020612a708b828c01612662565b9750506040612a818b828c01612662565b9650506060612a928b828c01612662565b9550506080612aa38b828c01612662565b94505060a089013567ffffffffffffffff811115612ac457612ac36125de565b5b612ad08b828c01612a02565b93505060c0612ae18b828c0161262c565b92505060e0612af28b828c01612662565b9150509295985092959890939650565b600080fd5b600067ffffffffffffffff821115612b2257612b216128ed565b5b612b2b8261283c565b9050602081019050919050565b82818337600083830152505050565b6000612b5a612b5584612b07565b61294d565b905082815260208101848484011115612b7657612b75612b02565b5b612b81848285612b38565b509392505050565b600082601f830112612b9e57612b9d6128e8565b5b8135612bae848260208601612b47565b91505092915050565b600080600080600060a08688031215612bd357612bd26125d9565b5b6000612be18882890161262c565b9550506020612bf28882890161262c565b945050604086013567ffffffffffffffff811115612c1357612c126125de565b5b612c1f88828901612a02565b935050606086013567ffffffffffffffff811115612c4057612c3f6125de565b5b612c4c88828901612a02565b925050608086013567ffffffffffffffff811115612c6d57612c6c6125de565b5b612c7988828901612b89565b9150509295509295909350565b600067ffffffffffffffff821115612ca157612ca06128ed565b5b602082029050602081019050919050565b6000612cc5612cc084612c86565b61294d565b90508083825260208201905060208402830185811115612ce857612ce7612994565b5b835b81811015612d115780612cfd888261262c565b845260208401935050602081019050612cea565b5050509392505050565b600082601f830112612d3057612d2f6128e8565b5b8135612d40848260208601612cb2565b91505092915050565b60008060408385031215612d6057612d5f6125d9565b5b600083013567ffffffffffffffff811115612d7e57612d7d6125de565b5b612d8a85828601612d1b565b925050602083013567ffffffffffffffff811115612dab57612daa6125de565b5b612db785828601612a02565b9150509250929050565b600081519050919050565b600082825260208201905092915050565b6000819050602082019050919050565b612df681612641565b82525050565b6000612e088383612ded565b60208301905092915050565b6000602082019050919050565b6000612e2c82612dc1565b612e368185612dcc565b9350612e4183612ddd565b8060005b83811015612e72578151612e598882612dfc565b9750612e6483612e14565b925050600181019050612e45565b5085935050505092915050565b60006020820190508181036000830152612e998184612e21565b905092915050565b600080600080600080600060e0888a031215612ec057612ebf6125d9565b5b6000612ece8a828b01612662565b9750506020612edf8a828b01612662565b9650506040612ef08a828b01612662565b9550506060612f018a828b01612662565b945050608088013567ffffffffffffffff811115612f2257612f216125de565b5b612f2e8a828b01612a02565b93505060a0612f3f8a828b0161262c565b92505060c0612f508a828b01612662565b91505092959891949750929550565b612f6881612603565b82525050565b600060c082019050612f8360008301896126b7565b612f9060208301886126b7565b612f9d60408301876126b7565b612faa60608301866126b7565b612fb76080830185612f5f565b612fc460a08301846126b7565b979650505050505050565b6000602082019050612fe46000830184612f5f565b92915050565b600060e082019050612fff600083018a6126b7565b61300c60208301896126b7565b61301960408301886126b7565b61302660608301876126b7565b81810360808301526130388186612e21565b905061304760a0830185612f5f565b61305460c08301846126b7565b98975050505050505050565b61306981612766565b811461307457600080fd5b50565b60008135905061308681613060565b92915050565b600080604083850312156130a3576130a26125d9565b5b60006130b18582860161262c565b92505060206130c285828601613077565b9150509250929050565b600080604083850312156130e3576130e26125d9565b5b60006130f18582860161262c565b92505060206131028582860161262c565b9150509250929050565b600080600080600060a08688031215613128576131276125d9565b5b60006131368882890161262c565b95505060206131478882890161262c565b945050604061315888828901612662565b935050606061316988828901612662565b925050608086013567ffffffffffffffff81111561318a576131896125de565b5b61319688828901612b89565b9150509295509295909350565b7f455243313135353a2061646472657373207a65726f206973206e6f742061207660008201527f616c6964206f776e657200000000000000000000000000000000000000000000602082015250565b60006131ff602a83612801565b915061320a826131a3565b604082019050919050565b6000602082019050818103600083015261322e816131f2565b9050919050565b7f4e487b7100000000000000000000000000000000000000000000000000000000600052602260045260246000fd5b6000600282049050600182168061327c57607f821691505b60208210810361328f5761328e613235565b5b50919050565b7f4e6f742074696d65206f6e2073616c6500000000000000000000000000000000600082015250565b60006132cb601083612801565b91506132d682613295565b602082019050919050565b600060208201905081810360008301526132fa816132be565b9050919050565b7f506173732074696d65206f6e2073616c65000000000000000000000000000000600082015250565b6000613337601183612801565b915061334282613301565b602082019050919050565b600060208201905081810360008301526133668161332a565b9050919050565b7f496e76616c696420746f6b656e49640000000000000000000000000000000000600082015250565b60006133a3600f83612801565b91506133ae8261336d565b602082019050919050565b600060208201905081810360008301526133d281613396565b9050919050565b7f4e487b7100000000000000000000000000000000000000000000000000000000600052601160045260246000fd5b600061341382612641565b915061341e83612641565b9250828201905080821115613436576134356133d9565b5b92915050565b7f4d6178207175616e746974792075736572000000000000000000000000000000600082015250565b6000613472601183612801565b915061347d8261343c565b602082019050919050565b600060208201905081810360008301526134a181613465565b9050919050565b7f4d6178207175616e7469747920696e20726f756e640000000000000000000000600082015250565b60006134de601583612801565b91506134e9826134a8565b602082019050919050565b6000602082019050818103600083015261350d816134d1565b9050919050565b7f4e487b7100000000000000000000000000000000000000000000000000000000600052603260045260246000fd5b600061354e82612641565b915061355983612641565b925082820261356781612641565b9150828204841483151761357e5761357d6133d9565b5b5092915050565b7f4e6f7420656e6f756768206e617469766520636f696e00000000000000000000600082015250565b60006135bb601683612801565b91506135c682613585565b602082019050919050565b600060208201905081810360008301526135ea816135ae565b9050919050565b7f446f6e74206e6565642065746865720000000000000000000000000000000000600082015250565b6000613627600f83612801565b9150613632826135f1565b602082019050919050565b600060208201905081810360008301526136568161361a565b9050919050565b60006060820190506136726000830186612f5f565b61367f6020830185612f5f565b61368c60408301846126b7565b949350505050565b6000815190506136a381613060565b92915050565b6000602082840312156136bf576136be6125d9565b5b60006136cd84828501613694565b91505092915050565b7f455243313135353a2063616c6c6572206973206e6f7420746f6b656e206f776e60008201527f6572206f7220617070726f766564000000000000000000000000000000000000602082015250565b6000613732602e83612801565b915061373d826136d6565b604082019050919050565b6000602082019050818103600083015261376181613725565b9050919050565b7f455243313135353a206163636f756e747320616e6420696473206c656e67746860008201527f206d69736d617463680000000000000000000000000000000000000000000000602082015250565b60006137c4602983612801565b91506137cf82613768565b604082019050919050565b600060208201905081810360008301526137f3816137b7565b9050919050565b600061380582612641565b91507fffffffffffffffffffffffffffffffffffffffffffffffffffffffffffffffff8203613837576138366133d9565b5b600182019050919050565b6000815190506138518161264b565b92915050565b60006020828403121561386d5761386c6125d9565b5b600061387b84828501613842565b91505092915050565b60006040820190506138996000830185612f5f565b6138a660208301846126b7565b9392505050565b7f526f756e6420646f6573206e6f74206578697374000000000000000000000000600082015250565b60006138e3601483612801565b91506138ee826138ad565b602082019050919050565b60006020820190508181036000830152613912816138d6565b9050919050565b7f4f776e61626c653a206e6577206f776e657220697320746865207a65726f206160008201527f6464726573730000000000000000000000000000000000000000000000000000602082015250565b6000613975602683612801565b915061398082613919565b604082019050919050565b600060208201905081810360008301526139a481613968565b9050919050565b7f455243313135353a206d696e7420746f20746865207a65726f2061646472657360008201527f7300000000000000000000000000000000000000000000000000000000000000602082015250565b6000613a07602183612801565b9150613a12826139ab565b604082019050919050565b60006020820190508181036000830152613a36816139fa565b9050919050565b6000604082019050613a5260008301856126b7565b613a5f60208301846126b7565b9392505050565b7f4f776e61626c653a2063616c6c6572206973206e6f7420746865206f776e6572600082015250565b6000613a9c602083612801565b9150613aa782613a66565b602082019050919050565b60006020820190508181036000830152613acb81613a8f565b9050919050565b7f455243313135353a2069647320616e6420616d6f756e7473206c656e6774682060008201527f6d69736d61746368000000000000000000000000000000000000000000000000602082015250565b6000613b2e602883612801565b9150613b3982613ad2565b604082019050919050565b60006020820190508181036000830152613b5d81613b21565b9050919050565b7f455243313135353a207472616e7366657220746f20746865207a65726f20616460008201527f6472657373000000000000000000000000000000000000000000000000000000602082015250565b6000613bc0602583612801565b9150613bcb82613b64565b604082019050919050565b60006020820190508181036000830152613bef81613bb3565b9050919050565b7f455243313135353a20696e73756666696369656e742062616c616e636520666f60008201527f72207472616e7366657200000000000000000000000000000000000000000000602082015250565b6000613c52602a83612801565b9150613c5d82613bf6565b604082019050919050565b60006020820190508181036000830152613c8181613c45565b9050919050565b60006040820190508181036000830152613ca28185612e21565b90508181036020830152613cb68184612e21565b90509392505050565b7f455243313135353a2073657474696e6720617070726f76616c2073746174757360008201527f20666f722073656c660000000000000000000000000000000000000000000000602082015250565b6000613d1b602983612801565b9150613d2682613cbf565b604082019050919050565b60006020820190508181036000830152613d4a81613d0e565b9050919050565b600081519050919050565b600082825260208201905092915050565b6000613d7882613d51565b613d828185613d5c565b9350613d92818560208601612812565b613d9b8161283c565b840191505092915050565b600060a082019050613dbb6000830188612f5f565b613dc86020830187612f5f565b613dd560408301866126b7565b613de260608301856126b7565b8181036080830152613df48184613d6d565b90509695505050505050565b600081519050613e0f8161270d565b92915050565b600060208284031215613e2b57613e2a6125d9565b5b6000613e3984828501613e00565b91505092915050565b60008160e01c9050919050565b600060033d1115613e6e5760046000803e613e6b600051613e42565b90505b90565b600060443d10613efe57613e836125cf565b60043d036004823e80513d602482011167ffffffffffffffff82111715613eab575050613efe565b808201805167ffffffffffffffff811115613ec95750505050613efe565b80602083010160043d038501811115613ee6575050505050613efe565b613ef58260200185018661291c565b82955050505050505b90565b7f455243313135353a207472616e7366657220746f206e6f6e2d4552433131353560008201527f526563656976657220696d706c656d656e746572000000000000000000000000602082015250565b6000613f5d603483612801565b9150613f6882613f01565b604082019050919050565b60006020820190508181036000830152613f8c81613f50565b9050919050565b7f455243313135353a204552433131353552656365697665722072656a6563746560008201527f6420746f6b656e73000000000000000000000000000000000000000000000000602082015250565b6000613fef602883612801565b9150613ffa82613f93565b604082019050919050565b6000602082019050818103600083015261401e81613fe2565b9050919050565b600060a08201905061403a6000830188612f5f565b6140476020830187612f5f565b81810360408301526140598186612e21565b9050818103606083015261406d8185612e21565b905081810360808301526140818184613d6d565b9050969550505050505056fea26469706673582212205f9b635a58edfd958b936a919e6de6b5c3143179d313e0908047a1016914d27d64736f6c63430008130033",
  "linkReferences": {},
  "deployedLinkReferences": {}
}