{
  "_format": "hh-sol-artifact-1",
  "contractName": "SwordNFTs",
  "sourceName": "contracts/Sword.sol",
  "abi": [
    {
      "inputs": [],
      "stateMutability": "nonpayable",
      "type": "constructor"
    },
    {
      "anonymous": false,
      "inputs": [
        {
          "indexed": true,
          "internalType": "address",
          "name": "account",
          "type": "address"
        },
        {
          "indexed": true,
          "internalType": "address",
          "name": "operator",
          "type": "address"
        },
        {
          "indexed": false,
          "internalType": "bool",
          "name": "approved",
          "type": "bool"
        }
      ],
      "name": "ApprovalForAll",
      "type": "event"
    },
    {
      "anonymous": false,
      "inputs": [
        {
          "indexed": true,
          "internalType": "address",
          "name": "previousOwner",
          "type": "address"
        },
        {
          "indexed": true,
          "internalType": "address",
          "name": "newOwner",
          "type": "address"
        }
      ],
      "name": "OwnershipTransferred",
      "type": "event"
    },
    {
      "anonymous": false,
      "inputs": [
        {
          "indexed": true,
          "internalType": "address",
          "name": "operator",
          "type": "address"
        },
        {
          "indexed": true,
          "internalType": "address",
          "name": "from",
          "type": "address"
        },
        {
          "indexed": true,
          "internalType": "address",
          "name": "to",
          "type": "address"
        },
        {
          "indexed": false,
          "internalType": "uint256[]",
          "name": "ids",
          "type": "uint256[]"
        },
        {
          "indexed": false,
          "internalType": "uint256[]",
          "name": "values",
          "type": "uint256[]"
        }
      ],
      "name": "TransferBatch",
      "type": "event"
    },
    {
      "anonymous": false,
      "inputs": [
        {
          "indexed": true,
          "internalType": "address",
          "name": "operator",
          "type": "address"
        },
        {
          "indexed": true,
          "internalType": "address",
          "name": "from",
          "type": "address"
        },
        {
          "indexed": true,
          "internalType": "address",
          "name": "to",
          "type": "address"
        },
        {
          "indexed": false,
          "internalType": "uint256",
          "name": "id",
          "type": "uint256"
        },
        {
          "indexed": false,
          "internalType": "uint256",
          "name": "value",
          "type": "uint256"
        }
      ],
      "name": "TransferSingle",
      "type": "event"
    },
    {
      "anonymous": false,
      "inputs": [
        {
          "indexed": false,
          "internalType": "string",
          "name": "value",
          "type": "string"
        },
        {
          "indexed": true,
          "internalType": "uint256",
          "name": "id",
          "type": "uint256"
        }
      ],
      "name": "URI",
      "type": "event"
    },
    {
      "inputs": [
        {
          "internalType": "uint256",
          "name": "_startTime",
          "type": "uint256"
        },
        {
          "internalType": "uint256",
          "name": "_endTime",
          "type": "uint256"
        },
        {
          "internalType": "uint256",
          "name": "_maxNFTsPerUser",
          "type": "uint256"
        },
        {
          "internalType": "uint256",
          "name": "_totalNFTsInRound",
          "type": "uint256"
        },
        {
          "internalType": "uint256[]",
          "name": "_prices",
          "type": "uint256[]"
        },
        {
          "internalType": "address",
          "name": "_tokenAddress",
          "type": "address"
        },
        {
          "internalType": "uint256",
          "name": "_newTotalSupply",
          "type": "uint256"
        }
      ],
      "name": "addRound",
      "outputs": [],
      "stateMutability": "nonpayable",
      "type": "function"
    },
    {
      "inputs": [
        {
          "internalType": "address",
          "name": "",
          "type": "address"
        }
      ],
      "name": "amountBought",
      "outputs": [
        {
          "internalType": "uint256",
          "name": "",
          "type": "uint256"
        }
      ],
      "stateMutability": "view",
      "type": "function"
    },
    {
      "inputs": [
        {
          "internalType": "address",
          "name": "account",
          "type": "address"
        },
        {
          "internalType": "uint256",
          "name": "id",
          "type": "uint256"
        }
      ],
      "name": "balanceOf",
      "outputs": [
        {
          "internalType": "uint256",
          "name": "",
          "type": "uint256"
        }
      ],
      "stateMutability": "view",
      "type": "function"
    },
    {
      "inputs": [
        {
          "internalType": "address[]",
          "name": "accounts",
          "type": "address[]"
        },
        {
          "internalType": "uint256[]",
          "name": "ids",
          "type": "uint256[]"
        }
      ],
      "name": "balanceOfBatch",
      "outputs": [
        {
          "internalType": "uint256[]",
          "name": "",
          "type": "uint256[]"
        }
      ],
      "stateMutability": "view",
      "type": "function"
    },
    {
      "inputs": [
        {
          "internalType": "uint256",
          "name": "amount",
          "type": "uint256"
        },
        {
          "internalType": "uint256",
          "name": "tokenId",
          "type": "uint256"
        }
      ],
      "name": "buyNFT",
      "outputs": [],
      "stateMutability": "payable",
      "type": "function"
    },
    {
      "inputs": [],
      "name": "currentRound",
      "outputs": [
        {
          "internalType": "uint256",
          "name": "",
          "type": "uint256"
        }
      ],
      "stateMutability": "view",
      "type": "function"
    },
    {
      "inputs": [
        {
          "internalType": "address",
          "name": "_address",
          "type": "address"
        }
      ],
      "name": "getEtherContractBalance",
      "outputs": [
        {
          "internalType": "uint256",
          "name": "",
          "type": "uint256"
        }
      ],
      "stateMutability": "view",
      "type": "function"
    },
    {
      "inputs": [
        {
          "internalType": "uint256",
          "name": "_roundIndex",
          "type": "uint256"
        }
      ],
      "name": "getRound",
      "outputs": [
        {
          "internalType": "uint256",
          "name": "startTime",
          "type": "uint256"
        },
        {
          "internalType": "uint256",
          "name": "endTime",
          "type": "uint256"
        },
        {
          "internalType": "uint256",
          "name": "maxNFTsPerUser",
          "type": "uint256"
        },
        {
          "internalType": "uint256",
          "name": "totalNFTsInRound",
          "type": "uint256"
        },
        {
          "internalType": "uint256[]",
          "name": "prices",
          "type": "uint256[]"
        },
        {
          "internalType": "address",
          "name": "tokenAddress",
          "type": "address"
        },
        {
          "internalType": "uint256",
          "name": "totalSupply",
          "type": "uint256"
        }
      ],
      "stateMutability": "view",
      "type": "function"
    },
    {
      "inputs": [],
      "name": "getTimeCurrent",
      "outputs": [
        {
          "internalType": "uint256",
          "name": "",
          "type": "uint256"
        }
      ],
      "stateMutability": "view",
      "type": "function"
    },
    {
      "inputs": [
        {
          "internalType": "address",
          "name": "account",
          "type": "address"
        },
        {
          "internalType": "address",
          "name": "operator",
          "type": "address"
        }
      ],
      "name": "isApprovedForAll",
      "outputs": [
        {
          "internalType": "bool",
          "name": "",
          "type": "bool"
        }
      ],
      "stateMutability": "view",
      "type": "function"
    },
    {
      "inputs": [],
      "name": "owner",
      "outputs": [
        {
          "internalType": "address",
          "name": "",
          "type": "address"
        }
      ],
      "stateMutability": "view",
      "type": "function"
    },
    {
      "inputs": [],
      "name": "renounceOwnership",
      "outputs": [],
      "stateMutability": "nonpayable",
      "type": "function"
    },
    {
      "inputs": [],
      "name": "roundIndex",
      "outputs": [
        {
          "internalType": "uint256",
          "name": "",
          "type": "uint256"
        }
      ],
      "stateMutability": "view",
      "type": "function"
    },
    {
      "inputs": [
        {
          "internalType": "uint256",
          "name": "",
          "type": "uint256"
        }
      ],
      "name": "rounds",
      "outputs": [
        {
          "internalType": "uint256",
          "name": "startTime",
          "type": "uint256"
        },
        {
          "internalType": "uint256",
          "name": "endTime",
          "type": "uint256"
        },
        {
          "internalType": "uint256",
          "name": "maxNFTsPerUser",
          "type": "uint256"
        },
        {
          "internalType": "uint256",
          "name": "totalNFTsInRound",
          "type": "uint256"
        },
        {
          "internalType": "address",
          "name": "tokenAddress",
          "type": "address"
        },
        {
          "internalType": "uint256",
          "name": "totalSupply",
          "type": "uint256"
        }
      ],
      "stateMutability": "view",
      "type": "function"
    },
    {
      "inputs": [
        {
          "internalType": "address",
          "name": "from",
          "type": "address"
        },
        {
          "internalType": "address",
          "name": "to",
          "type": "address"
        },
        {
          "internalType": "uint256[]",
          "name": "ids",
          "type": "uint256[]"
        },
        {
          "internalType": "uint256[]",
          "name": "amounts",
          "type": "uint256[]"
        },
        {
          "internalType": "bytes",
          "name": "data",
          "type": "bytes"
        }
      ],
      "name": "safeBatchTransferFrom",
      "outputs": [],
      "stateMutability": "nonpayable",
      "type": "function"
    },
    {
      "inputs": [
        {
          "internalType": "address",
          "name": "from",
          "type": "address"
        },
        {
          "internalType": "address",
          "name": "to",
          "type": "address"
        },
        {
          "internalType": "uint256",
          "name": "id",
          "type": "uint256"
        },
        {
          "internalType": "uint256",
          "name": "amount",
          "type": "uint256"
        },
        {
          "internalType": "bytes",
          "name": "data",
          "type": "bytes"
        }
      ],
      "name": "safeTransferFrom",
      "outputs": [],
      "stateMutability": "nonpayable",
      "type": "function"
    },
    {
      "inputs": [
        {
          "internalType": "address",
          "name": "operator",
          "type": "address"
        },
        {
          "internalType": "bool",
          "name": "approved",
          "type": "bool"
        }
      ],
      "name": "setApprovalForAll",
      "outputs": [],
      "stateMutability": "nonpayable",
      "type": "function"
    },
    {
      "inputs": [
        {
          "internalType": "uint256",
          "name": "_roundIndex",
          "type": "uint256"
        }
      ],
      "name": "setRoundIndex",
      "outputs": [],
      "stateMutability": "nonpayable",
      "type": "function"
    },
    {
      "inputs": [
        {
          "internalType": "uint256",
          "name": "_time",
          "type": "uint256"
        }
      ],
      "name": "setTimeOnSaleNextRound",
      "outputs": [],
      "stateMutability": "nonpayable",
      "type": "function"
    },
    {
      "inputs": [
        {
          "internalType": "bytes4",
          "name": "interfaceId",
          "type": "bytes4"
        }
      ],
      "name": "supportsInterface",
      "outputs": [
        {
          "internalType": "bool",
          "name": "",
          "type": "bool"
        }
      ],
      "stateMutability": "view",
      "type": "function"
    },
    {
      "inputs": [],
      "name": "timeNextRound",
      "outputs": [
        {
          "internalType": "uint256",
          "name": "",
          "type": "uint256"
        }
      ],
      "stateMutability": "view",
      "type": "function"
    },
    {
      "inputs": [
        {
          "internalType": "address",
          "name": "newOwner",
          "type": "address"
        }
      ],
      "name": "transferOwnership",
      "outputs": [],
      "stateMutability": "nonpayable",
      "type": "function"
    },
    {
      "inputs": [
        {
          "internalType": "uint256",
          "name": "_roundIndex",
          "type": "uint256"
        },
        {
          "internalType": "uint256",
          "name": "newStartTime",
          "type": "uint256"
        },
        {
          "internalType": "uint256",
          "name": "newEndTime",
          "type": "uint256"
        },
        {
          "internalType": "uint256",
          "name": "newMaxNFTsPerUser",
          "type": "uint256"
        },
        {
          "internalType": "uint256",
          "name": "newTotalNFTsInRound",
          "type": "uint256"
        },
        {
          "internalType": "uint256[]",
          "name": "newPrice",
          "type": "uint256[]"
        },
        {
          "internalType": "address",
          "name": "newTokenAddress",
          "type": "address"
        },
        {
          "internalType": "uint256",
          "name": "newTotalSupply",
          "type": "uint256"
        }
      ],
      "name": "updateRound",
      "outputs": [],
      "stateMutability": "nonpayable",
      "type": "function"
    },
    {
      "inputs": [
        {
          "internalType": "uint256",
          "name": "",
          "type": "uint256"
        }
      ],
      "name": "uri",
      "outputs": [
        {
          "internalType": "string",
          "name": "",
          "type": "string"
        }
      ],
      "stateMutability": "view",
      "type": "function"
    },
    {
      "inputs": [
        {
          "internalType": "address",
          "name": "tokenAddr",
          "type": "address"
        }
      ],
      "name": "withdRaw",
      "outputs": [],
      "stateMutability": "nonpayable",
      "type": "function"
    }
  ],
  "bytecode": "0x6080604052600160075562093a806008553480156200001d57600080fd5b50604051806020016040528060008152506200003f816200006660201b60201c565b5062000060620000546200007b60201b60201c565b6200008360201b60201c565b620004aa565b8060029081620000779190620003c3565b5050565b600033905090565b6000600360009054906101000a900473ffffffffffffffffffffffffffffffffffffffff16905081600360006101000a81548173ffffffffffffffffffffffffffffffffffffffff021916908373ffffffffffffffffffffffffffffffffffffffff1602179055508173ffffffffffffffffffffffffffffffffffffffff168173ffffffffffffffffffffffffffffffffffffffff167f8be0079c531659141344cd1fd0a4f28419497f9722a3daafe3b4186f6b6457e060405160405180910390a35050565b600081519050919050565b7f4e487b7100000000000000000000000000000000000000000000000000000000600052604160045260246000fd5b7f4e487b7100000000000000000000000000000000000000000000000000000000600052602260045260246000fd5b60006002820490506001821680620001cb57607f821691505b602082108103620001e157620001e062000183565b5b50919050565b60008190508160005260206000209050919050565b60006020601f8301049050919050565b600082821b905092915050565b6000600883026200024b7fffffffffffffffffffffffffffffffffffffffffffffffffffffffffffffffff826200020c565b6200025786836200020c565b95508019841693508086168417925050509392505050565b6000819050919050565b6000819050919050565b6000620002a46200029e62000298846200026f565b62000279565b6200026f565b9050919050565b6000819050919050565b620002c08362000283565b620002d8620002cf82620002ab565b84845462000219565b825550505050565b600090565b620002ef620002e0565b620002fc818484620002b5565b505050565b5b81811015620003245762000318600082620002e5565b60018101905062000302565b5050565b601f82111562000373576200033d81620001e7565b6200034884620001fc565b8101602085101562000358578190505b620003706200036785620001fc565b83018262000301565b50505b505050565b600082821c905092915050565b6000620003986000198460080262000378565b1980831691505092915050565b6000620003b3838362000385565b9150826002028217905092915050565b620003ce8262000149565b67ffffffffffffffff811115620003ea57620003e962000154565b5b620003f68254620001b2565b6200040382828562000328565b600060209050601f8311600181146200043b576000841562000426578287015190505b620004328582620003a5565b865550620004a2565b601f1984166200044b86620001e7565b60005b8281101562000475578489015182556001820191506020850194506020810190506200044e565b8683101562000495578489015162000491601f89168262000385565b8355505b6001600288020188555050505b505050505050565b61454a80620004ba6000396000f3fe6080604052600436106101655760003560e01c8063648036ae116100d15780638da5cb5b1161008a578063dc17716311610064578063dc1771631461055b578063e985e9c514610586578063f242432a146105c3578063f2fde38b146105ec57610165565b80638da5cb5b146104c45780638f1327c0146104ef578063a22cb4651461053257610165565b8063648036ae146103c35780636a0c71e9146103ee578063715018a6146104175780637f3068851461042e5780638a19c8bc146104575780638c65c81f1461048257610165565b80632d4a16dd116101235780632d4a16dd146102a35780632eb2c2d6146102e05780633821b8aa146103095780634e1273f4146103345780635e11fa5d146103715780635ebb32a21461039a57610165565b8062fdd58e1461016a57806301ffc9a7146101a757806306f1df54146101e45780630e89341c146102215780631d85bf031461025e57806320fe23c81461027a575b600080fd5b34801561017657600080fd5b50610191600480360381019061018c919061291b565b610615565b60405161019e919061296a565b60405180910390f35b3480156101b357600080fd5b506101ce60048036038101906101c991906129dd565b6106dd565b6040516101db9190612a25565b60405180910390f35b3480156101f057600080fd5b5061020b60048036038101906102069190612a40565b6107bf565b604051610218919061296a565b60405180910390f35b34801561022d57600080fd5b5061024860048036038101906102439190612a6d565b6107e0565b6040516102559190612b2a565b60405180910390f35b61027860048036038101906102739190612b4c565b610874565b005b34801561028657600080fd5b506102a1600480360381019061029c9190612cd4565b610cdd565b005b3480156102af57600080fd5b506102ca60048036038101906102c59190612a40565b610d90565b6040516102d7919061296a565b60405180910390f35b3480156102ec57600080fd5b5061030760048036038101906103029190612e5b565b610da8565b005b34801561031557600080fd5b5061031e610e49565b60405161032b919061296a565b60405180910390f35b34801561034057600080fd5b5061035b60048036038101906103569190612fed565b610e51565b6040516103689190613123565b60405180910390f35b34801561037d57600080fd5b5061039860048036038101906103939190612a40565b610f6a565b005b3480156103a657600080fd5b506103c160048036038101906103bc9190613145565b61109a565b005b3480156103cf57600080fd5b506103d8611166565b6040516103e5919061296a565b60405180910390f35b3480156103fa57600080fd5b5061041560048036038101906104109190612a6d565b61116c565b005b34801561042357600080fd5b5061042c61117e565b005b34801561043a57600080fd5b5061045560048036038101906104509190612a6d565b611192565b005b34801561046357600080fd5b5061046c6111a4565b604051610479919061296a565b60405180910390f35b34801561048e57600080fd5b506104a960048036038101906104a49190612a6d565b6111aa565b6040516104bb96959493929190613212565b60405180910390f35b3480156104d057600080fd5b506104d9611206565b6040516104e69190613273565b60405180910390f35b3480156104fb57600080fd5b5061051660048036038101906105119190612a6d565b611230565b604051610529979695949392919061328e565b60405180910390f35b34801561053e57600080fd5b5061055960048036038101906105549190613330565b6113cb565b005b34801561056757600080fd5b506105706113e1565b60405161057d919061296a565b60405180910390f35b34801561059257600080fd5b506105ad60048036038101906105a89190613370565b6113e7565b6040516105ba9190612a25565b60405180910390f35b3480156105cf57600080fd5b506105ea60048036038101906105e591906133b0565b61147b565b005b3480156105f857600080fd5b50610613600480360381019061060e9190612a40565b61151c565b005b60008073ffffffffffffffffffffffffffffffffffffffff168373ffffffffffffffffffffffffffffffffffffffff1603610685576040517f08c379a000000000000000000000000000000000000000000000000000000000815260040161067c906134b9565b60405180910390fd5b60008083815260200190815260200160002060008473ffffffffffffffffffffffffffffffffffffffff1673ffffffffffffffffffffffffffffffffffffffff16815260200190815260200160002054905092915050565b60007fd9b67a26000000000000000000000000000000000000000000000000000000007bffffffffffffffffffffffffffffffffffffffffffffffffffffffff1916827bffffffffffffffffffffffffffffffffffffffffffffffffffffffff191614806107a857507f0e89341c000000000000000000000000000000000000000000000000000000007bffffffffffffffffffffffffffffffffffffffffffffffffffffffff1916827bffffffffffffffffffffffffffffffffffffffffffffffffffffffff1916145b806107b857506107b78261159f565b5b9050919050565b60008173ffffffffffffffffffffffffffffffffffffffff16319050919050565b6060600280546107ef90613508565b80601f016020809104026020016040519081016040528092919081815260200182805461081b90613508565b80156108685780601f1061083d57610100808354040283529160200191610868565b820191906000526020600020905b81548152906001019060200180831161084b57829003601f168201915b50505050509050919050565b600060056000600754815260200190815260200160002090506000339050600034905082600001544210156108de576040517f08c379a00000000000000000000000000000000000000000000000000000000081526004016108d590613585565b60405180910390fd5b8260010154421115610925576040517f08c379a000000000000000000000000000000000000000000000000000000000815260040161091c906135f1565b60405180910390fd5b8260040180549050841061096e576040517f08c379a00000000000000000000000000000000000000000000000000000000081526004016109659061365d565b60405180910390fd5b8260020154600460008473ffffffffffffffffffffffffffffffffffffffff1673ffffffffffffffffffffffffffffffffffffffff16815260200190815260200160002054866109be91906136ac565b11156109ff576040517f08c379a00000000000000000000000000000000000000000000000000000000081526004016109f69061372c565b60405180910390fd5b8260030154858460060154610a1491906136ac565b1115610a55576040517f08c379a0000000000000000000000000000000000000000000000000000000008152600401610a4c90613798565b60405180910390fd5b600073ffffffffffffffffffffffffffffffffffffffff168360050160009054906101000a900473ffffffffffffffffffffffffffffffffffffffff1673ffffffffffffffffffffffffffffffffffffffff1603610bab5784836004018581548110610ac457610ac36137b8565b5b9060005260206000200154610ad991906137e7565b8114610b1a576040517f08c379a0000000000000000000000000000000000000000000000000000000008152600401610b1190613875565b60405180910390fd5b84600460008473ffffffffffffffffffffffffffffffffffffffff1673ffffffffffffffffffffffffffffffffffffffff1681526020019081526020016000206000828254610b6991906136ac565b9250508190555084836006016000828254610b8491906136ac565b92505081905550610ba682858760405180602001604052806000815250611609565b610cd6565b60008114610bee576040517f08c379a0000000000000000000000000000000000000000000000000000000008152600401610be5906138e1565b60405180910390fd5b610c498360050160009054906101000a900473ffffffffffffffffffffffffffffffffffffffff168330866004018881548110610c2e57610c2d6137b8565b5b906000526020600020015489610c4491906137e7565b6117b9565b84600460008473ffffffffffffffffffffffffffffffffffffffff1673ffffffffffffffffffffffffffffffffffffffff1681526020019081526020016000206000828254610c9891906136ac565b9250508190555084836006016000828254610cb391906136ac565b92505081905550610cd582858760405180602001604052806000815250611609565b5b5050505050565b610ce5611842565b6000600560008a8152602001908152602001600020905087816000018190555086816001018190555085816002018190555084816003018190555083816004019080519060200190610d38929190612809565b50828160050160006101000a81548173ffffffffffffffffffffffffffffffffffffffff021916908373ffffffffffffffffffffffffffffffffffffffff160217905550818160060181905550505050505050505050565b60046020528060005260406000206000915090505481565b610db06118c0565b73ffffffffffffffffffffffffffffffffffffffff168573ffffffffffffffffffffffffffffffffffffffff161480610df65750610df585610df06118c0565b6113e7565b5b610e35576040517f08c379a0000000000000000000000000000000000000000000000000000000008152600401610e2c90613973565b60405180910390fd5b610e4285858585856118c8565b5050505050565b600042905090565b60608151835114610e97576040517f08c379a0000000000000000000000000000000000000000000000000000000008152600401610e8e90613a05565b60405180910390fd5b6000835167ffffffffffffffff811115610eb457610eb3612b91565b5b604051908082528060200260200182016040528015610ee25781602001602082028036833780820191505090505b50905060005b8451811015610f5f57610f2f858281518110610f0757610f066137b8565b5b6020026020010151858381518110610f2257610f216137b8565b5b6020026020010151610615565b828281518110610f4257610f416137b8565b5b60200260200101818152505080610f5890613a25565b9050610ee8565b508091505092915050565b610f72611842565b600073ffffffffffffffffffffffffffffffffffffffff168173ffffffffffffffffffffffffffffffffffffffff1603610fff576000479050610fb3611206565b73ffffffffffffffffffffffffffffffffffffffff166108fc829081150290604051600060405180830381858888f19350505050158015610ff8573d6000803e3d6000fd5b5050611097565b600081905060008173ffffffffffffffffffffffffffffffffffffffff166370a08231306040518263ffffffff1660e01b815260040161103f9190613273565b602060405180830381865afa15801561105c573d6000803e3d6000fd5b505050506040513d601f19601f820116820180604052508101906110809190613a82565b90506110948261108e611206565b83611be9565b50505b50565b6110a2611842565b600660008154809291906110b590613a25565b9190505550600060056000600654815260200190815260200160002090508781600001819055508681600101819055508581600201819055508481600301819055508381600401908051906020019061110f929190612809565b50828160050160006101000a81548173ffffffffffffffffffffffffffffffffffffffff021916908373ffffffffffffffffffffffffffffffffffffffff1602179055508181600601819055505050505050505050565b60075481565b611174611842565b8060088190555050565b611186611842565b6111906000611c6f565b565b61119a611842565b8060078190555050565b60065481565b60056020528060005260406000206000915090508060000154908060010154908060020154908060030154908060050160009054906101000a900473ffffffffffffffffffffffffffffffffffffffff16908060060154905086565b6000600360009054906101000a900473ffffffffffffffffffffffffffffffffffffffff16905090565b600080600080606060008060008811801561124d57506006548811155b61128c576040517f08c379a000000000000000000000000000000000000000000000000000000000815260040161128390613afb565b60405180910390fd5b6000600560008a81526020019081526020016000206040518060e0016040529081600082015481526020016001820154815260200160028201548152602001600382015481526020016004820180548060200260200160405190810160405280929190818152602001828054801561132357602002820191906000526020600020905b81548152602001906001019080831161130f575b505050505081526020016005820160009054906101000a900473ffffffffffffffffffffffffffffffffffffffff1673ffffffffffffffffffffffffffffffffffffffff1673ffffffffffffffffffffffffffffffffffffffff1681526020016006820154815250509050806000015181602001518260400151836060015184608001518560a001518660c00151975097509750975097509750975050919395979092949650565b6113dd6113d66118c0565b8383611d35565b5050565b60085481565b6000600160008473ffffffffffffffffffffffffffffffffffffffff1673ffffffffffffffffffffffffffffffffffffffff16815260200190815260200160002060008373ffffffffffffffffffffffffffffffffffffffff1673ffffffffffffffffffffffffffffffffffffffff16815260200190815260200160002060009054906101000a900460ff16905092915050565b6114836118c0565b73ffffffffffffffffffffffffffffffffffffffff168573ffffffffffffffffffffffffffffffffffffffff1614806114c957506114c8856114c36118c0565b6113e7565b5b611508576040517f08c379a00000000000000000000000000000000000000000000000000000000081526004016114ff90613973565b60405180910390fd5b6115158585858585611ea1565b5050505050565b611524611842565b600073ffffffffffffffffffffffffffffffffffffffff168173ffffffffffffffffffffffffffffffffffffffff1603611593576040517f08c379a000000000000000000000000000000000000000000000000000000000815260040161158a90613b8d565b60405180910390fd5b61159c81611c6f565b50565b60007f01ffc9a7000000000000000000000000000000000000000000000000000000007bffffffffffffffffffffffffffffffffffffffffffffffffffffffff1916827bffffffffffffffffffffffffffffffffffffffffffffffffffffffff1916149050919050565b600073ffffffffffffffffffffffffffffffffffffffff168473ffffffffffffffffffffffffffffffffffffffff1603611678576040517f08c379a000000000000000000000000000000000000000000000000000000000815260040161166f90613c1f565b60405180910390fd5b60006116826118c0565b9050600061168f8561213c565b9050600061169c8561213c565b90506116ad836000898585896121b6565b8460008088815260200190815260200160002060008973ffffffffffffffffffffffffffffffffffffffff1673ffffffffffffffffffffffffffffffffffffffff168152602001908152602001600020600082825461170c91906136ac565b925050819055508673ffffffffffffffffffffffffffffffffffffffff16600073ffffffffffffffffffffffffffffffffffffffff168473ffffffffffffffffffffffffffffffffffffffff167fc3d58168c5ae7397731d063d5bbf3d657854427343f4c083240f7aacaa2d0f62898960405161178a929190613c3f565b60405180910390a46117a1836000898585896121be565b6117b0836000898989896121c6565b50505050505050565b61183c846323b872dd60e01b8585856040516024016117da93929190613c68565b604051602081830303815290604052907bffffffffffffffffffffffffffffffffffffffffffffffffffffffff19166020820180517bffffffffffffffffffffffffffffffffffffffffffffffffffffffff838183161783525050505061239d565b50505050565b61184a6118c0565b73ffffffffffffffffffffffffffffffffffffffff16611868611206565b73ffffffffffffffffffffffffffffffffffffffff16146118be576040517f08c379a00000000000000000000000000000000000000000000000000000000081526004016118b590613ceb565b60405180910390fd5b565b600033905090565b815183511461190c576040517f08c379a000000000000000000000000000000000000000000000000000000000815260040161190390613d7d565b60405180910390fd5b600073ffffffffffffffffffffffffffffffffffffffff168473ffffffffffffffffffffffffffffffffffffffff160361197b576040517f08c379a000000000000000000000000000000000000000000000000000000000815260040161197290613e0f565b60405180910390fd5b60006119856118c0565b90506119958187878787876121b6565b60005b8451811015611b465760008582815181106119b6576119b56137b8565b5b6020026020010151905060008583815181106119d5576119d46137b8565b5b60200260200101519050600080600084815260200190815260200160002060008b73ffffffffffffffffffffffffffffffffffffffff1673ffffffffffffffffffffffffffffffffffffffff16815260200190815260200160002054905081811015611a76576040517f08c379a0000000000000000000000000000000000000000000000000000000008152600401611a6d90613ea1565b60405180910390fd5b81810360008085815260200190815260200160002060008c73ffffffffffffffffffffffffffffffffffffffff1673ffffffffffffffffffffffffffffffffffffffff168152602001908152602001600020819055508160008085815260200190815260200160002060008b73ffffffffffffffffffffffffffffffffffffffff1673ffffffffffffffffffffffffffffffffffffffff1681526020019081526020016000206000828254611b2b91906136ac565b9250508190555050505080611b3f90613a25565b9050611998565b508473ffffffffffffffffffffffffffffffffffffffff168673ffffffffffffffffffffffffffffffffffffffff168273ffffffffffffffffffffffffffffffffffffffff167f4a39dc06d4c0dbc64b70af90fd698a233a518aa5d07e595d983b8c0526c8f7fb8787604051611bbd929190613ec1565b60405180910390a4611bd38187878787876121be565b611be1818787878787612465565b505050505050565b611c6a8363a9059cbb60e01b8484604051602401611c08929190613ef8565b604051602081830303815290604052907bffffffffffffffffffffffffffffffffffffffffffffffffffffffff19166020820180517bffffffffffffffffffffffffffffffffffffffffffffffffffffffff838183161783525050505061239d565b505050565b6000600360009054906101000a900473ffffffffffffffffffffffffffffffffffffffff16905081600360006101000a81548173ffffffffffffffffffffffffffffffffffffffff021916908373ffffffffffffffffffffffffffffffffffffffff1602179055508173ffffffffffffffffffffffffffffffffffffffff168173ffffffffffffffffffffffffffffffffffffffff167f8be0079c531659141344cd1fd0a4f28419497f9722a3daafe3b4186f6b6457e060405160405180910390a35050565b8173ffffffffffffffffffffffffffffffffffffffff168373ffffffffffffffffffffffffffffffffffffffff1603611da3576040517f08c379a0000000000000000000000000000000000000000000000000000000008152600401611d9a90613f93565b60405180910390fd5b80600160008573ffffffffffffffffffffffffffffffffffffffff1673ffffffffffffffffffffffffffffffffffffffff16815260200190815260200160002060008473ffffffffffffffffffffffffffffffffffffffff1673ffffffffffffffffffffffffffffffffffffffff16815260200190815260200160002060006101000a81548160ff0219169083151502179055508173ffffffffffffffffffffffffffffffffffffffff168373ffffffffffffffffffffffffffffffffffffffff167f17307eab39ab6107e8899845ad3d59bd9653f200f220920489ca2b5937696c3183604051611e949190612a25565b60405180910390a3505050565b600073ffffffffffffffffffffffffffffffffffffffff168473ffffffffffffffffffffffffffffffffffffffff1603611f10576040517f08c379a0000000000000000000000000000000000000000000000000000000008152600401611f0790613e0f565b60405180910390fd5b6000611f1a6118c0565b90506000611f278561213c565b90506000611f348561213c565b9050611f448389898585896121b6565b600080600088815260200190815260200160002060008a73ffffffffffffffffffffffffffffffffffffffff1673ffffffffffffffffffffffffffffffffffffffff16815260200190815260200160002054905085811015611fdb576040517f08c379a0000000000000000000000000000000000000000000000000000000008152600401611fd290613ea1565b60405180910390fd5b85810360008089815260200190815260200160002060008b73ffffffffffffffffffffffffffffffffffffffff1673ffffffffffffffffffffffffffffffffffffffff168152602001908152602001600020819055508560008089815260200190815260200160002060008a73ffffffffffffffffffffffffffffffffffffffff1673ffffffffffffffffffffffffffffffffffffffff168152602001908152602001600020600082825461209091906136ac565b925050819055508773ffffffffffffffffffffffffffffffffffffffff168973ffffffffffffffffffffffffffffffffffffffff168573ffffffffffffffffffffffffffffffffffffffff167fc3d58168c5ae7397731d063d5bbf3d657854427343f4c083240f7aacaa2d0f628a8a60405161210d929190613c3f565b60405180910390a4612123848a8a86868a6121be565b612131848a8a8a8a8a6121c6565b505050505050505050565b60606000600167ffffffffffffffff81111561215b5761215a612b91565b5b6040519080825280602002602001820160405280156121895781602001602082028036833780820191505090505b50905082816000815181106121a1576121a06137b8565b5b60200260200101818152505080915050919050565b505050505050565b505050505050565b6121e58473ffffffffffffffffffffffffffffffffffffffff1661263c565b15612395578373ffffffffffffffffffffffffffffffffffffffff1663f23a6e6187878686866040518663ffffffff1660e01b815260040161222b959493929190614008565b6020604051808303816000875af192505050801561226757506040513d601f19601f820116820180604052508101906122649190614077565b60015b61230c576122736140b1565b806308c379a0036122cf57506122876140d3565b8061229257506122d1565b806040517f08c379a00000000000000000000000000000000000000000000000000000000081526004016122c69190612b2a565b60405180910390fd5b505b6040517f08c379a0000000000000000000000000000000000000000000000000000000008152600401612303906141d5565b60405180910390fd5b63f23a6e6160e01b7bffffffffffffffffffffffffffffffffffffffffffffffffffffffff1916817bffffffffffffffffffffffffffffffffffffffffffffffffffffffff191614612393576040517f08c379a000000000000000000000000000000000000000000000000000000000815260040161238a90614267565b60405180910390fd5b505b505050505050565b60006123ff826040518060400160405280602081526020017f5361666545524332303a206c6f772d6c6576656c2063616c6c206661696c65648152508573ffffffffffffffffffffffffffffffffffffffff1661265f9092919063ffffffff16565b9050600081511480612421575080806020019051810190612420919061429c565b5b612460576040517f08c379a00000000000000000000000000000000000000000000000000000000081526004016124579061433b565b60405180910390fd5b505050565b6124848473ffffffffffffffffffffffffffffffffffffffff1661263c565b15612634578373ffffffffffffffffffffffffffffffffffffffff1663bc197c8187878686866040518663ffffffff1660e01b81526004016124ca95949392919061435b565b6020604051808303816000875af192505050801561250657506040513d601f19601f820116820180604052508101906125039190614077565b60015b6125ab576125126140b1565b806308c379a00361256e57506125266140d3565b806125315750612570565b806040517f08c379a00000000000000000000000000000000000000000000000000000000081526004016125659190612b2a565b60405180910390fd5b505b6040517f08c379a00000000000000000000000000000000000000000000000000000000081526004016125a2906141d5565b60405180910390fd5b63bc197c8160e01b7bffffffffffffffffffffffffffffffffffffffffffffffffffffffff1916817bffffffffffffffffffffffffffffffffffffffffffffffffffffffff191614612632576040517f08c379a000000000000000000000000000000000000000000000000000000000815260040161262990614267565b60405180910390fd5b505b505050505050565b6000808273ffffffffffffffffffffffffffffffffffffffff163b119050919050565b606061266e8484600085612677565b90509392505050565b6060824710156126bc576040517f08c379a00000000000000000000000000000000000000000000000000000000081526004016126b390614435565b60405180910390fd5b6000808673ffffffffffffffffffffffffffffffffffffffff1685876040516126e59190614491565b60006040518083038185875af1925050503d8060008114612722576040519150601f19603f3d011682016040523d82523d6000602084013e612727565b606091505b509150915061273887838387612744565b92505050949350505050565b606083156127a657600083510361279e5761275e8561263c565b61279d576040517f08c379a0000000000000000000000000000000000000000000000000000000008152600401612794906144f4565b60405180910390fd5b5b8290506127b1565b6127b083836127b9565b5b949350505050565b6000825111156127cc5781518083602001fd5b806040517f08c379a00000000000000000000000000000000000000000000000000000000081526004016128009190612b2a565b60405180910390fd5b828054828255906000526020600020908101928215612845579160200282015b82811115612844578251825591602001919060010190612829565b5b5090506128529190612856565b5090565b5b8082111561286f576000816000905550600101612857565b5090565b6000604051905090565b600080fd5b600080fd5b600073ffffffffffffffffffffffffffffffffffffffff82169050919050565b60006128b282612887565b9050919050565b6128c2816128a7565b81146128cd57600080fd5b50565b6000813590506128df816128b9565b92915050565b6000819050919050565b6128f8816128e5565b811461290357600080fd5b50565b600081359050612915816128ef565b92915050565b600080604083850312156129325761293161287d565b5b6000612940858286016128d0565b925050602061295185828601612906565b9150509250929050565b612964816128e5565b82525050565b600060208201905061297f600083018461295b565b92915050565b60007fffffffff0000000000000000000000000000000000000000000000000000000082169050919050565b6129ba81612985565b81146129c557600080fd5b50565b6000813590506129d7816129b1565b92915050565b6000602082840312156129f3576129f261287d565b5b6000612a01848285016129c8565b91505092915050565b60008115159050919050565b612a1f81612a0a565b82525050565b6000602082019050612a3a6000830184612a16565b92915050565b600060208284031215612a5657612a5561287d565b5b6000612a64848285016128d0565b91505092915050565b600060208284031215612a8357612a8261287d565b5b6000612a9184828501612906565b91505092915050565b600081519050919050565b600082825260208201905092915050565b60005b83811015612ad4578082015181840152602081019050612ab9565b60008484015250505050565b6000601f19601f8301169050919050565b6000612afc82612a9a565b612b068185612aa5565b9350612b16818560208601612ab6565b612b1f81612ae0565b840191505092915050565b60006020820190508181036000830152612b448184612af1565b905092915050565b60008060408385031215612b6357612b6261287d565b5b6000612b7185828601612906565b9250506020612b8285828601612906565b9150509250929050565b600080fd5b7f4e487b7100000000000000000000000000000000000000000000000000000000600052604160045260246000fd5b612bc982612ae0565b810181811067ffffffffffffffff82111715612be857612be7612b91565b5b80604052505050565b6000612bfb612873565b9050612c078282612bc0565b919050565b600067ffffffffffffffff821115612c2757612c26612b91565b5b602082029050602081019050919050565b600080fd5b6000612c50612c4b84612c0c565b612bf1565b90508083825260208201905060208402830185811115612c7357612c72612c38565b5b835b81811015612c9c5780612c888882612906565b845260208401935050602081019050612c75565b5050509392505050565b600082601f830112612cbb57612cba612b8c565b5b8135612ccb848260208601612c3d565b91505092915050565b600080600080600080600080610100898b031215612cf557612cf461287d565b5b6000612d038b828c01612906565b9850506020612d148b828c01612906565b9750506040612d258b828c01612906565b9650506060612d368b828c01612906565b9550506080612d478b828c01612906565b94505060a089013567ffffffffffffffff811115612d6857612d67612882565b5b612d748b828c01612ca6565b93505060c0612d858b828c016128d0565b92505060e0612d968b828c01612906565b9150509295985092959890939650565b600080fd5b600067ffffffffffffffff821115612dc657612dc5612b91565b5b612dcf82612ae0565b9050602081019050919050565b82818337600083830152505050565b6000612dfe612df984612dab565b612bf1565b905082815260208101848484011115612e1a57612e19612da6565b5b612e25848285612ddc565b509392505050565b600082601f830112612e4257612e41612b8c565b5b8135612e52848260208601612deb565b91505092915050565b600080600080600060a08688031215612e7757612e7661287d565b5b6000612e85888289016128d0565b9550506020612e96888289016128d0565b945050604086013567ffffffffffffffff811115612eb757612eb6612882565b5b612ec388828901612ca6565b935050606086013567ffffffffffffffff811115612ee457612ee3612882565b5b612ef088828901612ca6565b925050608086013567ffffffffffffffff811115612f1157612f10612882565b5b612f1d88828901612e2d565b9150509295509295909350565b600067ffffffffffffffff821115612f4557612f44612b91565b5b602082029050602081019050919050565b6000612f69612f6484612f2a565b612bf1565b90508083825260208201905060208402830185811115612f8c57612f8b612c38565b5b835b81811015612fb55780612fa188826128d0565b845260208401935050602081019050612f8e565b5050509392505050565b600082601f830112612fd457612fd3612b8c565b5b8135612fe4848260208601612f56565b91505092915050565b600080604083850312156130045761300361287d565b5b600083013567ffffffffffffffff81111561302257613021612882565b5b61302e85828601612fbf565b925050602083013567ffffffffffffffff81111561304f5761304e612882565b5b61305b85828601612ca6565b9150509250929050565b600081519050919050565b600082825260208201905092915050565b6000819050602082019050919050565b61309a816128e5565b82525050565b60006130ac8383613091565b60208301905092915050565b6000602082019050919050565b60006130d082613065565b6130da8185613070565b93506130e583613081565b8060005b838110156131165781516130fd88826130a0565b9750613108836130b8565b9250506001810190506130e9565b5085935050505092915050565b6000602082019050818103600083015261313d81846130c5565b905092915050565b600080600080600080600060e0888a0312156131645761316361287d565b5b60006131728a828b01612906565b97505060206131838a828b01612906565b96505060406131948a828b01612906565b95505060606131a58a828b01612906565b945050608088013567ffffffffffffffff8111156131c6576131c5612882565b5b6131d28a828b01612ca6565b93505060a06131e38a828b016128d0565b92505060c06131f48a828b01612906565b91505092959891949750929550565b61320c816128a7565b82525050565b600060c082019050613227600083018961295b565b613234602083018861295b565b613241604083018761295b565b61324e606083018661295b565b61325b6080830185613203565b61326860a083018461295b565b979650505050505050565b60006020820190506132886000830184613203565b92915050565b600060e0820190506132a3600083018a61295b565b6132b0602083018961295b565b6132bd604083018861295b565b6132ca606083018761295b565b81810360808301526132dc81866130c5565b90506132eb60a0830185613203565b6132f860c083018461295b565b98975050505050505050565b61330d81612a0a565b811461331857600080fd5b50565b60008135905061332a81613304565b92915050565b600080604083850312156133475761334661287d565b5b6000613355858286016128d0565b92505060206133668582860161331b565b9150509250929050565b600080604083850312156133875761338661287d565b5b6000613395858286016128d0565b92505060206133a6858286016128d0565b9150509250929050565b600080600080600060a086880312156133cc576133cb61287d565b5b60006133da888289016128d0565b95505060206133eb888289016128d0565b94505060406133fc88828901612906565b935050606061340d88828901612906565b925050608086013567ffffffffffffffff81111561342e5761342d612882565b5b61343a88828901612e2d565b9150509295509295909350565b7f455243313135353a2061646472657373207a65726f206973206e6f742061207660008201527f616c6964206f776e657200000000000000000000000000000000000000000000602082015250565b60006134a3602a83612aa5565b91506134ae82613447565b604082019050919050565b600060208201905081810360008301526134d281613496565b9050919050565b7f4e487b7100000000000000000000000000000000000000000000000000000000600052602260045260246000fd5b6000600282049050600182168061352057607f821691505b602082108103613533576135326134d9565b5b50919050565b7f4e6f742074696d65206f6e2073616c6500000000000000000000000000000000600082015250565b600061356f601083612aa5565b915061357a82613539565b602082019050919050565b6000602082019050818103600083015261359e81613562565b9050919050565b7f506173732074696d65206f6e2073616c65000000000000000000000000000000600082015250565b60006135db601183612aa5565b91506135e6826135a5565b602082019050919050565b6000602082019050818103600083015261360a816135ce565b9050919050565b7f496e76616c696420746f6b656e49640000000000000000000000000000000000600082015250565b6000613647600f83612aa5565b915061365282613611565b602082019050919050565b600060208201905081810360008301526136768161363a565b9050919050565b7f4e487b7100000000000000000000000000000000000000000000000000000000600052601160045260246000fd5b60006136b7826128e5565b91506136c2836128e5565b92508282019050808211156136da576136d961367d565b5b92915050565b7f4d6178207175616e746974792075736572000000000000000000000000000000600082015250565b6000613716601183612aa5565b9150613721826136e0565b602082019050919050565b6000602082019050818103600083015261374581613709565b9050919050565b7f4d6178207175616e7469747920696e20726f756e640000000000000000000000600082015250565b6000613782601583612aa5565b915061378d8261374c565b602082019050919050565b600060208201905081810360008301526137b181613775565b9050919050565b7f4e487b7100000000000000000000000000000000000000000000000000000000600052603260045260246000fd5b60006137f2826128e5565b91506137fd836128e5565b925082820261380b816128e5565b915082820484148315176138225761382161367d565b5b5092915050565b7f4e6f7420656e6f756768206e617469766520636f696e00000000000000000000600082015250565b600061385f601683612aa5565b915061386a82613829565b602082019050919050565b6000602082019050818103600083015261388e81613852565b9050919050565b7f446f6e74206e6565642065746865720000000000000000000000000000000000600082015250565b60006138cb600f83612aa5565b91506138d682613895565b602082019050919050565b600060208201905081810360008301526138fa816138be565b9050919050565b7f455243313135353a2063616c6c6572206973206e6f7420746f6b656e206f776e60008201527f6572206f7220617070726f766564000000000000000000000000000000000000602082015250565b600061395d602e83612aa5565b915061396882613901565b604082019050919050565b6000602082019050818103600083015261398c81613950565b9050919050565b7f455243313135353a206163636f756e747320616e6420696473206c656e67746860008201527f206d69736d617463680000000000000000000000000000000000000000000000602082015250565b60006139ef602983612aa5565b91506139fa82613993565b604082019050919050565b60006020820190508181036000830152613a1e816139e2565b9050919050565b6000613a30826128e5565b91507fffffffffffffffffffffffffffffffffffffffffffffffffffffffffffffffff8203613a6257613a6161367d565b5b600182019050919050565b600081519050613a7c816128ef565b92915050565b600060208284031215613a9857613a9761287d565b5b6000613aa684828501613a6d565b91505092915050565b7f526f756e6420646f6573206e6f74206578697374000000000000000000000000600082015250565b6000613ae5601483612aa5565b9150613af082613aaf565b602082019050919050565b60006020820190508181036000830152613b1481613ad8565b9050919050565b7f4f776e61626c653a206e6577206f776e657220697320746865207a65726f206160008201527f6464726573730000000000000000000000000000000000000000000000000000602082015250565b6000613b77602683612aa5565b9150613b8282613b1b565b604082019050919050565b60006020820190508181036000830152613ba681613b6a565b9050919050565b7f455243313135353a206d696e7420746f20746865207a65726f2061646472657360008201527f7300000000000000000000000000000000000000000000000000000000000000602082015250565b6000613c09602183612aa5565b9150613c1482613bad565b604082019050919050565b60006020820190508181036000830152613c3881613bfc565b9050919050565b6000604082019050613c54600083018561295b565b613c61602083018461295b565b9392505050565b6000606082019050613c7d6000830186613203565b613c8a6020830185613203565b613c97604083018461295b565b949350505050565b7f4f776e61626c653a2063616c6c6572206973206e6f7420746865206f776e6572600082015250565b6000613cd5602083612aa5565b9150613ce082613c9f565b602082019050919050565b60006020820190508181036000830152613d0481613cc8565b9050919050565b7f455243313135353a2069647320616e6420616d6f756e7473206c656e6774682060008201527f6d69736d61746368000000000000000000000000000000000000000000000000602082015250565b6000613d67602883612aa5565b9150613d7282613d0b565b604082019050919050565b60006020820190508181036000830152613d9681613d5a565b9050919050565b7f455243313135353a207472616e7366657220746f20746865207a65726f20616460008201527f6472657373000000000000000000000000000000000000000000000000000000602082015250565b6000613df9602583612aa5565b9150613e0482613d9d565b604082019050919050565b60006020820190508181036000830152613e2881613dec565b9050919050565b7f455243313135353a20696e73756666696369656e742062616c616e636520666f60008201527f72207472616e7366657200000000000000000000000000000000000000000000602082015250565b6000613e8b602a83612aa5565b9150613e9682613e2f565b604082019050919050565b60006020820190508181036000830152613eba81613e7e565b9050919050565b60006040820190508181036000830152613edb81856130c5565b90508181036020830152613eef81846130c5565b90509392505050565b6000604082019050613f0d6000830185613203565b613f1a602083018461295b565b9392505050565b7f455243313135353a2073657474696e6720617070726f76616c2073746174757360008201527f20666f722073656c660000000000000000000000000000000000000000000000602082015250565b6000613f7d602983612aa5565b9150613f8882613f21565b604082019050919050565b60006020820190508181036000830152613fac81613f70565b9050919050565b600081519050919050565b600082825260208201905092915050565b6000613fda82613fb3565b613fe48185613fbe565b9350613ff4818560208601612ab6565b613ffd81612ae0565b840191505092915050565b600060a08201905061401d6000830188613203565b61402a6020830187613203565b614037604083018661295b565b614044606083018561295b565b81810360808301526140568184613fcf565b90509695505050505050565b600081519050614071816129b1565b92915050565b60006020828403121561408d5761408c61287d565b5b600061409b84828501614062565b91505092915050565b60008160e01c9050919050565b600060033d11156140d05760046000803e6140cd6000516140a4565b90505b90565b600060443d10614160576140e5612873565b60043d036004823e80513d602482011167ffffffffffffffff8211171561410d575050614160565b808201805167ffffffffffffffff81111561412b5750505050614160565b80602083010160043d038501811115614148575050505050614160565b61415782602001850186612bc0565b82955050505050505b90565b7f455243313135353a207472616e7366657220746f206e6f6e2d4552433131353560008201527f526563656976657220696d706c656d656e746572000000000000000000000000602082015250565b60006141bf603483612aa5565b91506141ca82614163565b604082019050919050565b600060208201905081810360008301526141ee816141b2565b9050919050565b7f455243313135353a204552433131353552656365697665722072656a6563746560008201527f6420746f6b656e73000000000000000000000000000000000000000000000000602082015250565b6000614251602883612aa5565b915061425c826141f5565b604082019050919050565b6000602082019050818103600083015261428081614244565b9050919050565b60008151905061429681613304565b92915050565b6000602082840312156142b2576142b161287d565b5b60006142c084828501614287565b91505092915050565b7f5361666545524332303a204552433230206f7065726174696f6e20646964206e60008201527f6f74207375636365656400000000000000000000000000000000000000000000602082015250565b6000614325602a83612aa5565b9150614330826142c9565b604082019050919050565b6000602082019050818103600083015261435481614318565b9050919050565b600060a0820190506143706000830188613203565b61437d6020830187613203565b818103604083015261438f81866130c5565b905081810360608301526143a381856130c5565b905081810360808301526143b78184613fcf565b90509695505050505050565b7f416464726573733a20696e73756666696369656e742062616c616e636520666f60008201527f722063616c6c0000000000000000000000000000000000000000000000000000602082015250565b600061441f602683612aa5565b915061442a826143c3565b604082019050919050565b6000602082019050818103600083015261444e81614412565b9050919050565b600081905092915050565b600061446b82613fb3565b6144758185614455565b9350614485818560208601612ab6565b80840191505092915050565b600061449d8284614460565b915081905092915050565b7f416464726573733a2063616c6c20746f206e6f6e2d636f6e7472616374000000600082015250565b60006144de601d83612aa5565b91506144e9826144a8565b602082019050919050565b6000602082019050818103600083015261450d816144d1565b905091905056fea26469706673582212209c4f65343181c0b812fcbe8e6f2dad6ccc9dfd17511db0c3878a72e5446c11ab64736f6c63430008130033",
  "linkReferences": {},
  "deployedLinkReferences": {}
}