{
  "_format": "hh-sol-artifact-1",
  "contractName": "SwordNFTs",
  "sourceName": "contracts/Sword.sol",
  "abi": [
    {
      "inputs": [],
      "stateMutability": "nonpayable",
      "type": "constructor"
    },
    {
      "anonymous": false,
      "inputs": [
        {
          "indexed": true,
          "internalType": "address",
          "name": "account",
          "type": "address"
        },
        {
          "indexed": true,
          "internalType": "address",
          "name": "operator",
          "type": "address"
        },
        {
          "indexed": false,
          "internalType": "bool",
          "name": "approved",
          "type": "bool"
        }
      ],
      "name": "ApprovalForAll",
      "type": "event"
    },
    {
      "anonymous": false,
      "inputs": [
        {
          "indexed": true,
          "internalType": "address",
          "name": "previousOwner",
          "type": "address"
        },
        {
          "indexed": true,
          "internalType": "address",
          "name": "newOwner",
          "type": "address"
        }
      ],
      "name": "OwnershipTransferred",
      "type": "event"
    },
    {
      "anonymous": false,
      "inputs": [
        {
          "indexed": true,
          "internalType": "address",
          "name": "operator",
          "type": "address"
        },
        {
          "indexed": true,
          "internalType": "address",
          "name": "from",
          "type": "address"
        },
        {
          "indexed": true,
          "internalType": "address",
          "name": "to",
          "type": "address"
        },
        {
          "indexed": false,
          "internalType": "uint256[]",
          "name": "ids",
          "type": "uint256[]"
        },
        {
          "indexed": false,
          "internalType": "uint256[]",
          "name": "values",
          "type": "uint256[]"
        }
      ],
      "name": "TransferBatch",
      "type": "event"
    },
    {
      "anonymous": false,
      "inputs": [
        {
          "indexed": true,
          "internalType": "address",
          "name": "operator",
          "type": "address"
        },
        {
          "indexed": true,
          "internalType": "address",
          "name": "from",
          "type": "address"
        },
        {
          "indexed": true,
          "internalType": "address",
          "name": "to",
          "type": "address"
        },
        {
          "indexed": false,
          "internalType": "uint256",
          "name": "id",
          "type": "uint256"
        },
        {
          "indexed": false,
          "internalType": "uint256",
          "name": "value",
          "type": "uint256"
        }
      ],
      "name": "TransferSingle",
      "type": "event"
    },
    {
      "anonymous": false,
      "inputs": [
        {
          "indexed": false,
          "internalType": "string",
          "name": "value",
          "type": "string"
        },
        {
          "indexed": true,
          "internalType": "uint256",
          "name": "id",
          "type": "uint256"
        }
      ],
      "name": "URI",
      "type": "event"
    },
    {
      "inputs": [
        {
          "internalType": "uint256",
          "name": "_startTime",
          "type": "uint256"
        },
        {
          "internalType": "uint256",
          "name": "_endTime",
          "type": "uint256"
        },
        {
          "internalType": "uint256",
          "name": "_maxNFTsPerUser",
          "type": "uint256"
        },
        {
          "internalType": "uint256",
          "name": "_totalNFTsInRound",
          "type": "uint256"
        },
        {
          "internalType": "uint256[]",
          "name": "_prices",
          "type": "uint256[]"
        },
        {
          "internalType": "address",
          "name": "_tokenAddress",
          "type": "address"
        }
      ],
      "name": "addRound",
      "outputs": [],
      "stateMutability": "nonpayable",
      "type": "function"
    },
    {
      "inputs": [
        {
          "internalType": "address",
          "name": "account",
          "type": "address"
        },
        {
          "internalType": "uint256",
          "name": "id",
          "type": "uint256"
        }
      ],
      "name": "balanceOf",
      "outputs": [
        {
          "internalType": "uint256",
          "name": "",
          "type": "uint256"
        }
      ],
      "stateMutability": "view",
      "type": "function"
    },
    {
      "inputs": [
        {
          "internalType": "address[]",
          "name": "accounts",
          "type": "address[]"
        },
        {
          "internalType": "uint256[]",
          "name": "ids",
          "type": "uint256[]"
        }
      ],
      "name": "balanceOfBatch",
      "outputs": [
        {
          "internalType": "uint256[]",
          "name": "",
          "type": "uint256[]"
        }
      ],
      "stateMutability": "view",
      "type": "function"
    },
    {
      "inputs": [
        {
          "internalType": "uint256",
          "name": "amount",
          "type": "uint256"
        },
        {
          "internalType": "uint256",
          "name": "tokenId",
          "type": "uint256"
        }
      ],
      "name": "buyNFT",
      "outputs": [],
      "stateMutability": "payable",
      "type": "function"
    },
    {
      "inputs": [],
      "name": "currentRound",
      "outputs": [
        {
          "internalType": "uint256",
          "name": "",
          "type": "uint256"
        }
      ],
      "stateMutability": "view",
      "type": "function"
    },
    {
      "inputs": [
        {
          "internalType": "uint256",
          "name": "roundIndex",
          "type": "uint256"
        }
      ],
      "name": "getRound",
      "outputs": [
        {
          "internalType": "uint256",
          "name": "startTime",
          "type": "uint256"
        },
        {
          "internalType": "uint256",
          "name": "endTime",
          "type": "uint256"
        },
        {
          "internalType": "uint256",
          "name": "maxNFTsPerUser",
          "type": "uint256"
        },
        {
          "internalType": "uint256",
          "name": "totalNFTsInRound",
          "type": "uint256"
        },
        {
          "internalType": "uint256[]",
          "name": "prices",
          "type": "uint256[]"
        },
        {
          "internalType": "address",
          "name": "tokenAddress",
          "type": "address"
        }
      ],
      "stateMutability": "view",
      "type": "function"
    },
    {
      "inputs": [
        {
          "internalType": "address",
          "name": "account",
          "type": "address"
        },
        {
          "internalType": "address",
          "name": "operator",
          "type": "address"
        }
      ],
      "name": "isApprovedForAll",
      "outputs": [
        {
          "internalType": "bool",
          "name": "",
          "type": "bool"
        }
      ],
      "stateMutability": "view",
      "type": "function"
    },
    {
      "inputs": [],
      "name": "owner",
      "outputs": [
        {
          "internalType": "address",
          "name": "",
          "type": "address"
        }
      ],
      "stateMutability": "view",
      "type": "function"
    },
    {
      "inputs": [],
      "name": "renounceOwnership",
      "outputs": [],
      "stateMutability": "nonpayable",
      "type": "function"
    },
    {
      "inputs": [
        {
          "internalType": "uint256",
          "name": "",
          "type": "uint256"
        }
      ],
      "name": "rounds",
      "outputs": [
        {
          "internalType": "uint256",
          "name": "startTime",
          "type": "uint256"
        },
        {
          "internalType": "uint256",
          "name": "endTime",
          "type": "uint256"
        },
        {
          "internalType": "uint256",
          "name": "maxNFTsPerUser",
          "type": "uint256"
        },
        {
          "internalType": "uint256",
          "name": "totalNFTsInRound",
          "type": "uint256"
        },
        {
          "internalType": "address",
          "name": "tokenAddress",
          "type": "address"
        }
      ],
      "stateMutability": "view",
      "type": "function"
    },
    {
      "inputs": [
        {
          "internalType": "address",
          "name": "from",
          "type": "address"
        },
        {
          "internalType": "address",
          "name": "to",
          "type": "address"
        },
        {
          "internalType": "uint256[]",
          "name": "ids",
          "type": "uint256[]"
        },
        {
          "internalType": "uint256[]",
          "name": "amounts",
          "type": "uint256[]"
        },
        {
          "internalType": "bytes",
          "name": "data",
          "type": "bytes"
        }
      ],
      "name": "safeBatchTransferFrom",
      "outputs": [],
      "stateMutability": "nonpayable",
      "type": "function"
    },
    {
      "inputs": [
        {
          "internalType": "address",
          "name": "from",
          "type": "address"
        },
        {
          "internalType": "address",
          "name": "to",
          "type": "address"
        },
        {
          "internalType": "uint256",
          "name": "id",
          "type": "uint256"
        },
        {
          "internalType": "uint256",
          "name": "amount",
          "type": "uint256"
        },
        {
          "internalType": "bytes",
          "name": "data",
          "type": "bytes"
        }
      ],
      "name": "safeTransferFrom",
      "outputs": [],
      "stateMutability": "nonpayable",
      "type": "function"
    },
    {
      "inputs": [
        {
          "internalType": "address",
          "name": "operator",
          "type": "address"
        },
        {
          "internalType": "bool",
          "name": "approved",
          "type": "bool"
        }
      ],
      "name": "setApprovalForAll",
      "outputs": [],
      "stateMutability": "nonpayable",
      "type": "function"
    },
    {
      "inputs": [
        {
          "internalType": "uint256",
          "name": "_time",
          "type": "uint256"
        }
      ],
      "name": "setTimeOnSaleNextRound",
      "outputs": [],
      "stateMutability": "nonpayable",
      "type": "function"
    },
    {
      "inputs": [
        {
          "internalType": "bytes4",
          "name": "interfaceId",
          "type": "bytes4"
        }
      ],
      "name": "supportsInterface",
      "outputs": [
        {
          "internalType": "bool",
          "name": "",
          "type": "bool"
        }
      ],
      "stateMutability": "view",
      "type": "function"
    },
    {
      "inputs": [],
      "name": "timeNextRound",
      "outputs": [
        {
          "internalType": "uint256",
          "name": "",
          "type": "uint256"
        }
      ],
      "stateMutability": "view",
      "type": "function"
    },
    {
      "inputs": [
        {
          "internalType": "address",
          "name": "newOwner",
          "type": "address"
        }
      ],
      "name": "transferOwnership",
      "outputs": [],
      "stateMutability": "nonpayable",
      "type": "function"
    },
    {
      "inputs": [
        {
          "internalType": "uint256",
          "name": "roundIndex",
          "type": "uint256"
        },
        {
          "internalType": "uint256",
          "name": "newStartTime",
          "type": "uint256"
        },
        {
          "internalType": "uint256",
          "name": "newEndTime",
          "type": "uint256"
        },
        {
          "internalType": "uint256",
          "name": "newMaxNFTsPerUser",
          "type": "uint256"
        },
        {
          "internalType": "uint256",
          "name": "newTotalNFTsInRound",
          "type": "uint256"
        },
        {
          "internalType": "uint256[]",
          "name": "newPrice",
          "type": "uint256[]"
        },
        {
          "internalType": "address",
          "name": "newTokenAddress",
          "type": "address"
        }
      ],
      "name": "updateRound",
      "outputs": [],
      "stateMutability": "nonpayable",
      "type": "function"
    },
    {
      "inputs": [
        {
          "internalType": "uint256",
          "name": "",
          "type": "uint256"
        }
      ],
      "name": "uri",
      "outputs": [
        {
          "internalType": "string",
          "name": "",
          "type": "string"
        }
      ],
      "stateMutability": "view",
      "type": "function"
    }
  ],
  "bytecode": "0x608060405262093a806006553480156200001857600080fd5b50604051806020016040528060008152506200003a816200006160201b60201c565b506200005b6200004f6200007660201b60201c565b6200007e60201b60201c565b620004a5565b8060029081620000729190620003be565b5050565b600033905090565b6000600360009054906101000a900473ffffffffffffffffffffffffffffffffffffffff16905081600360006101000a81548173ffffffffffffffffffffffffffffffffffffffff021916908373ffffffffffffffffffffffffffffffffffffffff1602179055508173ffffffffffffffffffffffffffffffffffffffff168173ffffffffffffffffffffffffffffffffffffffff167f8be0079c531659141344cd1fd0a4f28419497f9722a3daafe3b4186f6b6457e060405160405180910390a35050565b600081519050919050565b7f4e487b7100000000000000000000000000000000000000000000000000000000600052604160045260246000fd5b7f4e487b7100000000000000000000000000000000000000000000000000000000600052602260045260246000fd5b60006002820490506001821680620001c657607f821691505b602082108103620001dc57620001db6200017e565b5b50919050565b60008190508160005260206000209050919050565b60006020601f8301049050919050565b600082821b905092915050565b600060088302620002467fffffffffffffffffffffffffffffffffffffffffffffffffffffffffffffffff8262000207565b62000252868362000207565b95508019841693508086168417925050509392505050565b6000819050919050565b6000819050919050565b60006200029f6200029962000293846200026a565b62000274565b6200026a565b9050919050565b6000819050919050565b620002bb836200027e565b620002d3620002ca82620002a6565b84845462000214565b825550505050565b600090565b620002ea620002db565b620002f7818484620002b0565b505050565b5b818110156200031f5762000313600082620002e0565b600181019050620002fd565b5050565b601f8211156200036e576200033881620001e2565b6200034384620001f7565b8101602085101562000353578190505b6200036b6200036285620001f7565b830182620002fc565b50505b505050565b600082821c905092915050565b6000620003936000198460080262000373565b1980831691505092915050565b6000620003ae838362000380565b9150826002028217905092915050565b620003c98262000144565b67ffffffffffffffff811115620003e557620003e46200014f565b5b620003f18254620001ad565b620003fe82828562000323565b600060209050601f83116001811462000436576000841562000421578287015190505b6200042d8582620003a0565b8655506200049d565b601f1984166200044686620001e2565b60005b82811015620004705784890151825560018201915060208501945060208101905062000449565b868310156200049057848901516200048c601f89168262000380565b8355505b6001600288020188555050505b505050505050565b613b0c80620004b56000396000f3fe6080604052600436106101135760003560e01c80638c65c81f116100a0578063adb9d3e911610064578063adb9d3e9146103bc578063dc177163146103e5578063e985e9c514610410578063f242432a1461044d578063f2fde38b1461047657610113565b80638c65c81f146102bc5780638da5cb5b146102fd5780638f1327c01461032857806396223a881461036a578063a22cb4651461039357610113565b80632eb2c2d6116100e75780632eb2c2d6146101eb5780634e1273f4146102145780636a0c71e914610251578063715018a61461027a5780638a19c8bc1461029157610113565b8062fdd58e1461011857806301ffc9a7146101555780630e89341c146101925780631d85bf03146101cf575b600080fd5b34801561012457600080fd5b5061013f600480360381019061013a9190612190565b61049f565b60405161014c91906121df565b60405180910390f35b34801561016157600080fd5b5061017c60048036038101906101779190612252565b610567565b604051610189919061229a565b60405180910390f35b34801561019e57600080fd5b506101b960048036038101906101b491906122b5565b610649565b6040516101c69190612372565b60405180910390f35b6101e960048036038101906101e49190612394565b6106dd565b005b3480156101f757600080fd5b50610212600480360381019061020d91906125d1565b610a6a565b005b34801561022057600080fd5b5061023b60048036038101906102369190612763565b610b0b565b6040516102489190612899565b60405180910390f35b34801561025d57600080fd5b50610278600480360381019061027391906122b5565b610c24565b005b34801561028657600080fd5b5061028f610c36565b005b34801561029d57600080fd5b506102a6610c4a565b6040516102b391906121df565b60405180910390f35b3480156102c857600080fd5b506102e360048036038101906102de91906122b5565b610c50565b6040516102f49594939291906128ca565b60405180910390f35b34801561030957600080fd5b50610312610ca6565b60405161031f919061291d565b60405180910390f35b34801561033457600080fd5b5061034f600480360381019061034a91906122b5565b610cd0565b60405161036196959493929190612938565b60405180910390f35b34801561037657600080fd5b50610391600480360381019061038c91906129a0565b610e56565b005b34801561039f57600080fd5b506103ba60048036038101906103b59190612a8a565b610eff565b005b3480156103c857600080fd5b506103e360048036038101906103de9190612aca565b610f15565b005b3480156103f157600080fd5b506103fa610fd7565b60405161040791906121df565b60405180910390f35b34801561041c57600080fd5b5061043760048036038101906104329190612b73565b610fdd565b604051610444919061229a565b60405180910390f35b34801561045957600080fd5b50610474600480360381019061046f9190612bb3565b611071565b005b34801561048257600080fd5b5061049d60048036038101906104989190612c4a565b611112565b005b60008073ffffffffffffffffffffffffffffffffffffffff168373ffffffffffffffffffffffffffffffffffffffff160361050f576040517f08c379a000000000000000000000000000000000000000000000000000000000815260040161050690612ce9565b60405180910390fd5b60008083815260200190815260200160002060008473ffffffffffffffffffffffffffffffffffffffff1673ffffffffffffffffffffffffffffffffffffffff16815260200190815260200160002054905092915050565b60007fd9b67a26000000000000000000000000000000000000000000000000000000007bffffffffffffffffffffffffffffffffffffffffffffffffffffffff1916827bffffffffffffffffffffffffffffffffffffffffffffffffffffffff1916148061063257507f0e89341c000000000000000000000000000000000000000000000000000000007bffffffffffffffffffffffffffffffffffffffffffffffffffffffff1916827bffffffffffffffffffffffffffffffffffffffffffffffffffffffff1916145b80610642575061064182611195565b5b9050919050565b60606002805461065890612d38565b80601f016020809104026020016040519081016040528092919081815260200182805461068490612d38565b80156106d15780601f106106a6576101008083540402835291602001916106d1565b820191906000526020600020905b8154815290600101906020018083116106b457829003601f168201915b50505050509050919050565b60006004600060055481526020019081526020016000209050806000015442101561073d576040517f08c379a000000000000000000000000000000000000000000000000000000000815260040161073490612db5565b60405180910390fd5b8060010154421115610784576040517f08c379a000000000000000000000000000000000000000000000000000000000815260040161077b90612e21565b60405180910390fd5b806004018054905082106107cd576040517f08c379a00000000000000000000000000000000000000000000000000000000081526004016107c490612e8d565b60405180910390fd5b600160055411156108535760006004600060016005546107ed9190612edc565b81526020019081526020016000209050600654816001015461080f9190612f10565b421015610851576040517f08c379a000000000000000000000000000000000000000000000000000000000815260040161084890612fb6565b60405180910390fd5b505b600073ffffffffffffffffffffffffffffffffffffffff168160050160009054906101000a900473ffffffffffffffffffffffffffffffffffffffff1673ffffffffffffffffffffffffffffffffffffffff160361093857828160040183815481106108c2576108c1612fd6565b5b90600052602060002001546108d79190613005565b3414610918576040517f08c379a000000000000000000000000000000000000000000000000000000000815260040161090f90613093565b60405180910390fd5b610933338385604051806020016040528060008152506111ff565b610a65565b6000341461097b576040517f08c379a0000000000000000000000000000000000000000000000000000000008152600401610972906130ff565b60405180910390fd5b8060050160009054906101000a900473ffffffffffffffffffffffffffffffffffffffff1673ffffffffffffffffffffffffffffffffffffffff1663a9059cbb338360040185815481106109d2576109d1612fd6565b5b9060005260206000200154866109e89190613005565b6040518363ffffffff1660e01b8152600401610a0592919061311f565b6020604051808303816000875af1158015610a24573d6000803e3d6000fd5b505050506040513d601f19601f82011682018060405250810190610a48919061315d565b50610a64338385604051806020016040528060008152506111ff565b5b505050565b610a726113af565b73ffffffffffffffffffffffffffffffffffffffff168573ffffffffffffffffffffffffffffffffffffffff161480610ab85750610ab785610ab26113af565b610fdd565b5b610af7576040517f08c379a0000000000000000000000000000000000000000000000000000000008152600401610aee906131fc565b60405180910390fd5b610b0485858585856113b7565b5050505050565b60608151835114610b51576040517f08c379a0000000000000000000000000000000000000000000000000000000008152600401610b489061328e565b60405180910390fd5b6000835167ffffffffffffffff811115610b6e57610b6d6123d9565b5b604051908082528060200260200182016040528015610b9c5781602001602082028036833780820191505090505b50905060005b8451811015610c1957610be9858281518110610bc157610bc0612fd6565b5b6020026020010151858381518110610bdc57610bdb612fd6565b5b602002602001015161049f565b828281518110610bfc57610bfb612fd6565b5b60200260200101818152505080610c12906132ae565b9050610ba2565b508091505092915050565b610c2c6116d8565b8060068190555050565b610c3e6116d8565b610c486000611756565b565b60055481565b60046020528060005260406000206000915090508060000154908060010154908060020154908060030154908060050160009054906101000a900473ffffffffffffffffffffffffffffffffffffffff16905085565b6000600360009054906101000a900473ffffffffffffffffffffffffffffffffffffffff16905090565b600080600080606060008087118015610ceb57506005548711155b610d2a576040517f08c379a0000000000000000000000000000000000000000000000000000000008152600401610d2190613342565b60405180910390fd5b6000600460008981526020019081526020016000206040518060c00160405290816000820154815260200160018201548152602001600282015481526020016003820154815260200160048201805480602002602001604051908101604052809291908181526020018280548015610dc157602002820191906000526020600020905b815481526020019060010190808311610dad575b505050505081526020016005820160009054906101000a900473ffffffffffffffffffffffffffffffffffffffff1673ffffffffffffffffffffffffffffffffffffffff1673ffffffffffffffffffffffffffffffffffffffff16815250509050806000015181602001518260400151836060015184608001518560a001519650965096509650965096505091939550919395565b610e5e6116d8565b600060046000898152602001908152602001600020905086816000018190555085816001018190555084816002018190555083816003018190555082816004019080519060200190610eb192919061207e565b50818160050160006101000a81548173ffffffffffffffffffffffffffffffffffffffff021916908373ffffffffffffffffffffffffffffffffffffffff1602179055505050505050505050565b610f11610f0a6113af565b838361181c565b5050565b610f1d6116d8565b60056000815480929190610f30906132ae565b91905055506000600460006005548152602001908152602001600020905086816000018190555085816001018190555084816002018190555083816003018190555082816004019080519060200190610f8a92919061207e565b50818160050160006101000a81548173ffffffffffffffffffffffffffffffffffffffff021916908373ffffffffffffffffffffffffffffffffffffffff16021790555050505050505050565b60065481565b6000600160008473ffffffffffffffffffffffffffffffffffffffff1673ffffffffffffffffffffffffffffffffffffffff16815260200190815260200160002060008373ffffffffffffffffffffffffffffffffffffffff1673ffffffffffffffffffffffffffffffffffffffff16815260200190815260200160002060009054906101000a900460ff16905092915050565b6110796113af565b73ffffffffffffffffffffffffffffffffffffffff168573ffffffffffffffffffffffffffffffffffffffff1614806110bf57506110be856110b96113af565b610fdd565b5b6110fe576040517f08c379a00000000000000000000000000000000000000000000000000000000081526004016110f5906131fc565b60405180910390fd5b61110b8585858585611988565b5050505050565b61111a6116d8565b600073ffffffffffffffffffffffffffffffffffffffff168173ffffffffffffffffffffffffffffffffffffffff1603611189576040517f08c379a0000000000000000000000000000000000000000000000000000000008152600401611180906133d4565b60405180910390fd5b61119281611756565b50565b60007f01ffc9a7000000000000000000000000000000000000000000000000000000007bffffffffffffffffffffffffffffffffffffffffffffffffffffffff1916827bffffffffffffffffffffffffffffffffffffffffffffffffffffffff1916149050919050565b600073ffffffffffffffffffffffffffffffffffffffff168473ffffffffffffffffffffffffffffffffffffffff160361126e576040517f08c379a000000000000000000000000000000000000000000000000000000000815260040161126590613466565b60405180910390fd5b60006112786113af565b9050600061128585611c23565b9050600061129285611c23565b90506112a383600089858589611c9d565b8460008088815260200190815260200160002060008973ffffffffffffffffffffffffffffffffffffffff1673ffffffffffffffffffffffffffffffffffffffff16815260200190815260200160002060008282546113029190612f10565b925050819055508673ffffffffffffffffffffffffffffffffffffffff16600073ffffffffffffffffffffffffffffffffffffffff168473ffffffffffffffffffffffffffffffffffffffff167fc3d58168c5ae7397731d063d5bbf3d657854427343f4c083240f7aacaa2d0f628989604051611380929190613486565b60405180910390a461139783600089858589611ca5565b6113a683600089898989611cad565b50505050505050565b600033905090565b81518351146113fb576040517f08c379a00000000000000000000000000000000000000000000000000000000081526004016113f290613521565b60405180910390fd5b600073ffffffffffffffffffffffffffffffffffffffff168473ffffffffffffffffffffffffffffffffffffffff160361146a576040517f08c379a0000000000000000000000000000000000000000000000000000000008152600401611461906135b3565b60405180910390fd5b60006114746113af565b9050611484818787878787611c9d565b60005b84518110156116355760008582815181106114a5576114a4612fd6565b5b6020026020010151905060008583815181106114c4576114c3612fd6565b5b60200260200101519050600080600084815260200190815260200160002060008b73ffffffffffffffffffffffffffffffffffffffff1673ffffffffffffffffffffffffffffffffffffffff16815260200190815260200160002054905081811015611565576040517f08c379a000000000000000000000000000000000000000000000000000000000815260040161155c90613645565b60405180910390fd5b81810360008085815260200190815260200160002060008c73ffffffffffffffffffffffffffffffffffffffff1673ffffffffffffffffffffffffffffffffffffffff168152602001908152602001600020819055508160008085815260200190815260200160002060008b73ffffffffffffffffffffffffffffffffffffffff1673ffffffffffffffffffffffffffffffffffffffff168152602001908152602001600020600082825461161a9190612f10565b925050819055505050508061162e906132ae565b9050611487565b508473ffffffffffffffffffffffffffffffffffffffff168673ffffffffffffffffffffffffffffffffffffffff168273ffffffffffffffffffffffffffffffffffffffff167f4a39dc06d4c0dbc64b70af90fd698a233a518aa5d07e595d983b8c0526c8f7fb87876040516116ac929190613665565b60405180910390a46116c2818787878787611ca5565b6116d0818787878787611e84565b505050505050565b6116e06113af565b73ffffffffffffffffffffffffffffffffffffffff166116fe610ca6565b73ffffffffffffffffffffffffffffffffffffffff1614611754576040517f08c379a000000000000000000000000000000000000000000000000000000000815260040161174b906136e8565b60405180910390fd5b565b6000600360009054906101000a900473ffffffffffffffffffffffffffffffffffffffff16905081600360006101000a81548173ffffffffffffffffffffffffffffffffffffffff021916908373ffffffffffffffffffffffffffffffffffffffff1602179055508173ffffffffffffffffffffffffffffffffffffffff168173ffffffffffffffffffffffffffffffffffffffff167f8be0079c531659141344cd1fd0a4f28419497f9722a3daafe3b4186f6b6457e060405160405180910390a35050565b8173ffffffffffffffffffffffffffffffffffffffff168373ffffffffffffffffffffffffffffffffffffffff160361188a576040517f08c379a00000000000000000000000000000000000000000000000000000000081526004016118819061377a565b60405180910390fd5b80600160008573ffffffffffffffffffffffffffffffffffffffff1673ffffffffffffffffffffffffffffffffffffffff16815260200190815260200160002060008473ffffffffffffffffffffffffffffffffffffffff1673ffffffffffffffffffffffffffffffffffffffff16815260200190815260200160002060006101000a81548160ff0219169083151502179055508173ffffffffffffffffffffffffffffffffffffffff168373ffffffffffffffffffffffffffffffffffffffff167f17307eab39ab6107e8899845ad3d59bd9653f200f220920489ca2b5937696c318360405161197b919061229a565b60405180910390a3505050565b600073ffffffffffffffffffffffffffffffffffffffff168473ffffffffffffffffffffffffffffffffffffffff16036119f7576040517f08c379a00000000000000000000000000000000000000000000000000000000081526004016119ee906135b3565b60405180910390fd5b6000611a016113af565b90506000611a0e85611c23565b90506000611a1b85611c23565b9050611a2b838989858589611c9d565b600080600088815260200190815260200160002060008a73ffffffffffffffffffffffffffffffffffffffff1673ffffffffffffffffffffffffffffffffffffffff16815260200190815260200160002054905085811015611ac2576040517f08c379a0000000000000000000000000000000000000000000000000000000008152600401611ab990613645565b60405180910390fd5b85810360008089815260200190815260200160002060008b73ffffffffffffffffffffffffffffffffffffffff1673ffffffffffffffffffffffffffffffffffffffff168152602001908152602001600020819055508560008089815260200190815260200160002060008a73ffffffffffffffffffffffffffffffffffffffff1673ffffffffffffffffffffffffffffffffffffffff1681526020019081526020016000206000828254611b779190612f10565b925050819055508773ffffffffffffffffffffffffffffffffffffffff168973ffffffffffffffffffffffffffffffffffffffff168573ffffffffffffffffffffffffffffffffffffffff167fc3d58168c5ae7397731d063d5bbf3d657854427343f4c083240f7aacaa2d0f628a8a604051611bf4929190613486565b60405180910390a4611c0a848a8a86868a611ca5565b611c18848a8a8a8a8a611cad565b505050505050505050565b60606000600167ffffffffffffffff811115611c4257611c416123d9565b5b604051908082528060200260200182016040528015611c705781602001602082028036833780820191505090505b5090508281600081518110611c8857611c87612fd6565b5b60200260200101818152505080915050919050565b505050505050565b505050505050565b611ccc8473ffffffffffffffffffffffffffffffffffffffff1661205b565b15611e7c578373ffffffffffffffffffffffffffffffffffffffff1663f23a6e6187878686866040518663ffffffff1660e01b8152600401611d129594939291906137ef565b6020604051808303816000875af1925050508015611d4e57506040513d601f19601f82011682018060405250810190611d4b919061385e565b60015b611df357611d5a613898565b806308c379a003611db65750611d6e6138ba565b80611d795750611db8565b806040517f08c379a0000000000000000000000000000000000000000000000000000000008152600401611dad9190612372565b60405180910390fd5b505b6040517f08c379a0000000000000000000000000000000000000000000000000000000008152600401611dea906139bc565b60405180910390fd5b63f23a6e6160e01b7bffffffffffffffffffffffffffffffffffffffffffffffffffffffff1916817bffffffffffffffffffffffffffffffffffffffffffffffffffffffff191614611e7a576040517f08c379a0000000000000000000000000000000000000000000000000000000008152600401611e7190613a4e565b60405180910390fd5b505b505050505050565b611ea38473ffffffffffffffffffffffffffffffffffffffff1661205b565b15612053578373ffffffffffffffffffffffffffffffffffffffff1663bc197c8187878686866040518663ffffffff1660e01b8152600401611ee9959493929190613a6e565b6020604051808303816000875af1925050508015611f2557506040513d601f19601f82011682018060405250810190611f22919061385e565b60015b611fca57611f31613898565b806308c379a003611f8d5750611f456138ba565b80611f505750611f8f565b806040517f08c379a0000000000000000000000000000000000000000000000000000000008152600401611f849190612372565b60405180910390fd5b505b6040517f08c379a0000000000000000000000000000000000000000000000000000000008152600401611fc1906139bc565b60405180910390fd5b63bc197c8160e01b7bffffffffffffffffffffffffffffffffffffffffffffffffffffffff1916817bffffffffffffffffffffffffffffffffffffffffffffffffffffffff191614612051576040517f08c379a000000000000000000000000000000000000000000000000000000000815260040161204890613a4e565b60405180910390fd5b505b505050505050565b6000808273ffffffffffffffffffffffffffffffffffffffff163b119050919050565b8280548282559060005260206000209081019282156120ba579160200282015b828111156120b957825182559160200191906001019061209e565b5b5090506120c791906120cb565b5090565b5b808211156120e45760008160009055506001016120cc565b5090565b6000604051905090565b600080fd5b600080fd5b600073ffffffffffffffffffffffffffffffffffffffff82169050919050565b6000612127826120fc565b9050919050565b6121378161211c565b811461214257600080fd5b50565b6000813590506121548161212e565b92915050565b6000819050919050565b61216d8161215a565b811461217857600080fd5b50565b60008135905061218a81612164565b92915050565b600080604083850312156121a7576121a66120f2565b5b60006121b585828601612145565b92505060206121c68582860161217b565b9150509250929050565b6121d98161215a565b82525050565b60006020820190506121f460008301846121d0565b92915050565b60007fffffffff0000000000000000000000000000000000000000000000000000000082169050919050565b61222f816121fa565b811461223a57600080fd5b50565b60008135905061224c81612226565b92915050565b600060208284031215612268576122676120f2565b5b60006122768482850161223d565b91505092915050565b60008115159050919050565b6122948161227f565b82525050565b60006020820190506122af600083018461228b565b92915050565b6000602082840312156122cb576122ca6120f2565b5b60006122d98482850161217b565b91505092915050565b600081519050919050565b600082825260208201905092915050565b60005b8381101561231c578082015181840152602081019050612301565b60008484015250505050565b6000601f19601f8301169050919050565b6000612344826122e2565b61234e81856122ed565b935061235e8185602086016122fe565b61236781612328565b840191505092915050565b6000602082019050818103600083015261238c8184612339565b905092915050565b600080604083850312156123ab576123aa6120f2565b5b60006123b98582860161217b565b92505060206123ca8582860161217b565b9150509250929050565b600080fd5b7f4e487b7100000000000000000000000000000000000000000000000000000000600052604160045260246000fd5b61241182612328565b810181811067ffffffffffffffff821117156124305761242f6123d9565b5b80604052505050565b60006124436120e8565b905061244f8282612408565b919050565b600067ffffffffffffffff82111561246f5761246e6123d9565b5b602082029050602081019050919050565b600080fd5b600061249861249384612454565b612439565b905080838252602082019050602084028301858111156124bb576124ba612480565b5b835b818110156124e457806124d0888261217b565b8452602084019350506020810190506124bd565b5050509392505050565b600082601f830112612503576125026123d4565b5b8135612513848260208601612485565b91505092915050565b600080fd5b600067ffffffffffffffff82111561253c5761253b6123d9565b5b61254582612328565b9050602081019050919050565b82818337600083830152505050565b600061257461256f84612521565b612439565b9050828152602081018484840111156125905761258f61251c565b5b61259b848285612552565b509392505050565b600082601f8301126125b8576125b76123d4565b5b81356125c8848260208601612561565b91505092915050565b600080600080600060a086880312156125ed576125ec6120f2565b5b60006125fb88828901612145565b955050602061260c88828901612145565b945050604086013567ffffffffffffffff81111561262d5761262c6120f7565b5b612639888289016124ee565b935050606086013567ffffffffffffffff81111561265a576126596120f7565b5b612666888289016124ee565b925050608086013567ffffffffffffffff811115612687576126866120f7565b5b612693888289016125a3565b9150509295509295909350565b600067ffffffffffffffff8211156126bb576126ba6123d9565b5b602082029050602081019050919050565b60006126df6126da846126a0565b612439565b9050808382526020820190506020840283018581111561270257612701612480565b5b835b8181101561272b57806127178882612145565b845260208401935050602081019050612704565b5050509392505050565b600082601f83011261274a576127496123d4565b5b813561275a8482602086016126cc565b91505092915050565b6000806040838503121561277a576127796120f2565b5b600083013567ffffffffffffffff811115612798576127976120f7565b5b6127a485828601612735565b925050602083013567ffffffffffffffff8111156127c5576127c46120f7565b5b6127d1858286016124ee565b9150509250929050565b600081519050919050565b600082825260208201905092915050565b6000819050602082019050919050565b6128108161215a565b82525050565b60006128228383612807565b60208301905092915050565b6000602082019050919050565b6000612846826127db565b61285081856127e6565b935061285b836127f7565b8060005b8381101561288c5781516128738882612816565b975061287e8361282e565b92505060018101905061285f565b5085935050505092915050565b600060208201905081810360008301526128b3818461283b565b905092915050565b6128c48161211c565b82525050565b600060a0820190506128df60008301886121d0565b6128ec60208301876121d0565b6128f960408301866121d0565b61290660608301856121d0565b61291360808301846128bb565b9695505050505050565b600060208201905061293260008301846128bb565b92915050565b600060c08201905061294d60008301896121d0565b61295a60208301886121d0565b61296760408301876121d0565b61297460608301866121d0565b8181036080830152612986818561283b565b905061299560a08301846128bb565b979650505050505050565b600080600080600080600060e0888a0312156129bf576129be6120f2565b5b60006129cd8a828b0161217b565b97505060206129de8a828b0161217b565b96505060406129ef8a828b0161217b565b9550506060612a008a828b0161217b565b9450506080612a118a828b0161217b565b93505060a088013567ffffffffffffffff811115612a3257612a316120f7565b5b612a3e8a828b016124ee565b92505060c0612a4f8a828b01612145565b91505092959891949750929550565b612a678161227f565b8114612a7257600080fd5b50565b600081359050612a8481612a5e565b92915050565b60008060408385031215612aa157612aa06120f2565b5b6000612aaf85828601612145565b9250506020612ac085828601612a75565b9150509250929050565b60008060008060008060c08789031215612ae757612ae66120f2565b5b6000612af589828a0161217b565b9650506020612b0689828a0161217b565b9550506040612b1789828a0161217b565b9450506060612b2889828a0161217b565b935050608087013567ffffffffffffffff811115612b4957612b486120f7565b5b612b5589828a016124ee565b92505060a0612b6689828a01612145565b9150509295509295509295565b60008060408385031215612b8a57612b896120f2565b5b6000612b9885828601612145565b9250506020612ba985828601612145565b9150509250929050565b600080600080600060a08688031215612bcf57612bce6120f2565b5b6000612bdd88828901612145565b9550506020612bee88828901612145565b9450506040612bff8882890161217b565b9350506060612c108882890161217b565b925050608086013567ffffffffffffffff811115612c3157612c306120f7565b5b612c3d888289016125a3565b9150509295509295909350565b600060208284031215612c6057612c5f6120f2565b5b6000612c6e84828501612145565b91505092915050565b7f455243313135353a2061646472657373207a65726f206973206e6f742061207660008201527f616c6964206f776e657200000000000000000000000000000000000000000000602082015250565b6000612cd3602a836122ed565b9150612cde82612c77565b604082019050919050565b60006020820190508181036000830152612d0281612cc6565b9050919050565b7f4e487b7100000000000000000000000000000000000000000000000000000000600052602260045260246000fd5b60006002820490506001821680612d5057607f821691505b602082108103612d6357612d62612d09565b5b50919050565b7f4e6f742074696d65206f70656e2073616c650000000000000000000000000000600082015250565b6000612d9f6012836122ed565b9150612daa82612d69565b602082019050919050565b60006020820190508181036000830152612dce81612d92565b9050919050565b7f506173732074696d65206f6e2073616c65000000000000000000000000000000600082015250565b6000612e0b6011836122ed565b9150612e1682612dd5565b602082019050919050565b60006020820190508181036000830152612e3a81612dfe565b9050919050565b7f496e76616c696420746f6b656e49640000000000000000000000000000000000600082015250565b6000612e77600f836122ed565b9150612e8282612e41565b602082019050919050565b60006020820190508181036000830152612ea681612e6a565b9050919050565b7f4e487b7100000000000000000000000000000000000000000000000000000000600052601160045260246000fd5b6000612ee78261215a565b9150612ef28361215a565b9250828203905081811115612f0a57612f09612ead565b5b92915050565b6000612f1b8261215a565b9150612f268361215a565b9250828201905080821115612f3e57612f3d612ead565b5b92915050565b7f49742773206e6f742074696d6520746f2073746172742073656c6c696e67207460008201527f6865206e657720726f756e642079657400000000000000000000000000000000602082015250565b6000612fa06030836122ed565b9150612fab82612f44565b604082019050919050565b60006020820190508181036000830152612fcf81612f93565b9050919050565b7f4e487b7100000000000000000000000000000000000000000000000000000000600052603260045260246000fd5b60006130108261215a565b915061301b8361215a565b92508282026130298161215a565b915082820484148315176130405761303f612ead565b5b5092915050565b7f4e6f7420656e6f756768206e617469766520636f696e00000000000000000000600082015250565b600061307d6016836122ed565b915061308882613047565b602082019050919050565b600060208201905081810360008301526130ac81613070565b9050919050565b7f446f6e74206e65656420746f6b656e2049440000000000000000000000000000600082015250565b60006130e96012836122ed565b91506130f4826130b3565b602082019050919050565b60006020820190508181036000830152613118816130dc565b9050919050565b600060408201905061313460008301856128bb565b61314160208301846121d0565b9392505050565b60008151905061315781612a5e565b92915050565b600060208284031215613173576131726120f2565b5b600061318184828501613148565b91505092915050565b7f455243313135353a2063616c6c6572206973206e6f7420746f6b656e206f776e60008201527f6572206f7220617070726f766564000000000000000000000000000000000000602082015250565b60006131e6602e836122ed565b91506131f18261318a565b604082019050919050565b60006020820190508181036000830152613215816131d9565b9050919050565b7f455243313135353a206163636f756e747320616e6420696473206c656e67746860008201527f206d69736d617463680000000000000000000000000000000000000000000000602082015250565b60006132786029836122ed565b91506132838261321c565b604082019050919050565b600060208201905081810360008301526132a78161326b565b9050919050565b60006132b98261215a565b91507fffffffffffffffffffffffffffffffffffffffffffffffffffffffffffffffff82036132eb576132ea612ead565b5b600182019050919050565b7f526f756e6420646f6573206e6f74206578697374000000000000000000000000600082015250565b600061332c6014836122ed565b9150613337826132f6565b602082019050919050565b6000602082019050818103600083015261335b8161331f565b9050919050565b7f4f776e61626c653a206e6577206f776e657220697320746865207a65726f206160008201527f6464726573730000000000000000000000000000000000000000000000000000602082015250565b60006133be6026836122ed565b91506133c982613362565b604082019050919050565b600060208201905081810360008301526133ed816133b1565b9050919050565b7f455243313135353a206d696e7420746f20746865207a65726f2061646472657360008201527f7300000000000000000000000000000000000000000000000000000000000000602082015250565b60006134506021836122ed565b915061345b826133f4565b604082019050919050565b6000602082019050818103600083015261347f81613443565b9050919050565b600060408201905061349b60008301856121d0565b6134a860208301846121d0565b9392505050565b7f455243313135353a2069647320616e6420616d6f756e7473206c656e6774682060008201527f6d69736d61746368000000000000000000000000000000000000000000000000602082015250565b600061350b6028836122ed565b9150613516826134af565b604082019050919050565b6000602082019050818103600083015261353a816134fe565b9050919050565b7f455243313135353a207472616e7366657220746f20746865207a65726f20616460008201527f6472657373000000000000000000000000000000000000000000000000000000602082015250565b600061359d6025836122ed565b91506135a882613541565b604082019050919050565b600060208201905081810360008301526135cc81613590565b9050919050565b7f455243313135353a20696e73756666696369656e742062616c616e636520666f60008201527f72207472616e7366657200000000000000000000000000000000000000000000602082015250565b600061362f602a836122ed565b915061363a826135d3565b604082019050919050565b6000602082019050818103600083015261365e81613622565b9050919050565b6000604082019050818103600083015261367f818561283b565b90508181036020830152613693818461283b565b90509392505050565b7f4f776e61626c653a2063616c6c6572206973206e6f7420746865206f776e6572600082015250565b60006136d26020836122ed565b91506136dd8261369c565b602082019050919050565b60006020820190508181036000830152613701816136c5565b9050919050565b7f455243313135353a2073657474696e6720617070726f76616c2073746174757360008201527f20666f722073656c660000000000000000000000000000000000000000000000602082015250565b60006137646029836122ed565b915061376f82613708565b604082019050919050565b6000602082019050818103600083015261379381613757565b9050919050565b600081519050919050565b600082825260208201905092915050565b60006137c18261379a565b6137cb81856137a5565b93506137db8185602086016122fe565b6137e481612328565b840191505092915050565b600060a08201905061380460008301886128bb565b61381160208301876128bb565b61381e60408301866121d0565b61382b60608301856121d0565b818103608083015261383d81846137b6565b90509695505050505050565b60008151905061385881612226565b92915050565b600060208284031215613874576138736120f2565b5b600061388284828501613849565b91505092915050565b60008160e01c9050919050565b600060033d11156138b75760046000803e6138b460005161388b565b90505b90565b600060443d10613947576138cc6120e8565b60043d036004823e80513d602482011167ffffffffffffffff821117156138f4575050613947565b808201805167ffffffffffffffff8111156139125750505050613947565b80602083010160043d03850181111561392f575050505050613947565b61393e82602001850186612408565b82955050505050505b90565b7f455243313135353a207472616e7366657220746f206e6f6e2d4552433131353560008201527f526563656976657220696d706c656d656e746572000000000000000000000000602082015250565b60006139a66034836122ed565b91506139b18261394a565b604082019050919050565b600060208201905081810360008301526139d581613999565b9050919050565b7f455243313135353a204552433131353552656365697665722072656a6563746560008201527f6420746f6b656e73000000000000000000000000000000000000000000000000602082015250565b6000613a386028836122ed565b9150613a43826139dc565b604082019050919050565b60006020820190508181036000830152613a6781613a2b565b9050919050565b600060a082019050613a8360008301886128bb565b613a9060208301876128bb565b8181036040830152613aa2818661283b565b90508181036060830152613ab6818561283b565b90508181036080830152613aca81846137b6565b9050969550505050505056fea26469706673582212209481d6f6c1e7a86f93d16db9c964adef9359901b00af5e1c269953c5502662ff64736f6c63430008130033",
  "linkReferences": {},
  "deployedLinkReferences": {}
}