{
  "_format": "hh-sol-artifact-1",
  "contractName": "SwordNFTs",
  "sourceName": "contracts/Sword.sol",
  "abi": [
    {
      "inputs": [
        {
          "internalType": "address",
          "name": "addressContractMint",
          "type": "address"
        }
      ],
      "stateMutability": "nonpayable",
      "type": "constructor"
    },
    {
      "anonymous": false,
      "inputs": [
        {
          "indexed": false,
          "internalType": "address",
          "name": "addressUser",
          "type": "address"
        },
        {
          "indexed": false,
          "internalType": "uint256",
          "name": "amount",
          "type": "uint256"
        },
        {
          "indexed": false,
          "internalType": "uint256",
          "name": "tokenId",
          "type": "uint256"
        }
      ],
      "name": "BuyNFTs",
      "type": "event"
    },
    {
      "anonymous": false,
      "inputs": [
        {
          "indexed": true,
          "internalType": "address",
          "name": "previousOwner",
          "type": "address"
        },
        {
          "indexed": true,
          "internalType": "address",
          "name": "newOwner",
          "type": "address"
        }
      ],
      "name": "OwnershipTransferred",
      "type": "event"
    },
    {
      "anonymous": false,
      "inputs": [
        {
          "indexed": false,
          "internalType": "address",
          "name": "tokenAddress",
          "type": "address"
        },
        {
          "indexed": false,
          "internalType": "address",
          "name": "addressContract",
          "type": "address"
        },
        {
          "indexed": false,
          "internalType": "uint256",
          "name": "totalEther",
          "type": "uint256"
        }
      ],
      "name": "WithdrawEther",
      "type": "event"
    },
    {
      "anonymous": false,
      "inputs": [
        {
          "indexed": false,
          "internalType": "address",
          "name": "tokenAddress",
          "type": "address"
        },
        {
          "indexed": false,
          "internalType": "address",
          "name": "addressContract",
          "type": "address"
        },
        {
          "indexed": false,
          "internalType": "uint256",
          "name": "totalToken",
          "type": "uint256"
        }
      ],
      "name": "WithdrawToken",
      "type": "event"
    },
    {
      "inputs": [
        {
          "internalType": "uint256",
          "name": "_startTime",
          "type": "uint256"
        },
        {
          "internalType": "uint256",
          "name": "_endTime",
          "type": "uint256"
        },
        {
          "internalType": "uint256",
          "name": "_maxNFTsPerUser",
          "type": "uint256"
        },
        {
          "internalType": "uint256",
          "name": "_totalNFTsInRound",
          "type": "uint256"
        },
        {
          "internalType": "uint256[]",
          "name": "_prices",
          "type": "uint256[]"
        },
        {
          "internalType": "address",
          "name": "_tokenAddress",
          "type": "address"
        },
        {
          "internalType": "uint256",
          "name": "_newTotalSupply",
          "type": "uint256"
        }
      ],
      "name": "addRound",
      "outputs": [],
      "stateMutability": "nonpayable",
      "type": "function"
    },
    {
      "inputs": [
        {
          "internalType": "address",
          "name": "",
          "type": "address"
        }
      ],
      "name": "amountBought",
      "outputs": [
        {
          "internalType": "uint256",
          "name": "",
          "type": "uint256"
        }
      ],
      "stateMutability": "view",
      "type": "function"
    },
    {
      "inputs": [
        {
          "internalType": "uint256",
          "name": "amount",
          "type": "uint256"
        },
        {
          "internalType": "uint256",
          "name": "tokenId",
          "type": "uint256"
        }
      ],
      "name": "buyNFT",
      "outputs": [],
      "stateMutability": "payable",
      "type": "function"
    },
    {
      "inputs": [],
      "name": "currentRound",
      "outputs": [
        {
          "internalType": "uint256",
          "name": "",
          "type": "uint256"
        }
      ],
      "stateMutability": "view",
      "type": "function"
    },
    {
      "inputs": [
        {
          "internalType": "address",
          "name": "_address",
          "type": "address"
        }
      ],
      "name": "getEtherContractBalance",
      "outputs": [
        {
          "internalType": "uint256",
          "name": "",
          "type": "uint256"
        }
      ],
      "stateMutability": "view",
      "type": "function"
    },
    {
      "inputs": [
        {
          "internalType": "uint256",
          "name": "_roundIndex",
          "type": "uint256"
        }
      ],
      "name": "getRound",
      "outputs": [
        {
          "internalType": "uint256",
          "name": "startTime",
          "type": "uint256"
        },
        {
          "internalType": "uint256",
          "name": "endTime",
          "type": "uint256"
        },
        {
          "internalType": "uint256",
          "name": "maxNFTsPerUser",
          "type": "uint256"
        },
        {
          "internalType": "uint256",
          "name": "totalNFTsInRound",
          "type": "uint256"
        },
        {
          "internalType": "uint256[]",
          "name": "prices",
          "type": "uint256[]"
        },
        {
          "internalType": "address",
          "name": "tokenAddress",
          "type": "address"
        },
        {
          "internalType": "uint256",
          "name": "totalSupply",
          "type": "uint256"
        }
      ],
      "stateMutability": "view",
      "type": "function"
    },
    {
      "inputs": [],
      "name": "getTimeCurrent",
      "outputs": [
        {
          "internalType": "uint256",
          "name": "",
          "type": "uint256"
        }
      ],
      "stateMutability": "view",
      "type": "function"
    },
    {
      "inputs": [],
      "name": "nftContract",
      "outputs": [
        {
          "internalType": "contract ContractERC1155",
          "name": "",
          "type": "address"
        }
      ],
      "stateMutability": "view",
      "type": "function"
    },
    {
      "inputs": [],
      "name": "owner",
      "outputs": [
        {
          "internalType": "address",
          "name": "",
          "type": "address"
        }
      ],
      "stateMutability": "view",
      "type": "function"
    },
    {
      "inputs": [],
      "name": "renounceOwnership",
      "outputs": [],
      "stateMutability": "nonpayable",
      "type": "function"
    },
    {
      "inputs": [],
      "name": "roundIndex",
      "outputs": [
        {
          "internalType": "uint256",
          "name": "",
          "type": "uint256"
        }
      ],
      "stateMutability": "view",
      "type": "function"
    },
    {
      "inputs": [
        {
          "internalType": "uint256",
          "name": "",
          "type": "uint256"
        }
      ],
      "name": "rounds",
      "outputs": [
        {
          "internalType": "uint256",
          "name": "startTime",
          "type": "uint256"
        },
        {
          "internalType": "uint256",
          "name": "endTime",
          "type": "uint256"
        },
        {
          "internalType": "uint256",
          "name": "maxNFTsPerUser",
          "type": "uint256"
        },
        {
          "internalType": "uint256",
          "name": "totalNFTsInRound",
          "type": "uint256"
        },
        {
          "internalType": "address",
          "name": "tokenAddress",
          "type": "address"
        },
        {
          "internalType": "uint256",
          "name": "totalSupply",
          "type": "uint256"
        }
      ],
      "stateMutability": "view",
      "type": "function"
    },
    {
      "inputs": [
        {
          "internalType": "uint256",
          "name": "_roundIndex",
          "type": "uint256"
        }
      ],
      "name": "setRoundIndex",
      "outputs": [],
      "stateMutability": "nonpayable",
      "type": "function"
    },
    {
      "inputs": [
        {
          "internalType": "address",
          "name": "newOwner",
          "type": "address"
        }
      ],
      "name": "transferOwnership",
      "outputs": [],
      "stateMutability": "nonpayable",
      "type": "function"
    },
    {
      "inputs": [
        {
          "internalType": "uint256",
          "name": "_roundIndex",
          "type": "uint256"
        },
        {
          "internalType": "uint256",
          "name": "newStartTime",
          "type": "uint256"
        },
        {
          "internalType": "uint256",
          "name": "newEndTime",
          "type": "uint256"
        },
        {
          "internalType": "uint256",
          "name": "newMaxNFTsPerUser",
          "type": "uint256"
        },
        {
          "internalType": "uint256",
          "name": "newTotalNFTsInRound",
          "type": "uint256"
        },
        {
          "internalType": "uint256[]",
          "name": "newPrice",
          "type": "uint256[]"
        },
        {
          "internalType": "address",
          "name": "newTokenAddress",
          "type": "address"
        },
        {
          "internalType": "uint256",
          "name": "newTotalSupply",
          "type": "uint256"
        }
      ],
      "name": "updateRound",
      "outputs": [],
      "stateMutability": "nonpayable",
      "type": "function"
    },
    {
      "inputs": [
        {
          "internalType": "address",
          "name": "tokenAddr",
          "type": "address"
        }
      ],
      "name": "withdRaw",
      "outputs": [],
      "stateMutability": "nonpayable",
      "type": "function"
    }
  ],
  "bytecode": "0x608060405260016005553480156200001657600080fd5b50604051620022803803806200228083398181016040528101906200003c9190620001da565b6200005c62000050620000a460201b60201c565b620000ac60201b60201c565b80600160006101000a81548173ffffffffffffffffffffffffffffffffffffffff021916908373ffffffffffffffffffffffffffffffffffffffff160217905550506200020c565b600033905090565b60008060009054906101000a900473ffffffffffffffffffffffffffffffffffffffff169050816000806101000a81548173ffffffffffffffffffffffffffffffffffffffff021916908373ffffffffffffffffffffffffffffffffffffffff1602179055508173ffffffffffffffffffffffffffffffffffffffff168173ffffffffffffffffffffffffffffffffffffffff167f8be0079c531659141344cd1fd0a4f28419497f9722a3daafe3b4186f6b6457e060405160405180910390a35050565b600080fd5b600073ffffffffffffffffffffffffffffffffffffffff82169050919050565b6000620001a28262000175565b9050919050565b620001b48162000195565b8114620001c057600080fd5b50565b600081519050620001d481620001a9565b92915050565b600060208284031215620001f357620001f262000170565b5b60006200020384828501620001c3565b91505092915050565b612064806200021c6000396000f3fe6080604052600436106100f35760003560e01c8063715018a61161008a5780638da5cb5b116100595780638da5cb5b1461030c5780638f1327c014610337578063d56d229d1461037a578063f2fde38b146103a5576100f3565b8063715018a61461025f5780637f306885146102765780638a19c8bc1461029f5780638c65c81f146102ca576100f3565b80633821b8aa116100c65780633821b8aa146101b75780635e11fa5d146101e25780635ebb32a21461020b578063648036ae14610234576100f3565b806306f1df54146100f85780631d85bf031461013557806320fe23c8146101515780632d4a16dd1461017a575b600080fd5b34801561010457600080fd5b5061011f600480360381019061011a91906112c8565b6103ce565b60405161012c919061130e565b60405180910390f35b61014f600480360381019061014a9190611355565b6103ef565b005b34801561015d57600080fd5b50610178600480360381019061017391906114ee565b6109ee565b005b34801561018657600080fd5b506101a1600480360381019061019c91906112c8565b610aa1565b6040516101ae919061130e565b60405180910390f35b3480156101c357600080fd5b506101cc610ab9565b6040516101d9919061130e565b60405180910390f35b3480156101ee57600080fd5b50610209600480360381019061020491906112c8565b610ac1565b005b34801561021757600080fd5b50610232600480360381019061022d91906115c0565b610cdb565b005b34801561024057600080fd5b50610249610da7565b604051610256919061130e565b60405180910390f35b34801561026b57600080fd5b50610274610dad565b005b34801561028257600080fd5b5061029d6004803603810190610298919061167e565b610dc1565b005b3480156102ab57600080fd5b506102b4610dd3565b6040516102c1919061130e565b60405180910390f35b3480156102d657600080fd5b506102f160048036038101906102ec919061167e565b610dd9565b604051610303969594939291906116ba565b60405180910390f35b34801561031857600080fd5b50610321610e35565b60405161032e919061171b565b60405180910390f35b34801561034357600080fd5b5061035e6004803603810190610359919061167e565b610e5e565b60405161037197969594939291906117f4565b60405180910390f35b34801561038657600080fd5b5061038f610ff9565b60405161039c91906118c9565b60405180910390f35b3480156103b157600080fd5b506103cc60048036038101906103c791906112c8565b61101f565b005b60008173ffffffffffffffffffffffffffffffffffffffff16319050919050565b6000600360006005548152602001908152602001600020905060003390508160000154421015610454576040517f08c379a000000000000000000000000000000000000000000000000000000000815260040161044b90611941565b60405180910390fd5b816001015442111561049b576040517f08c379a0000000000000000000000000000000000000000000000000000000008152600401610492906119ad565b60405180910390fd5b816004018054905083106104e4576040517f08c379a00000000000000000000000000000000000000000000000000000000081526004016104db90611a19565b60405180910390fd5b8160020154600260008373ffffffffffffffffffffffffffffffffffffffff1673ffffffffffffffffffffffffffffffffffffffff16815260200190815260200160002054856105349190611a68565b1115610575576040517f08c379a000000000000000000000000000000000000000000000000000000000815260040161056c90611ae8565b60405180910390fd5b816003015484836006015461058a9190611a68565b11156105cb576040517f08c379a00000000000000000000000000000000000000000000000000000000081526004016105c290611b54565b60405180910390fd5b600073ffffffffffffffffffffffffffffffffffffffff168260050160009054906101000a900473ffffffffffffffffffffffffffffffffffffffff1673ffffffffffffffffffffffffffffffffffffffff1603610797578382600401848154811061063a57610639611b74565b5b906000526020600020015461064f9190611ba3565b3414610690576040517f08c379a000000000000000000000000000000000000000000000000000000000815260040161068790611c31565b60405180910390fd5b600160009054906101000a900473ffffffffffffffffffffffffffffffffffffffff1673ffffffffffffffffffffffffffffffffffffffff1663731133e98285876040518463ffffffff1660e01b81526004016106ef93929190611c88565b600060405180830381600087803b15801561070957600080fd5b505af115801561071d573d6000803e3d6000fd5b5050505083600260008373ffffffffffffffffffffffffffffffffffffffff1673ffffffffffffffffffffffffffffffffffffffff16815260200190815260200160002060008282546107709190611a68565b925050819055508382600601600082825461078b9190611a68565b925050819055506109ad565b600034146107da576040517f08c379a00000000000000000000000000000000000000000000000000000000081526004016107d190611d1e565b60405180910390fd5b8160050160009054906101000a900473ffffffffffffffffffffffffffffffffffffffff1673ffffffffffffffffffffffffffffffffffffffff166323b872dd823085600401878154811061083257610831611b74565b5b9060005260206000200154886108489190611ba3565b6040518463ffffffff1660e01b815260040161086693929190611d3e565b6020604051808303816000875af1158015610885573d6000803e3d6000fd5b505050506040513d601f19601f820116820180604052508101906108a99190611dad565b50600160009054906101000a900473ffffffffffffffffffffffffffffffffffffffff1673ffffffffffffffffffffffffffffffffffffffff1663731133e98285876040518463ffffffff1660e01b815260040161090993929190611c88565b600060405180830381600087803b15801561092357600080fd5b505af1158015610937573d6000803e3d6000fd5b5050505083600260008373ffffffffffffffffffffffffffffffffffffffff1673ffffffffffffffffffffffffffffffffffffffff168152602001908152602001600020600082825461098a9190611a68565b92505081905550838260060160008282546109a59190611a68565b925050819055505b7f8e9c4348c0c46c4734d9afcbb81a3df7575c13edf618817b401322aa8dc6120e8185856040516109e093929190611dda565b60405180910390a150505050565b6109f66110a2565b6000600360008a8152602001908152602001600020905087816000018190555086816001018190555085816002018190555084816003018190555083816004019080519060200190610a499291906111ec565b50828160050160006101000a81548173ffffffffffffffffffffffffffffffffffffffff021916908373ffffffffffffffffffffffffffffffffffffffff160217905550818160060181905550505050505050505050565b60026020528060005260406000206000915090505481565b600042905090565b610ac96110a2565b600073ffffffffffffffffffffffffffffffffffffffff168173ffffffffffffffffffffffffffffffffffffffff1603610b91576000479050610b0a610e35565b73ffffffffffffffffffffffffffffffffffffffff166108fc829081150290604051600060405180830381858888f19350505050158015610b4f573d6000803e3d6000fd5b507ffeceea4cd468096694ba7a890f3906903b7b85849d7270163c1d280f3c0ec989823083604051610b8393929190611d3e565b60405180910390a150610cd8565b600081905060008173ffffffffffffffffffffffffffffffffffffffff166370a08231306040518263ffffffff1660e01b8152600401610bd1919061171b565b602060405180830381865afa158015610bee573d6000803e3d6000fd5b505050506040513d601f19601f82011682018060405250810190610c129190611e26565b90508173ffffffffffffffffffffffffffffffffffffffff1663a9059cbb610c38610e35565b836040518363ffffffff1660e01b8152600401610c56929190611e53565b6020604051808303816000875af1158015610c75573d6000803e3d6000fd5b505050506040513d601f19601f82011682018060405250810190610c999190611dad565b507f037238854fe57fbf51f09946f854fc3916fe83938d6521f09bd05463839f1304833083604051610ccd93929190611d3e565b60405180910390a150505b50565b610ce36110a2565b60046000815480929190610cf690611e7c565b91905055506000600360006004548152602001908152602001600020905087816000018190555086816001018190555085816002018190555084816003018190555083816004019080519060200190610d509291906111ec565b50828160050160006101000a81548173ffffffffffffffffffffffffffffffffffffffff021916908373ffffffffffffffffffffffffffffffffffffffff1602179055508181600601819055505050505050505050565b60055481565b610db56110a2565b610dbf6000611120565b565b610dc96110a2565b8060058190555050565b60045481565b60036020528060005260406000206000915090508060000154908060010154908060020154908060030154908060050160009054906101000a900473ffffffffffffffffffffffffffffffffffffffff16908060060154905086565b60008060009054906101000a900473ffffffffffffffffffffffffffffffffffffffff16905090565b6000806000806060600080600088118015610e7b57506004548811155b610eba576040517f08c379a0000000000000000000000000000000000000000000000000000000008152600401610eb190611f10565b60405180910390fd5b6000600360008a81526020019081526020016000206040518060e00160405290816000820154815260200160018201548152602001600282015481526020016003820154815260200160048201805480602002602001604051908101604052809291908181526020018280548015610f5157602002820191906000526020600020905b815481526020019060010190808311610f3d575b505050505081526020016005820160009054906101000a900473ffffffffffffffffffffffffffffffffffffffff1673ffffffffffffffffffffffffffffffffffffffff1673ffffffffffffffffffffffffffffffffffffffff1681526020016006820154815250509050806000015181602001518260400151836060015184608001518560a001518660c00151975097509750975097509750975050919395979092949650565b600160009054906101000a900473ffffffffffffffffffffffffffffffffffffffff1681565b6110276110a2565b600073ffffffffffffffffffffffffffffffffffffffff168173ffffffffffffffffffffffffffffffffffffffff1603611096576040517f08c379a000000000000000000000000000000000000000000000000000000000815260040161108d90611fa2565b60405180910390fd5b61109f81611120565b50565b6110aa6111e4565b73ffffffffffffffffffffffffffffffffffffffff166110c8610e35565b73ffffffffffffffffffffffffffffffffffffffff161461111e576040517f08c379a00000000000000000000000000000000000000000000000000000000081526004016111159061200e565b60405180910390fd5b565b60008060009054906101000a900473ffffffffffffffffffffffffffffffffffffffff169050816000806101000a81548173ffffffffffffffffffffffffffffffffffffffff021916908373ffffffffffffffffffffffffffffffffffffffff1602179055508173ffffffffffffffffffffffffffffffffffffffff168173ffffffffffffffffffffffffffffffffffffffff167f8be0079c531659141344cd1fd0a4f28419497f9722a3daafe3b4186f6b6457e060405160405180910390a35050565b600033905090565b828054828255906000526020600020908101928215611228579160200282015b8281111561122757825182559160200191906001019061120c565b5b5090506112359190611239565b5090565b5b8082111561125257600081600090555060010161123a565b5090565b6000604051905090565b600080fd5b600080fd5b600073ffffffffffffffffffffffffffffffffffffffff82169050919050565b60006112958261126a565b9050919050565b6112a58161128a565b81146112b057600080fd5b50565b6000813590506112c28161129c565b92915050565b6000602082840312156112de576112dd611260565b5b60006112ec848285016112b3565b91505092915050565b6000819050919050565b611308816112f5565b82525050565b600060208201905061132360008301846112ff565b92915050565b611332816112f5565b811461133d57600080fd5b50565b60008135905061134f81611329565b92915050565b6000806040838503121561136c5761136b611260565b5b600061137a85828601611340565b925050602061138b85828601611340565b9150509250929050565b600080fd5b6000601f19601f8301169050919050565b7f4e487b7100000000000000000000000000000000000000000000000000000000600052604160045260246000fd5b6113e38261139a565b810181811067ffffffffffffffff82111715611402576114016113ab565b5b80604052505050565b6000611415611256565b905061142182826113da565b919050565b600067ffffffffffffffff821115611441576114406113ab565b5b602082029050602081019050919050565b600080fd5b600061146a61146584611426565b61140b565b9050808382526020820190506020840283018581111561148d5761148c611452565b5b835b818110156114b657806114a28882611340565b84526020840193505060208101905061148f565b5050509392505050565b600082601f8301126114d5576114d4611395565b5b81356114e5848260208601611457565b91505092915050565b600080600080600080600080610100898b03121561150f5761150e611260565b5b600061151d8b828c01611340565b985050602061152e8b828c01611340565b975050604061153f8b828c01611340565b96505060606115508b828c01611340565b95505060806115618b828c01611340565b94505060a089013567ffffffffffffffff81111561158257611581611265565b5b61158e8b828c016114c0565b93505060c061159f8b828c016112b3565b92505060e06115b08b828c01611340565b9150509295985092959890939650565b600080600080600080600060e0888a0312156115df576115de611260565b5b60006115ed8a828b01611340565b97505060206115fe8a828b01611340565b965050604061160f8a828b01611340565b95505060606116208a828b01611340565b945050608088013567ffffffffffffffff81111561164157611640611265565b5b61164d8a828b016114c0565b93505060a061165e8a828b016112b3565b92505060c061166f8a828b01611340565b91505092959891949750929550565b60006020828403121561169457611693611260565b5b60006116a284828501611340565b91505092915050565b6116b48161128a565b82525050565b600060c0820190506116cf60008301896112ff565b6116dc60208301886112ff565b6116e960408301876112ff565b6116f660608301866112ff565b61170360808301856116ab565b61171060a08301846112ff565b979650505050505050565b600060208201905061173060008301846116ab565b92915050565b600081519050919050565b600082825260208201905092915050565b6000819050602082019050919050565b61176b816112f5565b82525050565b600061177d8383611762565b60208301905092915050565b6000602082019050919050565b60006117a182611736565b6117ab8185611741565b93506117b683611752565b8060005b838110156117e75781516117ce8882611771565b97506117d983611789565b9250506001810190506117ba565b5085935050505092915050565b600060e082019050611809600083018a6112ff565b61181660208301896112ff565b61182360408301886112ff565b61183060608301876112ff565b81810360808301526118428186611796565b905061185160a08301856116ab565b61185e60c08301846112ff565b98975050505050505050565b6000819050919050565b600061188f61188a6118858461126a565b61186a565b61126a565b9050919050565b60006118a182611874565b9050919050565b60006118b382611896565b9050919050565b6118c3816118a8565b82525050565b60006020820190506118de60008301846118ba565b92915050565b600082825260208201905092915050565b7f4e6f742074696d65206f6e2073616c6500000000000000000000000000000000600082015250565b600061192b6010836118e4565b9150611936826118f5565b602082019050919050565b6000602082019050818103600083015261195a8161191e565b9050919050565b7f506173732074696d65206f6e2073616c65000000000000000000000000000000600082015250565b60006119976011836118e4565b91506119a282611961565b602082019050919050565b600060208201905081810360008301526119c68161198a565b9050919050565b7f496e76616c696420746f6b656e49640000000000000000000000000000000000600082015250565b6000611a03600f836118e4565b9150611a0e826119cd565b602082019050919050565b60006020820190508181036000830152611a32816119f6565b9050919050565b7f4e487b7100000000000000000000000000000000000000000000000000000000600052601160045260246000fd5b6000611a73826112f5565b9150611a7e836112f5565b9250828201905080821115611a9657611a95611a39565b5b92915050565b7f4d6178207175616e746974792075736572000000000000000000000000000000600082015250565b6000611ad26011836118e4565b9150611add82611a9c565b602082019050919050565b60006020820190508181036000830152611b0181611ac5565b9050919050565b7f4d6178207175616e7469747920696e20726f756e640000000000000000000000600082015250565b6000611b3e6015836118e4565b9150611b4982611b08565b602082019050919050565b60006020820190508181036000830152611b6d81611b31565b9050919050565b7f4e487b7100000000000000000000000000000000000000000000000000000000600052603260045260246000fd5b6000611bae826112f5565b9150611bb9836112f5565b9250828202611bc7816112f5565b91508282048414831517611bde57611bdd611a39565b5b5092915050565b7f4e6f7420656e6f756768206e617469766520636f696e00000000000000000000600082015250565b6000611c1b6016836118e4565b9150611c2682611be5565b602082019050919050565b60006020820190508181036000830152611c4a81611c0e565b9050919050565b600082825260208201905092915050565b50565b6000611c72600083611c51565b9150611c7d82611c62565b600082019050919050565b6000608082019050611c9d60008301866116ab565b611caa60208301856112ff565b611cb760408301846112ff565b8181036060830152611cc881611c65565b9050949350505050565b7f446f6e74206e6565642065746865720000000000000000000000000000000000600082015250565b6000611d08600f836118e4565b9150611d1382611cd2565b602082019050919050565b60006020820190508181036000830152611d3781611cfb565b9050919050565b6000606082019050611d5360008301866116ab565b611d6060208301856116ab565b611d6d60408301846112ff565b949350505050565b60008115159050919050565b611d8a81611d75565b8114611d9557600080fd5b50565b600081519050611da781611d81565b92915050565b600060208284031215611dc357611dc2611260565b5b6000611dd184828501611d98565b91505092915050565b6000606082019050611def60008301866116ab565b611dfc60208301856112ff565b611e0960408301846112ff565b949350505050565b600081519050611e2081611329565b92915050565b600060208284031215611e3c57611e3b611260565b5b6000611e4a84828501611e11565b91505092915050565b6000604082019050611e6860008301856116ab565b611e7560208301846112ff565b9392505050565b6000611e87826112f5565b91507fffffffffffffffffffffffffffffffffffffffffffffffffffffffffffffffff8203611eb957611eb8611a39565b5b600182019050919050565b7f526f756e6420646f6573206e6f74206578697374000000000000000000000000600082015250565b6000611efa6014836118e4565b9150611f0582611ec4565b602082019050919050565b60006020820190508181036000830152611f2981611eed565b9050919050565b7f4f776e61626c653a206e6577206f776e657220697320746865207a65726f206160008201527f6464726573730000000000000000000000000000000000000000000000000000602082015250565b6000611f8c6026836118e4565b9150611f9782611f30565b604082019050919050565b60006020820190508181036000830152611fbb81611f7f565b9050919050565b7f4f776e61626c653a2063616c6c6572206973206e6f7420746865206f776e6572600082015250565b6000611ff86020836118e4565b915061200382611fc2565b602082019050919050565b6000602082019050818103600083015261202781611feb565b905091905056fea26469706673582212201475c7caee1d037a3aa126899a387fc04e24819bc6c7640d1ad93db5e18db8c464736f6c63430008130033",
  "linkReferences": {},
  "deployedLinkReferences": {}
}