{
  "_format": "hh-sol-artifact-1",
  "contractName": "ContractERC1155",
  "sourceName": "contracts/ContractERC1155.sol",
  "abi": [
    {
      "inputs": [],
      "stateMutability": "nonpayable",
      "type": "constructor"
    },
    {
      "anonymous": false,
      "inputs": [
        {
          "indexed": true,
          "internalType": "address",
          "name": "account",
          "type": "address"
        },
        {
          "indexed": true,
          "internalType": "address",
          "name": "operator",
          "type": "address"
        },
        {
          "indexed": false,
          "internalType": "bool",
          "name": "approved",
          "type": "bool"
        }
      ],
      "name": "ApprovalForAll",
      "type": "event"
    },
    {
      "anonymous": false,
      "inputs": [
        {
          "indexed": true,
          "internalType": "address",
          "name": "previousOwner",
          "type": "address"
        },
        {
          "indexed": true,
          "internalType": "address",
          "name": "newOwner",
          "type": "address"
        }
      ],
      "name": "OwnershipTransferred",
      "type": "event"
    },
    {
      "anonymous": false,
      "inputs": [
        {
          "indexed": true,
          "internalType": "address",
          "name": "operator",
          "type": "address"
        },
        {
          "indexed": true,
          "internalType": "address",
          "name": "from",
          "type": "address"
        },
        {
          "indexed": true,
          "internalType": "address",
          "name": "to",
          "type": "address"
        },
        {
          "indexed": false,
          "internalType": "uint256[]",
          "name": "ids",
          "type": "uint256[]"
        },
        {
          "indexed": false,
          "internalType": "uint256[]",
          "name": "values",
          "type": "uint256[]"
        }
      ],
      "name": "TransferBatch",
      "type": "event"
    },
    {
      "anonymous": false,
      "inputs": [
        {
          "indexed": true,
          "internalType": "address",
          "name": "operator",
          "type": "address"
        },
        {
          "indexed": true,
          "internalType": "address",
          "name": "from",
          "type": "address"
        },
        {
          "indexed": true,
          "internalType": "address",
          "name": "to",
          "type": "address"
        },
        {
          "indexed": false,
          "internalType": "uint256",
          "name": "id",
          "type": "uint256"
        },
        {
          "indexed": false,
          "internalType": "uint256",
          "name": "value",
          "type": "uint256"
        }
      ],
      "name": "TransferSingle",
      "type": "event"
    },
    {
      "anonymous": false,
      "inputs": [
        {
          "indexed": false,
          "internalType": "string",
          "name": "value",
          "type": "string"
        },
        {
          "indexed": true,
          "internalType": "uint256",
          "name": "id",
          "type": "uint256"
        }
      ],
      "name": "URI",
      "type": "event"
    },
    {
      "inputs": [],
      "name": "admin",
      "outputs": [
        {
          "internalType": "address",
          "name": "",
          "type": "address"
        }
      ],
      "stateMutability": "view",
      "type": "function"
    },
    {
      "inputs": [
        {
          "internalType": "address",
          "name": "account",
          "type": "address"
        },
        {
          "internalType": "uint256",
          "name": "id",
          "type": "uint256"
        }
      ],
      "name": "balanceOf",
      "outputs": [
        {
          "internalType": "uint256",
          "name": "",
          "type": "uint256"
        }
      ],
      "stateMutability": "view",
      "type": "function"
    },
    {
      "inputs": [
        {
          "internalType": "address[]",
          "name": "accounts",
          "type": "address[]"
        },
        {
          "internalType": "uint256[]",
          "name": "ids",
          "type": "uint256[]"
        }
      ],
      "name": "balanceOfBatch",
      "outputs": [
        {
          "internalType": "uint256[]",
          "name": "",
          "type": "uint256[]"
        }
      ],
      "stateMutability": "view",
      "type": "function"
    },
    {
      "inputs": [
        {
          "internalType": "address",
          "name": "account",
          "type": "address"
        },
        {
          "internalType": "address",
          "name": "operator",
          "type": "address"
        }
      ],
      "name": "isApprovedForAll",
      "outputs": [
        {
          "internalType": "bool",
          "name": "",
          "type": "bool"
        }
      ],
      "stateMutability": "view",
      "type": "function"
    },
    {
      "inputs": [
        {
          "internalType": "address",
          "name": "account",
          "type": "address"
        },
        {
          "internalType": "uint256",
          "name": "id",
          "type": "uint256"
        },
        {
          "internalType": "uint256",
          "name": "amount",
          "type": "uint256"
        },
        {
          "internalType": "bytes",
          "name": "data",
          "type": "bytes"
        }
      ],
      "name": "mint",
      "outputs": [],
      "stateMutability": "nonpayable",
      "type": "function"
    },
    {
      "inputs": [],
      "name": "owner",
      "outputs": [
        {
          "internalType": "address",
          "name": "",
          "type": "address"
        }
      ],
      "stateMutability": "view",
      "type": "function"
    },
    {
      "inputs": [],
      "name": "renounceOwnership",
      "outputs": [],
      "stateMutability": "nonpayable",
      "type": "function"
    },
    {
      "inputs": [
        {
          "internalType": "address",
          "name": "from",
          "type": "address"
        },
        {
          "internalType": "address",
          "name": "to",
          "type": "address"
        },
        {
          "internalType": "uint256[]",
          "name": "ids",
          "type": "uint256[]"
        },
        {
          "internalType": "uint256[]",
          "name": "amounts",
          "type": "uint256[]"
        },
        {
          "internalType": "bytes",
          "name": "data",
          "type": "bytes"
        }
      ],
      "name": "safeBatchTransferFrom",
      "outputs": [],
      "stateMutability": "nonpayable",
      "type": "function"
    },
    {
      "inputs": [
        {
          "internalType": "address",
          "name": "from",
          "type": "address"
        },
        {
          "internalType": "address",
          "name": "to",
          "type": "address"
        },
        {
          "internalType": "uint256",
          "name": "id",
          "type": "uint256"
        },
        {
          "internalType": "uint256",
          "name": "amount",
          "type": "uint256"
        },
        {
          "internalType": "bytes",
          "name": "data",
          "type": "bytes"
        }
      ],
      "name": "safeTransferFrom",
      "outputs": [],
      "stateMutability": "nonpayable",
      "type": "function"
    },
    {
      "inputs": [
        {
          "internalType": "address",
          "name": "_admin",
          "type": "address"
        }
      ],
      "name": "setAdmin",
      "outputs": [],
      "stateMutability": "nonpayable",
      "type": "function"
    },
    {
      "inputs": [
        {
          "internalType": "address",
          "name": "operator",
          "type": "address"
        },
        {
          "internalType": "bool",
          "name": "approved",
          "type": "bool"
        }
      ],
      "name": "setApprovalForAll",
      "outputs": [],
      "stateMutability": "nonpayable",
      "type": "function"
    },
    {
      "inputs": [
        {
          "internalType": "bytes4",
          "name": "interfaceId",
          "type": "bytes4"
        }
      ],
      "name": "supportsInterface",
      "outputs": [
        {
          "internalType": "bool",
          "name": "",
          "type": "bool"
        }
      ],
      "stateMutability": "view",
      "type": "function"
    },
    {
      "inputs": [
        {
          "internalType": "address",
          "name": "newOwner",
          "type": "address"
        }
      ],
      "name": "transferOwnership",
      "outputs": [],
      "stateMutability": "nonpayable",
      "type": "function"
    },
    {
      "inputs": [
        {
          "internalType": "uint256",
          "name": "",
          "type": "uint256"
        }
      ],
      "name": "uri",
      "outputs": [
        {
          "internalType": "string",
          "name": "",
          "type": "string"
        }
      ],
      "stateMutability": "view",
      "type": "function"
    }
  ],
  "bytecode": "0x60806040523480156200001157600080fd5b506040518060200160405280600081525062000033816200005a60201b60201c565b5062000054620000486200006f60201b60201c565b6200007760201b60201c565b6200049e565b80600290816200006b9190620003b7565b5050565b600033905090565b6000600360009054906101000a900473ffffffffffffffffffffffffffffffffffffffff16905081600360006101000a81548173ffffffffffffffffffffffffffffffffffffffff021916908373ffffffffffffffffffffffffffffffffffffffff1602179055508173ffffffffffffffffffffffffffffffffffffffff168173ffffffffffffffffffffffffffffffffffffffff167f8be0079c531659141344cd1fd0a4f28419497f9722a3daafe3b4186f6b6457e060405160405180910390a35050565b600081519050919050565b7f4e487b7100000000000000000000000000000000000000000000000000000000600052604160045260246000fd5b7f4e487b7100000000000000000000000000000000000000000000000000000000600052602260045260246000fd5b60006002820490506001821680620001bf57607f821691505b602082108103620001d557620001d462000177565b5b50919050565b60008190508160005260206000209050919050565b60006020601f8301049050919050565b600082821b905092915050565b6000600883026200023f7fffffffffffffffffffffffffffffffffffffffffffffffffffffffffffffffff8262000200565b6200024b868362000200565b95508019841693508086168417925050509392505050565b6000819050919050565b6000819050919050565b600062000298620002926200028c8462000263565b6200026d565b62000263565b9050919050565b6000819050919050565b620002b48362000277565b620002cc620002c3826200029f565b8484546200020d565b825550505050565b600090565b620002e3620002d4565b620002f0818484620002a9565b505050565b5b8181101562000318576200030c600082620002d9565b600181019050620002f6565b5050565b601f82111562000367576200033181620001db565b6200033c84620001f0565b810160208510156200034c578190505b620003646200035b85620001f0565b830182620002f5565b50505b505050565b600082821c905092915050565b60006200038c600019846008026200036c565b1980831691505092915050565b6000620003a7838362000379565b9150826002028217905092915050565b620003c2826200013d565b67ffffffffffffffff811115620003de57620003dd62000148565b5b620003ea8254620001a6565b620003f78282856200031c565b600060209050601f8311600181146200042f57600084156200041a578287015190505b62000426858262000399565b86555062000496565b601f1984166200043f86620001db565b60005b82811015620004695784890151825560018201915060208501945060208101905062000442565b8683101562000489578489015162000485601f89168262000379565b8355505b6001600288020188555050505b505050505050565b612da980620004ae6000396000f3fe608060405234801561001057600080fd5b50600436106100e95760003560e01c8063731133e91161008c578063e985e9c511610066578063e985e9c514610246578063f242432a14610276578063f2fde38b14610292578063f851a440146102ae576100e9565b8063731133e9146101f05780638da5cb5b1461020c578063a22cb4651461022a576100e9565b80632eb2c2d6116100c85780632eb2c2d61461017e5780634e1273f41461019a578063704b6c02146101ca578063715018a6146101e6576100e9565b8062fdd58e146100ee57806301ffc9a71461011e5780630e89341c1461014e575b600080fd5b61010860048036038101906101039190611975565b6102cc565b60405161011591906119c4565b60405180910390f35b61013860048036038101906101339190611a37565b610394565b6040516101459190611a7f565b60405180910390f35b61016860048036038101906101639190611a9a565b610476565b6040516101759190611b57565b60405180910390f35b61019860048036038101906101939190611d76565b61050a565b005b6101b460048036038101906101af9190611f08565b6105ab565b6040516101c1919061203e565b60405180910390f35b6101e460048036038101906101df9190612060565b6106c4565b005b6101ee610710565b005b61020a6004803603810190610205919061208d565b610724565b005b6102146107c6565b604051610221919061211f565b60405180910390f35b610244600480360381019061023f9190612166565b6107f0565b005b610260600480360381019061025b91906121a6565b610806565b60405161026d9190611a7f565b60405180910390f35b610290600480360381019061028b91906121e6565b61089a565b005b6102ac60048036038101906102a79190612060565b61093b565b005b6102b66109be565b6040516102c3919061211f565b60405180910390f35b60008073ffffffffffffffffffffffffffffffffffffffff168373ffffffffffffffffffffffffffffffffffffffff160361033c576040517f08c379a0000000000000000000000000000000000000000000000000000000008152600401610333906122ef565b60405180910390fd5b60008083815260200190815260200160002060008473ffffffffffffffffffffffffffffffffffffffff1673ffffffffffffffffffffffffffffffffffffffff16815260200190815260200160002054905092915050565b60007fd9b67a26000000000000000000000000000000000000000000000000000000007bffffffffffffffffffffffffffffffffffffffffffffffffffffffff1916827bffffffffffffffffffffffffffffffffffffffffffffffffffffffff1916148061045f57507f0e89341c000000000000000000000000000000000000000000000000000000007bffffffffffffffffffffffffffffffffffffffffffffffffffffffff1916827bffffffffffffffffffffffffffffffffffffffffffffffffffffffff1916145b8061046f575061046e826109e4565b5b9050919050565b6060600280546104859061233e565b80601f01602080910402602001604051908101604052809291908181526020018280546104b19061233e565b80156104fe5780601f106104d3576101008083540402835291602001916104fe565b820191906000526020600020905b8154815290600101906020018083116104e157829003601f168201915b50505050509050919050565b610512610a4e565b73ffffffffffffffffffffffffffffffffffffffff168573ffffffffffffffffffffffffffffffffffffffff161480610558575061055785610552610a4e565b610806565b5b610597576040517f08c379a000000000000000000000000000000000000000000000000000000000815260040161058e906123e1565b60405180910390fd5b6105a48585858585610a56565b5050505050565b606081518351146105f1576040517f08c379a00000000000000000000000000000000000000000000000000000000081526004016105e890612473565b60405180910390fd5b6000835167ffffffffffffffff81111561060e5761060d611b7e565b5b60405190808252806020026020018201604052801561063c5781602001602082028036833780820191505090505b50905060005b84518110156106b95761068985828151811061066157610660612493565b5b602002602001015185838151811061067c5761067b612493565b5b60200260200101516102cc565b82828151811061069c5761069b612493565b5b602002602001018181525050806106b2906124f1565b9050610642565b508091505092915050565b6106cc610d77565b80600460006101000a81548173ffffffffffffffffffffffffffffffffffffffff021916908373ffffffffffffffffffffffffffffffffffffffff16021790555050565b610718610d77565b6107226000610df5565b565b600460009054906101000a900473ffffffffffffffffffffffffffffffffffffffff1673ffffffffffffffffffffffffffffffffffffffff163373ffffffffffffffffffffffffffffffffffffffff16146107b4576040517f08c379a00000000000000000000000000000000000000000000000000000000081526004016107ab906125ab565b60405180910390fd5b6107c084848484610ebb565b50505050565b6000600360009054906101000a900473ffffffffffffffffffffffffffffffffffffffff16905090565b6108026107fb610a4e565b838361106b565b5050565b6000600160008473ffffffffffffffffffffffffffffffffffffffff1673ffffffffffffffffffffffffffffffffffffffff16815260200190815260200160002060008373ffffffffffffffffffffffffffffffffffffffff1673ffffffffffffffffffffffffffffffffffffffff16815260200190815260200160002060009054906101000a900460ff16905092915050565b6108a2610a4e565b73ffffffffffffffffffffffffffffffffffffffff168573ffffffffffffffffffffffffffffffffffffffff1614806108e857506108e7856108e2610a4e565b610806565b5b610927576040517f08c379a000000000000000000000000000000000000000000000000000000000815260040161091e906123e1565b60405180910390fd5b61093485858585856111d7565b5050505050565b610943610d77565b600073ffffffffffffffffffffffffffffffffffffffff168173ffffffffffffffffffffffffffffffffffffffff16036109b2576040517f08c379a00000000000000000000000000000000000000000000000000000000081526004016109a99061263d565b60405180910390fd5b6109bb81610df5565b50565b600460009054906101000a900473ffffffffffffffffffffffffffffffffffffffff1681565b60007f01ffc9a7000000000000000000000000000000000000000000000000000000007bffffffffffffffffffffffffffffffffffffffffffffffffffffffff1916827bffffffffffffffffffffffffffffffffffffffffffffffffffffffff1916149050919050565b600033905090565b8151835114610a9a576040517f08c379a0000000000000000000000000000000000000000000000000000000008152600401610a91906126cf565b60405180910390fd5b600073ffffffffffffffffffffffffffffffffffffffff168473ffffffffffffffffffffffffffffffffffffffff1603610b09576040517f08c379a0000000000000000000000000000000000000000000000000000000008152600401610b0090612761565b60405180910390fd5b6000610b13610a4e565b9050610b23818787878787611472565b60005b8451811015610cd4576000858281518110610b4457610b43612493565b5b602002602001015190506000858381518110610b6357610b62612493565b5b60200260200101519050600080600084815260200190815260200160002060008b73ffffffffffffffffffffffffffffffffffffffff1673ffffffffffffffffffffffffffffffffffffffff16815260200190815260200160002054905081811015610c04576040517f08c379a0000000000000000000000000000000000000000000000000000000008152600401610bfb906127f3565b60405180910390fd5b81810360008085815260200190815260200160002060008c73ffffffffffffffffffffffffffffffffffffffff1673ffffffffffffffffffffffffffffffffffffffff168152602001908152602001600020819055508160008085815260200190815260200160002060008b73ffffffffffffffffffffffffffffffffffffffff1673ffffffffffffffffffffffffffffffffffffffff1681526020019081526020016000206000828254610cb99190612813565b9250508190555050505080610ccd906124f1565b9050610b26565b508473ffffffffffffffffffffffffffffffffffffffff168673ffffffffffffffffffffffffffffffffffffffff168273ffffffffffffffffffffffffffffffffffffffff167f4a39dc06d4c0dbc64b70af90fd698a233a518aa5d07e595d983b8c0526c8f7fb8787604051610d4b929190612847565b60405180910390a4610d6181878787878761147a565b610d6f818787878787611482565b505050505050565b610d7f610a4e565b73ffffffffffffffffffffffffffffffffffffffff16610d9d6107c6565b73ffffffffffffffffffffffffffffffffffffffff1614610df3576040517f08c379a0000000000000000000000000000000000000000000000000000000008152600401610dea906128ca565b60405180910390fd5b565b6000600360009054906101000a900473ffffffffffffffffffffffffffffffffffffffff16905081600360006101000a81548173ffffffffffffffffffffffffffffffffffffffff021916908373ffffffffffffffffffffffffffffffffffffffff1602179055508173ffffffffffffffffffffffffffffffffffffffff168173ffffffffffffffffffffffffffffffffffffffff167f8be0079c531659141344cd1fd0a4f28419497f9722a3daafe3b4186f6b6457e060405160405180910390a35050565b600073ffffffffffffffffffffffffffffffffffffffff168473ffffffffffffffffffffffffffffffffffffffff1603610f2a576040517f08c379a0000000000000000000000000000000000000000000000000000000008152600401610f219061295c565b60405180910390fd5b6000610f34610a4e565b90506000610f4185611659565b90506000610f4e85611659565b9050610f5f83600089858589611472565b8460008088815260200190815260200160002060008973ffffffffffffffffffffffffffffffffffffffff1673ffffffffffffffffffffffffffffffffffffffff1681526020019081526020016000206000828254610fbe9190612813565b925050819055508673ffffffffffffffffffffffffffffffffffffffff16600073ffffffffffffffffffffffffffffffffffffffff168473ffffffffffffffffffffffffffffffffffffffff167fc3d58168c5ae7397731d063d5bbf3d657854427343f4c083240f7aacaa2d0f62898960405161103c92919061297c565b60405180910390a46110538360008985858961147a565b611062836000898989896116d3565b50505050505050565b8173ffffffffffffffffffffffffffffffffffffffff168373ffffffffffffffffffffffffffffffffffffffff16036110d9576040517f08c379a00000000000000000000000000000000000000000000000000000000081526004016110d090612a17565b60405180910390fd5b80600160008573ffffffffffffffffffffffffffffffffffffffff1673ffffffffffffffffffffffffffffffffffffffff16815260200190815260200160002060008473ffffffffffffffffffffffffffffffffffffffff1673ffffffffffffffffffffffffffffffffffffffff16815260200190815260200160002060006101000a81548160ff0219169083151502179055508173ffffffffffffffffffffffffffffffffffffffff168373ffffffffffffffffffffffffffffffffffffffff167f17307eab39ab6107e8899845ad3d59bd9653f200f220920489ca2b5937696c31836040516111ca9190611a7f565b60405180910390a3505050565b600073ffffffffffffffffffffffffffffffffffffffff168473ffffffffffffffffffffffffffffffffffffffff1603611246576040517f08c379a000000000000000000000000000000000000000000000000000000000815260040161123d90612761565b60405180910390fd5b6000611250610a4e565b9050600061125d85611659565b9050600061126a85611659565b905061127a838989858589611472565b600080600088815260200190815260200160002060008a73ffffffffffffffffffffffffffffffffffffffff1673ffffffffffffffffffffffffffffffffffffffff16815260200190815260200160002054905085811015611311576040517f08c379a0000000000000000000000000000000000000000000000000000000008152600401611308906127f3565b60405180910390fd5b85810360008089815260200190815260200160002060008b73ffffffffffffffffffffffffffffffffffffffff1673ffffffffffffffffffffffffffffffffffffffff168152602001908152602001600020819055508560008089815260200190815260200160002060008a73ffffffffffffffffffffffffffffffffffffffff1673ffffffffffffffffffffffffffffffffffffffff16815260200190815260200160002060008282546113c69190612813565b925050819055508773ffffffffffffffffffffffffffffffffffffffff168973ffffffffffffffffffffffffffffffffffffffff168573ffffffffffffffffffffffffffffffffffffffff167fc3d58168c5ae7397731d063d5bbf3d657854427343f4c083240f7aacaa2d0f628a8a60405161144392919061297c565b60405180910390a4611459848a8a86868a61147a565b611467848a8a8a8a8a6116d3565b505050505050505050565b505050505050565b505050505050565b6114a18473ffffffffffffffffffffffffffffffffffffffff166118aa565b15611651578373ffffffffffffffffffffffffffffffffffffffff1663bc197c8187878686866040518663ffffffff1660e01b81526004016114e7959493929190612a8c565b6020604051808303816000875af192505050801561152357506040513d601f19601f820116820180604052508101906115209190612b09565b60015b6115c85761152f612b43565b806308c379a00361158b5750611543612b65565b8061154e575061158d565b806040517f08c379a00000000000000000000000000000000000000000000000000000000081526004016115829190611b57565b60405180910390fd5b505b6040517f08c379a00000000000000000000000000000000000000000000000000000000081526004016115bf90612c67565b60405180910390fd5b63bc197c8160e01b7bffffffffffffffffffffffffffffffffffffffffffffffffffffffff1916817bffffffffffffffffffffffffffffffffffffffffffffffffffffffff19161461164f576040517f08c379a000000000000000000000000000000000000000000000000000000000815260040161164690612cf9565b60405180910390fd5b505b505050505050565b60606000600167ffffffffffffffff81111561167857611677611b7e565b5b6040519080825280602002602001820160405280156116a65781602001602082028036833780820191505090505b50905082816000815181106116be576116bd612493565b5b60200260200101818152505080915050919050565b6116f28473ffffffffffffffffffffffffffffffffffffffff166118aa565b156118a2578373ffffffffffffffffffffffffffffffffffffffff1663f23a6e6187878686866040518663ffffffff1660e01b8152600401611738959493929190612d19565b6020604051808303816000875af192505050801561177457506040513d601f19601f820116820180604052508101906117719190612b09565b60015b61181957611780612b43565b806308c379a0036117dc5750611794612b65565b8061179f57506117de565b806040517f08c379a00000000000000000000000000000000000000000000000000000000081526004016117d39190611b57565b60405180910390fd5b505b6040517f08c379a000000000000000000000000000000000000000000000000000000000815260040161181090612c67565b60405180910390fd5b63f23a6e6160e01b7bffffffffffffffffffffffffffffffffffffffffffffffffffffffff1916817bffffffffffffffffffffffffffffffffffffffffffffffffffffffff1916146118a0576040517f08c379a000000000000000000000000000000000000000000000000000000000815260040161189790612cf9565b60405180910390fd5b505b505050505050565b6000808273ffffffffffffffffffffffffffffffffffffffff163b119050919050565b6000604051905090565b600080fd5b600080fd5b600073ffffffffffffffffffffffffffffffffffffffff82169050919050565b600061190c826118e1565b9050919050565b61191c81611901565b811461192757600080fd5b50565b60008135905061193981611913565b92915050565b6000819050919050565b6119528161193f565b811461195d57600080fd5b50565b60008135905061196f81611949565b92915050565b6000806040838503121561198c5761198b6118d7565b5b600061199a8582860161192a565b92505060206119ab85828601611960565b9150509250929050565b6119be8161193f565b82525050565b60006020820190506119d960008301846119b5565b92915050565b60007fffffffff0000000000000000000000000000000000000000000000000000000082169050919050565b611a14816119df565b8114611a1f57600080fd5b50565b600081359050611a3181611a0b565b92915050565b600060208284031215611a4d57611a4c6118d7565b5b6000611a5b84828501611a22565b91505092915050565b60008115159050919050565b611a7981611a64565b82525050565b6000602082019050611a946000830184611a70565b92915050565b600060208284031215611ab057611aaf6118d7565b5b6000611abe84828501611960565b91505092915050565b600081519050919050565b600082825260208201905092915050565b60005b83811015611b01578082015181840152602081019050611ae6565b60008484015250505050565b6000601f19601f8301169050919050565b6000611b2982611ac7565b611b338185611ad2565b9350611b43818560208601611ae3565b611b4c81611b0d565b840191505092915050565b60006020820190508181036000830152611b718184611b1e565b905092915050565b600080fd5b7f4e487b7100000000000000000000000000000000000000000000000000000000600052604160045260246000fd5b611bb682611b0d565b810181811067ffffffffffffffff82111715611bd557611bd4611b7e565b5b80604052505050565b6000611be86118cd565b9050611bf48282611bad565b919050565b600067ffffffffffffffff821115611c1457611c13611b7e565b5b602082029050602081019050919050565b600080fd5b6000611c3d611c3884611bf9565b611bde565b90508083825260208201905060208402830185811115611c6057611c5f611c25565b5b835b81811015611c895780611c758882611960565b845260208401935050602081019050611c62565b5050509392505050565b600082601f830112611ca857611ca7611b79565b5b8135611cb8848260208601611c2a565b91505092915050565b600080fd5b600067ffffffffffffffff821115611ce157611ce0611b7e565b5b611cea82611b0d565b9050602081019050919050565b82818337600083830152505050565b6000611d19611d1484611cc6565b611bde565b905082815260208101848484011115611d3557611d34611cc1565b5b611d40848285611cf7565b509392505050565b600082601f830112611d5d57611d5c611b79565b5b8135611d6d848260208601611d06565b91505092915050565b600080600080600060a08688031215611d9257611d916118d7565b5b6000611da08882890161192a565b9550506020611db18882890161192a565b945050604086013567ffffffffffffffff811115611dd257611dd16118dc565b5b611dde88828901611c93565b935050606086013567ffffffffffffffff811115611dff57611dfe6118dc565b5b611e0b88828901611c93565b925050608086013567ffffffffffffffff811115611e2c57611e2b6118dc565b5b611e3888828901611d48565b9150509295509295909350565b600067ffffffffffffffff821115611e6057611e5f611b7e565b5b602082029050602081019050919050565b6000611e84611e7f84611e45565b611bde565b90508083825260208201905060208402830185811115611ea757611ea6611c25565b5b835b81811015611ed05780611ebc888261192a565b845260208401935050602081019050611ea9565b5050509392505050565b600082601f830112611eef57611eee611b79565b5b8135611eff848260208601611e71565b91505092915050565b60008060408385031215611f1f57611f1e6118d7565b5b600083013567ffffffffffffffff811115611f3d57611f3c6118dc565b5b611f4985828601611eda565b925050602083013567ffffffffffffffff811115611f6a57611f696118dc565b5b611f7685828601611c93565b9150509250929050565b600081519050919050565b600082825260208201905092915050565b6000819050602082019050919050565b611fb58161193f565b82525050565b6000611fc78383611fac565b60208301905092915050565b6000602082019050919050565b6000611feb82611f80565b611ff58185611f8b565b935061200083611f9c565b8060005b838110156120315781516120188882611fbb565b975061202383611fd3565b925050600181019050612004565b5085935050505092915050565b600060208201905081810360008301526120588184611fe0565b905092915050565b600060208284031215612076576120756118d7565b5b60006120848482850161192a565b91505092915050565b600080600080608085870312156120a7576120a66118d7565b5b60006120b58782880161192a565b94505060206120c687828801611960565b93505060406120d787828801611960565b925050606085013567ffffffffffffffff8111156120f8576120f76118dc565b5b61210487828801611d48565b91505092959194509250565b61211981611901565b82525050565b60006020820190506121346000830184612110565b92915050565b61214381611a64565b811461214e57600080fd5b50565b6000813590506121608161213a565b92915050565b6000806040838503121561217d5761217c6118d7565b5b600061218b8582860161192a565b925050602061219c85828601612151565b9150509250929050565b600080604083850312156121bd576121bc6118d7565b5b60006121cb8582860161192a565b92505060206121dc8582860161192a565b9150509250929050565b600080600080600060a08688031215612202576122016118d7565b5b60006122108882890161192a565b95505060206122218882890161192a565b945050604061223288828901611960565b935050606061224388828901611960565b925050608086013567ffffffffffffffff811115612264576122636118dc565b5b61227088828901611d48565b9150509295509295909350565b7f455243313135353a2061646472657373207a65726f206973206e6f742061207660008201527f616c6964206f776e657200000000000000000000000000000000000000000000602082015250565b60006122d9602a83611ad2565b91506122e48261227d565b604082019050919050565b60006020820190508181036000830152612308816122cc565b9050919050565b7f4e487b7100000000000000000000000000000000000000000000000000000000600052602260045260246000fd5b6000600282049050600182168061235657607f821691505b6020821081036123695761236861230f565b5b50919050565b7f455243313135353a2063616c6c6572206973206e6f7420746f6b656e206f776e60008201527f6572206f7220617070726f766564000000000000000000000000000000000000602082015250565b60006123cb602e83611ad2565b91506123d68261236f565b604082019050919050565b600060208201905081810360008301526123fa816123be565b9050919050565b7f455243313135353a206163636f756e747320616e6420696473206c656e67746860008201527f206d69736d617463680000000000000000000000000000000000000000000000602082015250565b600061245d602983611ad2565b915061246882612401565b604082019050919050565b6000602082019050818103600083015261248c81612450565b9050919050565b7f4e487b7100000000000000000000000000000000000000000000000000000000600052603260045260246000fd5b7f4e487b7100000000000000000000000000000000000000000000000000000000600052601160045260246000fd5b60006124fc8261193f565b91507fffffffffffffffffffffffffffffffffffffffffffffffffffffffffffffffff820361252e5761252d6124c2565b5b600182019050919050565b7f4f6e6c792061646d696e2063616e2063616c6c20746869732066756e6374696f60008201527f6e00000000000000000000000000000000000000000000000000000000000000602082015250565b6000612595602183611ad2565b91506125a082612539565b604082019050919050565b600060208201905081810360008301526125c481612588565b9050919050565b7f4f776e61626c653a206e6577206f776e657220697320746865207a65726f206160008201527f6464726573730000000000000000000000000000000000000000000000000000602082015250565b6000612627602683611ad2565b9150612632826125cb565b604082019050919050565b600060208201905081810360008301526126568161261a565b9050919050565b7f455243313135353a2069647320616e6420616d6f756e7473206c656e6774682060008201527f6d69736d61746368000000000000000000000000000000000000000000000000602082015250565b60006126b9602883611ad2565b91506126c48261265d565b604082019050919050565b600060208201905081810360008301526126e8816126ac565b9050919050565b7f455243313135353a207472616e7366657220746f20746865207a65726f20616460008201527f6472657373000000000000000000000000000000000000000000000000000000602082015250565b600061274b602583611ad2565b9150612756826126ef565b604082019050919050565b6000602082019050818103600083015261277a8161273e565b9050919050565b7f455243313135353a20696e73756666696369656e742062616c616e636520666f60008201527f72207472616e7366657200000000000000000000000000000000000000000000602082015250565b60006127dd602a83611ad2565b91506127e882612781565b604082019050919050565b6000602082019050818103600083015261280c816127d0565b9050919050565b600061281e8261193f565b91506128298361193f565b9250828201905080821115612841576128406124c2565b5b92915050565b600060408201905081810360008301526128618185611fe0565b905081810360208301526128758184611fe0565b90509392505050565b7f4f776e61626c653a2063616c6c6572206973206e6f7420746865206f776e6572600082015250565b60006128b4602083611ad2565b91506128bf8261287e565b602082019050919050565b600060208201905081810360008301526128e3816128a7565b9050919050565b7f455243313135353a206d696e7420746f20746865207a65726f2061646472657360008201527f7300000000000000000000000000000000000000000000000000000000000000602082015250565b6000612946602183611ad2565b9150612951826128ea565b604082019050919050565b6000602082019050818103600083015261297581612939565b9050919050565b600060408201905061299160008301856119b5565b61299e60208301846119b5565b9392505050565b7f455243313135353a2073657474696e6720617070726f76616c2073746174757360008201527f20666f722073656c660000000000000000000000000000000000000000000000602082015250565b6000612a01602983611ad2565b9150612a0c826129a5565b604082019050919050565b60006020820190508181036000830152612a30816129f4565b9050919050565b600081519050919050565b600082825260208201905092915050565b6000612a5e82612a37565b612a688185612a42565b9350612a78818560208601611ae3565b612a8181611b0d565b840191505092915050565b600060a082019050612aa16000830188612110565b612aae6020830187612110565b8181036040830152612ac08186611fe0565b90508181036060830152612ad48185611fe0565b90508181036080830152612ae88184612a53565b90509695505050505050565b600081519050612b0381611a0b565b92915050565b600060208284031215612b1f57612b1e6118d7565b5b6000612b2d84828501612af4565b91505092915050565b60008160e01c9050919050565b600060033d1115612b625760046000803e612b5f600051612b36565b90505b90565b600060443d10612bf257612b776118cd565b60043d036004823e80513d602482011167ffffffffffffffff82111715612b9f575050612bf2565b808201805167ffffffffffffffff811115612bbd5750505050612bf2565b80602083010160043d038501811115612bda575050505050612bf2565b612be982602001850186611bad565b82955050505050505b90565b7f455243313135353a207472616e7366657220746f206e6f6e2d4552433131353560008201527f526563656976657220696d706c656d656e746572000000000000000000000000602082015250565b6000612c51603483611ad2565b9150612c5c82612bf5565b604082019050919050565b60006020820190508181036000830152612c8081612c44565b9050919050565b7f455243313135353a204552433131353552656365697665722072656a6563746560008201527f6420746f6b656e73000000000000000000000000000000000000000000000000602082015250565b6000612ce3602883611ad2565b9150612cee82612c87565b604082019050919050565b60006020820190508181036000830152612d1281612cd6565b9050919050565b600060a082019050612d2e6000830188612110565b612d3b6020830187612110565b612d4860408301866119b5565b612d5560608301856119b5565b8181036080830152612d678184612a53565b9050969550505050505056fea2646970667358221220015b705f2c0a826ba1e58e82fe93031db13ed9920381b58071689e2a045ab39a64736f6c63430008130033",
  "linkReferences": {},
  "deployedLinkReferences": {}
}